S014000053414D4C32315F4150505F312E73726563B0
S113000078200020990E0000950E0000950E000047
S113001000000000000000000000000000000000DC
S1130020000000000000000000000000950E000029
S11300300000000000000000950E0000950E000076
S1130040950E0000950E0000950E0000950E000020
S1130050950E0000950E0000950E0000950E000010
S1130060950E0000950E0000950E0000950E000000
S1130070950E0000950E0000950E0000950E0000F0
S1130080950E0000AD080000BD080000CD0800007A
S1130090DD080000ED080000950E0000950E00003C
S11300A0950E0000950E0000950E0000950E0000C0
S11300B00000000010B5064C2378002B07D1054B37
S11300C0002B02D0044800E000BF0123237010BDC0
S11300D004000020000000005C140000084B10B570
S11300E0002B03D00749084800E000BF0748036815
S11300F0002B00D110BD064B002BFBD09847F9E72D
S113010000000000080000205C1400005C140000E3
S11301100000000010B500230022037043708370B8
S1130120C370002103830362C36101240471C024EA
S11301306401C480017242728272C27202732A2400
S1130140025542738273C27303610275063C025501
S1130150C3840385417510BDF0B5CE4600B59AB091
S1130160050016000160B54A136A082003431362B0
S11301700B780338DB0703D51AB004BC9146F0BDF5
S11301802A68138C9BB2002BFBD10B781C209B0795
S1130190F2D473782B71002B04D1A94AD3690421BA
S11301A00B43D3612F6833786A46137069461E2067
S11301B0A44B98471E20A44B984734796022A34946
S11301C002A8A34B9847132C0BD9F48860229F49AB
S11301D002A89F4B9847132C11D900249C4B994695
S11301E01EE0A40002ABE05801A900234B70CB70C1
S11301F08B7001330B70C0B2964B9847E5E7A400AF
S113020002ABE05801A900234B70CB708B70013313
S11302100B70C0B28F4B9847DFE70134142C18D011
S11302200123A34032691A42F7D06022874902A809
S1130230C847132CF1D8A30002AA985801A9002397
S11302404B70CB708B7001330B70C0B2814B9847ED
S1130250E3E7737B9B01B27BD2011343DBB23B70B8
S1130260337DDB0172781343DBB2BB70F378342B3C
S113027000D933E19B00784AD3589F4604221024C6
S113028002211AE0717A327A102416E00622102430
S1130290012112E00822102400210EE00022302463
S11302A000210AE000222024002106E0002200248C
S11302B0002102E0022210240121090170230B40D5
S11302C013433B732A68138C9BB2002BFBD1737DC1
S11302D017203F2B00D94FE7F27BD2011343DBB247
S11302E07B732A68138C9BB2002BFBD1B3787B7091
S11302F02423F35CDB00327B92001A43F37A13432A
S1130300B27A5200134323437B812A68138C9BB235
S1130310002BFBD1338B002B1FD0102C00D1BFE05E
S11303206BD9202C00D19DE0302C16D1F27A002A12
S11303300AD0F26980321720FF2A00D91CE7326AFA
S11303408032FF2A00D917E71720F269FF2A00DD5F
S113035012E7326AFF2A00DD0EE77A8913437B81B4
S11303602A68138C9BB2002BFBD1B38BFB812A68C8
S1130370138C9BB2002BFBD1338C3B822A68138CE9
S11303809BB2002BFBD13379F28813433B812A685B
S1130390138C9BB2002BFBD12A33F35CFB70072335
S11303A03B711D33F35C002B1BD0F38C2B4A1720BD
S11303B0934200D9E0E67B822A68138C9BB2002B1F
S11303C0FBD1328D80231B01D31824499BB2172003
S11303D08B4200D9D0E6BA822A68138C9BB2002BD8
S11303E0FBD11F4B1B681A02E021C9000A409B067F
S11303F05B0F1343BB850020BEE6002CADD1F27A1F
S1130400002A0FD0F269802109018C466244134905
S113041017208A4200D9AFE6326A62440F498A4201
S113042000D9A9E60D4A1720F169914200DDA3E63F
S1130430316A914200DD9FE68FE7C0460004004028
S113044000140040390D0000C90C00004C130000DA
S113045065120000350E000078120000FF0F000046
S113046020608000F27A002A0FD0F269802189008E
S11304708C4662441A4917208A4200D97CE6326AC3
S1130480624417498A4200D976E6154A1720F16971
S1130490914200DD70E6316A914200DD6CE65CE772
S11304A0F27A002A0FD0F269802109028C46624454
S11304B00C4917208A4200D95EE6326A624409492F
S11304C08A4200D958E6074A1720F169914200DDB3
S11304D052E6316A914200DD4EE63EE717204BE6D4
S11304E0FF030000FFFF000030B587B001A90C4BEB
S11304F00A0032CB32C212CB12C2019B98420BD0FB
S1130500012301A99A005258824206D00133052BD7
S1130510F8D1002007B030BD0023D8B2FAE7C046B6
S1130520D4130000F0B5C64600B58EB004000D002B
S113053016000800AE4B984780460CAB1B221A707D
S11305405A7001329A70DA7001321A7102A9A94BF9
S113055014330A0083CB83C283CB83C283CB83C28D
S11305601B6813600023A360E36023616361237647
S1130570637643469A00A04BD45025603423F35C41
S1130580A376F378082B08D023712B680520DB07AA
S113059008D50EB004BC9046F0BD17204246D207E1
S11305A0F7D4F1E7EB7A17309B07F2D42B689B075B
S11305B0EFD4337C002B12D1337F002B1BD1434665
S11305C05A0002A9531C9B0058584346DB005B5851
S11305D0D9B2042923D88B008849CB589F4601A956
S11305E001238B700022CA70327E0A704B70307DFA
S11305F0834B9847E0E701A901238B700022CA705E
S11306002432B21812780A704B701F33F31818781A
S11306107B4B9847D3E77B494B6918434861F37890
S1130620082B00D186E033786A4613700CAB42463F
S11306309F5C69463800744B98473800734B984761
S1130640F378F2791343B2881343727A002A02D002
S1130650802252021343B27A002A02D080229202EC
S11306601343F27A002A02D0802252031343327BCE
S1130670002A02D080229203134371788901B27850
S1130680D2011143194322681369002BFCD129605C
S113069022681369002BFCD1B3792B73717B4B1E39
S11306A099418900B37B002B01D0012319432268AF
S11306B01369002BFCD1FF332B71002904D022686D
S11306C01369002BFCD16971337A6B732268136947
S11306D0002BFCD12379042B59D0082B74D017207C
S11306E0002B00D055E71369002BFCD1338DAB826E
S11306F022681369002BFCD1738DAB8322681369C4
S1130700002BFCD1B38DEB83002042E73D498B697C
S11307101843886183E73B49CB691843C8617EE786
S113072038490B6A1843086279E7364B596A08431B
S1130730586274E743460133042B00DD73E702ABD0
S1130740D11C8900C95802329200D358DAB2042A63
S113075000D968E793002E4AD3589F46294A536923
S1130760194351615FE7274A9369194391615AE735
S1130770244AD3691943D16155E7224A136A1943BC
S1130780116250E71F4B5A6A114359624BE71369D0
S1130790002BFCD12833F35C2B7522681369002BE2
S11307A0FCD12933F35CEB7622681369002BFCD16E
S11307B02A33F35C2B7722681369002BFCD12B338B
S11307C0F35C6B770020E4E61369002BFCD1B36A79
S11307D06B6122681369002BFCD1F36AEB61226818
S11307E01369002BFCD1336B2B620020D1E6C04689
S11307F0E9040000D413000040000020AC13000002
S1130800350E000000040040390D0000C90C000042
S1130810C0130000931C9B001950022A09D0032A1C
S11308200CD0012393401A00037E13430376002067
S11308307047037E102213430376F8E7037E2022D9
S113084013430376F3E7000070B58000164BC458D9
S113085023689D7A227E637E13401D40EB0706D4F5
S1130860AB070BD4EB0610D4AB0615D470BD200037
S1130870A3689847012322689372F1E72000E36894
S11308809847022322689372ECE720002369984773
S1130890102322689372E7E720006369984723686E
S11308A020229A72E2E7C0464000002010B50020E2
S11308B0014B984710BDC0464908000010B50120FF
S11308C0014B984710BDC0464908000010B50220EE
S11308D0014B984710BDC0464908000010B50320DD
S11308E0014B984710BDC0464908000010B50420CC
S11308F0014B984710BDC046490800000C4B1B68CB
S1130900002B06D1EFF31083002B07D00022094BF4
S11309101A70074A136801331360704772B6BFF345
S11309205F8F0022044B1A700132024B1A70F0E7F9
S1130930200000202400002000000020084B1A683A
S1130940013A1A601B68002B09D1064B1B78002B57
S113095005D00122044B1A70BFF35F8F62B6704753
S1130960200000202400002000000020F0B583B007
S113097001AC012565700027A770257021002A208D
S1130980064EB0478022D200054B9A6127706570ED
S113099021000220B04703B0F0BDC046A509000005
S11309A08028004000B583B001AB80221A700A7819
S11309B05A704A789A708A78DA701900014B98470D
S11309C003B000BD350E000010B5082803D8800020
S11309D01C4B1B589F46002032E01B4B18692FE02C
S11309E01A4B187D0007800F431C1948584327E011
S11309F0154B586924E0144B1B6800209B071FD536
S1130A00124980225200CB681342FCD00E4B1B6863
S1130A105B0701D40F4813E000200F4B98470A4BA3
S1130A209B681B041B0C58430AE02823074AD35C29
S1130A3000209B0704D5044BD86801E08020000205
S1130A4010BDC0461014000028000020000C004017
S1130A5000093D00006CDC025D0D000030B585B07E
S1130A60802252002F4B9A60FD3A2F4B9A602F4AF6
S1130A7053681E218B4353608023DB059B78022B34
S1130A800FD08023DB059B785BB2002B09DB80232E
S1130A90DB0501229A7101329A701A009379002BB6
S1130AA0FCD0204B197D802252420A431A751A7DCC
S1130AB04025AA431A751E4B98471E4C0123A37167
S1130AC06371237101A900234B7006220A700B7213
S1130AD04B724D600020184B98470020174B9847E5
S1130AE00020174B98472179C9B2164B9847164BEB
S1130AF0984214D88023DB059B78002B0FD08023E9
S1130B00DB059B785BB2002B09DB8023DB0501222C
S1130B109A7100229A701A009379002BFCD005B0C8
S1130B2030BDC046000C00400014004000400041AD
S1130B304D0B000000040040710B00001D0C000070
S1130B405D0C000005110000001BB700064A536944
S1130B5040210B4353610122044B1A7019000B7896
S1130B601342FCD17047C046000400400018004006
S1130B7070B504000D784B78002B02D08023DB0085
S1130B801D434B7A002B02D080231B011D43486870
S1130B9001280FD9431E184231D102282DD902232E
S1130BA0002201325B009842FBD880235B011D4385
S1130BB0120415430B7A002B02D080239B011D43A2
S1130BC00426A6401149124A4B6813401E42FBD129
S1130BD0104B9847A4000D4B9C466444226A802322
S1130BE05B001A402A4322626146094A4B6813405B
S1130BF01E42FBD1084B984770BD0022D5E7000484
S1130C0080239B0018430543D4E7C04600180040E6
S1130C10FC070000FD0800003D09000010B50400B9
S1130C200422824009480A4943680B401A42FBD116
S1130C30084B9847A400054B9C466444226A8023D1
S1130C405B0013432362044B984710BD0018004017
S1130C50FC070000FD0800003D090000F8B5040091
S1130C60042282401248134943680B401A42FBD1C4
S1130C70114B98470E4F0834A400E0590007000FA9
S1130C800E4B98470600E559ED04ED0FE459240C8A
S1130C900B4B9847002D07D1012C07D921003000B8
S1130CA0084B9847060001E00134E6403000F8BDE7
S1130CB000180040FC070000FD080000C9090000FE
S1130CC03D0900000511000010B50400094B9847C8
S1130CD0A000094B9C4660448022835840210B436A
S1130CE083504031403A43581A42FCD0034B984752
S1130CF010BDC046FD080000001800403D0900007A
S1130D0010B50400094B9847A000094B9C46604469
S1130D108022835840218B4383504031403A4358CA
S1130D201A42FCD1034B984710BDC046FD08000091
S1130D30001800403D09000070B504000D00054B8B
S1130D4098472A780F2313402034A400024AA35062
S1130D5070BDC046010D00000018004010B504002D
S1130D60064B98472034A400054BE4582407240F6D
S1130D70044B98472000044B984710BDFD08000021
S1130D80001800403D0900005D0C000030B5D37828
S1130D90002B35D11378802B29D01B0680246402C4
S1130DA0234354780225AC4306D19478002C20D1F7
S1130DB08024A402234341605478013C012C1CD9B3
S1130DC00D042D0CA024E4052C431C4384620D0C5B
S1130DD0D02424062C431C438462D478002C22D1D2
S1130DE05B031CD59378012B1ED0416117E00023CF
S1130DF0D7E7C024E4022343DDE70D4C2340DFE7BB
S1130E0041600C04240CA023DB05234383620C0CF7
S1130E10D0231B0623438362D378002B03D153785A
S1130E20013B012B02D930BD8161F8E78160FAE70B
S1130E30FFFFFBFF10B50A00C1090023002904D1FC
S1130E404309DB0105498C4663441F2420400121EA
S1130E5081401800024B984710BDC046002800404E
S1130E608D0D00007047000010B5054B9847054BE9
S1130E709847054B9847054B9847054B984710BD35
S1130E805D0A00006D090000650E0000650E00009B
S1130E90650E0000FEE7000010B51A4A1A4B9A428C
S1130EA011D01A00194B9A420DD2194A03339B1AD6
S1130EB09B0801339B000022134812498C5884502C
S1130EC004329A42FAD1134A134B9A420AD2D343B8
S1130ED011495B1803218B4304339B18002102C280
S1130EE09342FCD10D4AFF210D4B8B4393600D4A75
S1130EF053687F390B4353600B4B98470B4B984710
S1130F00FEE7C0465C14000000000020040000203E
S1130F1004000020040000207800002000ED00E020
S1130F2000000000004000411D120000B11000004C
S1130F30174B1A68138C9BB2002BFBD1137E022132
S1130F400B431376138C9BB2002BFBD19179C9B25E
S1130F5001330B40480701D502200343890701D51B
S1130F6004210B43DB0700D47047938C0123937156
S1130F709179C9B20B40480701D502200343890780
S1130F8001D504210B435B07EED502239371EBE7F4
S1130F907000002010B58EB000236A461370937160
S1130FA0D371012269464A708B700B724B728B723B
S1130FB0CB720B738B734B730B74059306930B7784
S1130FC0089309930B854B858B8534330022CA54CF
S1130FD0303BCB70E023DB008B80FF222923CA54F3
S1130FE0CD3A0133CA54084C6A4608492000084BDC
S1130FF0984722681369002BFCD1136802210B4324
S113100013600EB010BDC04654000020002C0042F6
S11310102505000010B58CB001A80E4B98470E4C66
S113102001AA0E4920000E4B98472268138C9BB2EC
S1131030002BFBD1073313719371137802210B43F7
S11310401370054B1A68138C9BB2002BFBD10CB0A8
S113105010BDC0461501000070000020000C0043C4
S11310605901000010B50C4C02220C4920000C4B15
S1131070984720680B4B98470B4B1B5C1F221A4068
S113108001239340094A1360637E1022134363765D
S1131090236810225A7210BD54000020310F000042
S11310A015080000E90400003414000000E100E029
S11310B010B50E4B98470E4B98470E4B98470E4B66
S11310C0984701220D4B1A70BFF35F8F62B603324B
S11310D08023DB055A705A78042AFCD18022D2007E
S11310E0074B9A61BFF34F8F30BFFBE7690E0000D7
S11310F0950F00001510000065100000000000208E
S113110080280040002243088B4274D303098B4299
S11311105FD3030A8B4244D3030B8B4228D3030CC3
S11311208B420DD3FF22090212BA030C8B4202D365
S11311301212090265D0030B8B4219D300E0090A8D
S1131140C30B8B4201D3CB03C01A5241830B8B4296
S113115001D38B03C01A5241430B8B4201D34B037F
S1131160C01A5241030B8B4201D30B03C01A5241E4
S1131170C30A8B4201D3CB02C01A5241830A8B4269
S113118001D38B02C01A5241430A8B4201D34B0252
S1131190C01A5241030A8B4201D30B02C01A5241B6
S11311A0CDD2C3098B4201D3CB01C01A524183096A
S11311B08B4201D38B01C01A524143098B4201D3A4
S11311C04B01C01A524103098B4201D30B01C01ACF
S11311D05241C3088B4201D3CB00C01A5241830849
S11311E08B4201D38B00C01A524143088B4201D376
S11311F04B00C01A5241411A00D2014652411046D6
S11312007047FFE701B5002000F006F802BDC046B4
S11312100029F7D076E770477047C04670B50026BE
S11312200C4D0D4C641BA410A64209D1002600F0FD
S113123005F90A4D0A4C641BA410A64205D170BDE1
S1131240B300EB5898470136EEE7B300EB589847E4
S11312500136F2E748140000481400004814000066
S11312604C140000002310B59A4200D110BDCC5C90
S1131270C4540133F8E70000AC020000DC040000B1
S1131280DC040000DC040000DC040000DC040000DA
S1131290DC040000DC040000DC040000DC040000CA
S11312A0DC040000DC040000DC040000DC040000BA
S11312B0DC040000DC04000094020000DC040000F4
S11312C0DC040000DC040000DC040000DC0400009A
S11312D0DC040000DC040000DC040000DC0400008A
S11312E0DC040000DC040000DC040000DC0400007A
S11312F0DC040000DC040000A4020000DC040000A4
S1131300DC040000DC040000DC040000DC04000059
S1131310DC040000DC040000DC040000DC04000049
S1131320DC040000DC040000DC040000DC04000039
S1131330DC040000DC0400009C020000B402000095
S11313407C0200008C020000840200000200000005
S11313500300000028000000290000000400000031
S11313600500000006000000070000002000000047
S113137021000000220000002300000024000000DF
S113138025000000260000002700000008000000DF
S1131390090000000A0000000B000000FFFF00002D
S11313A0FFFF0000FFFF0000FFFF00001606000023
S11313B00C07000016070000200700002A070000A1
S11313C05C07000066070000700700007A07000051
S11313D0840700000020004200240042002800424C
S11313E0002C00420008004302000000000100003D
S11313F002000000000200000200000000040000DF
S113140002000000000800000300000004000000C7
S1131410DA090000D6090000D60900003C0A0000E1
S11314203C0A0000F0090000E0090000F609000091
S11314302A0A00001112131415000000F8B5C04662
S1131440F8BC08BC9E467047DD000000F8B5C046F5
S10F1450F8BC08BC9E467047B5000000C4
S107145C0100000087
S9030E9955
