S02100004144435F515549434B5F53544152545F43414C4C4241434B312E73726563B5
S113000078210020010C0000FD0B0000FD0B000016
S113001000000000000000000000000000000000DC
S1130020000000000000000000000000FD0B0000C4
S11300300000000000000000FD0B0000FD0B0000AC
S1130040FD0B0000FD0B0000FD0B0000FD0B00008C
S1130050FD0B0000FD0B0000FD0B0000FD0B00007C
S1130060FD0B0000FD0B0000FD0B0000FD0B00006C
S1130070FD0B0000FD0B0000FD0B0000FD0B00005C
S1130080FD0B0000FD0B0000FD0B0000FD0B00004C
S1130090FD0B0000FD0B0000ED050000FD0B000052
S11300A0FD0B0000FD0B0000FD0B0000FD0B00002C
S11300B00000000010B5064C2378002B07D1054B37
S11300C0002B02D0044800E000BF0123237010BDC0
S11300D0040000200000000058110000084B10B577
S11300E0002B03D00749084800E000BF0748036815
S11300F0002B00D110BD064B002BFBD09847F9E72D
S113010000000000080000205811000058110000F1
S1130110000000000C4B1B68002B06D1EFF310838A
S1130120002B07D00022094B1A70074A13680133C9
S11301301360704772B6BFF35F8F0022044B1A70CE
S11301400132024B1A70F0E7200000202400002046
S113015000000020084B1A68013A1A601B68002B43
S113016009D1064B1B78002B05D00122044B1A70D1
S1130170BFF35F8F62B67047200000202400002088
S113018000000020F0B583B001AC012565700027A4
S1130190A770257021002A20064EB0478022D20085
S11301A0054B9A612770657021000220B04703B0A7
S11301B0F0BDC0460D0700008028004000207047B5
S11301C010B500230022037043708370C3700021B4
S11301D003830362C36101240471C0246401C480E5
S11301E0017242728272C27202732A2402554273ED
S11301F08273C27303610275063C0255C38403858E
S1130200417510BDF0B5CE4600B59AB005000C009E
S113021016000800B24B98472C60B24A136A0821B2
S11302200B43136222780523D20704D518001AB0B1
S113023004BC9146F0BD2A68138C9BB2002BFBD101
S113024022781C339207F1D473782B71002B04D1DC
S1130250A54AD36904210B43D3610023AB60EB604F
S11302602B61AB76EB762B832B7780009F4BC550AD
S11302702A23F35C002B05D1337B002B02D10133FD
S11302806B7701E000236B772F6833786A4613702D
S113029069461E20964B98471E20964B9847347902
S11302A06022954902A8954B9847132C0BD9F488E2
S11302B06022914902A8914B9847132C11D900242C
S11302C08E4B99461EE0A40002ABE05801A900231E
S11302D04B70CB708B7001330B70C0B2884B984756
S11302E0E5E7A40002ABE05801A900234B70CB70F2
S11302F08B7001330B70C0B2814B9847DFE7013438
S1130300142C18D00123A34032691A42F7D060227A
S1130310794902A8C847132CF1D8A30002AA985817
S113032001A900234B70CB708B7001330B70C0B2EA
S1130330734B9847E3E7737B9B01B27BD201134372
S1130340DBB23B70337DDB0172781343DBB2BB70ED
S1130350F378342B00D940E19B006A4AD3589F4676
S11303600422102002211AE0717A327A102016E059
S113037006221020012112E00822102000210EE0A4
S11303800022302000210AE000222020002106E083
S113039000220020002102E0022210200121090194
S11303A070230B4013433B732A68138C9BB2002BBE
S11303B0FBD1727D17333F2A00D937E7F37BDB018A
S11303C01A43D2B27A732A68138C9BB2002BFBD1E6
S11303D0B3787B702423F35CDB00327B92001A43F6
S11303E0F37A1343B27A5200134303437B812A689E
S11303F0138C9BB2002BFBD1328B002A20D0102807
S113040000D1C9E000D883E0202800D1A3E030283F
S113041016D1F37A002B0AD0F16980311723FF2912
S113042000D903E7316A8031FF2900D9FEE617239A
S1130430F169FF2900DDF9E6316AFF2900DDF5E6FF
S11304407B891A437A812A68138C9BB2002BFBD1D7
S1130450B38BFB812A68138C9BB2002BFBD1338CAA
S11304603B822A68138C9BB2002BFBD13379F28830
S113047013433B812A68138C9BB2002BFBD12A3394
S1130480F35CFB7007233B711D33F35C002B1BD023
S1130490F28C1D4917238A4200D9C7E67A822A685A
S11304A0138C9BB2002BFBD1318D80231B01CA1806
S11304B0154892B21723824200D9B7E6B9822A6856
S11304C0138C9BB2002BFBD1104B1B681A02E0214A
S11304D0C9000A409B065B0F1343BB850023A5E6B6
S11304E0BD0100000004004000140040540000203E
S11304F0A10A0000310A0000B4100000CD0F000072
S11305009D0B0000E00F0000FF0F00002060800042
S1130510002895D1F37A002B12D0F36980200001D2
S11305208446634419002E481723814200D97DE68E
S1130530336A634419002A481723814200D975E6B7
S113054027491723F069884200DD6FE6306A884244
S113055000DD6BE674E7F37A002B12D0F369802098
S113056080008446634419001E481723814200D941
S11305705CE6336A634419001A481723814200D9A0
S113058054E618491723F069884200DD4EE6306AC4
S1130590884200DD4AE653E7F37A002B12D0F36970
S11305A0802000028446634419000F4817238142C7
S11305B000D93BE6336A634419000B481723814290
S11305C000D933E608491723F069884200DD2DE697
S11305D0306A884200DD29E632E7172326E6C04662
S11305E0FF0F0000FF030000FFFF000070B52E4B5B
S11305F01C6823689D79EDB2EA072DD5E27ED20707
S11306002AD5A27ED20727D501229A716269931C4A
S1130610636123689B8C9BB21380238B013B9BB249
S11306202383002B15D0637F002B15D02268D37948
S11306305BB2002B10DB138C9BB2002BFBD1137E1F
S113064002210B4313762268138C9BB2002BFBD13F
S113065002E0237F052B16D06B0708D504232268FC
S11306609371E37E9B0702D5A37E9B0714D4AB074B
S113067008D5022322689371E37E5B0702D5A37E2B
S11306805B070DD470BD00232377013322681371F7
S11306902000A3689847DFE72000E3689847E6E76F
S11306A0236920009847EDE754000020931C9B0029
S11306B01950012393401A00837E134383767047B5
S11306C010B5038B9BB20524002B01D0200010BD74
S11306D0037F052BFAD00523037702834161043B92
S11306E002685371437F0024002BEFD00268138CFF
S11306F09BB2002BFBD1137E02210B4313760268BD
S1130700138C9BB2002BFBD10024DFE700B583B030
S113071001AB80221A700A785A704A789A708A78E3
S1130720DA701900014B984703B000BD9D0B00001F
S113073010B5082803D880001C4B1B589F46002086
S113074032E01B4B18692FE01A4B187D0007800F0D
S1130750431C1948584327E0154B586924E0144BAF
S11307601B6800209B071FD5124980225200CB68CA
S11307701342FCD00E4B1B685B0701D40F4813E0F7
S113078000200F4B98470A4B9B681B041B0C5843D3
S11307900AE02823074AD35C00209B0704D5044BB6
S11307A0D86801E08020000210BDC046141100008A
S11307B028000020000C004000093D00006CDC0211
S11307C0C50A000010B584B0802252002F4B9A60F5
S11307D0FD3A2F4B9A602F4A53681E218B43536076
S11307E08023DB059B78022B0FD08023DB059B78CD
S11307F05BB2002B09DB8023DB0501229A710132F5
S11308009A701A009379002BFCD0204B197D80221A
S113081052420A431A751A7D40218A431A751E4BA7
S113082098471E4C0123A3716371237101A94B6086
S113083000234B7006220A700B724B720020184B77
S113084098470020174B98470020174B9847217969
S1130850C9B2164B9847164B984214D88023DB052F
S11308609B78002B0FD08023DB059B785BB2002B99
S113087009DB8023DB0501229A7100229A701A0099
S11308809379002BFCD004B010BDC046000C00408E
S11308900014004000400041B5080000000400407E
S11308A0D908000085090000C5090000A50D000055
S11308B0001BB700064A536940210B4353610122D0
S11308C0044B1A7019000B781342FCD17047C046D0
S11308D0000400400018004070B504000D784B7807
S11308E0002B02D08023DB001D434B7A002B02D067
S11308F080231B011D43486801280FD9431E184259
S113090031D102282DD90223002201325B00984202
S1130910FBD880235B011D43120415430B7A002B83
S113092002D080239B011D430426A6401149124A8C
S11309304B6813401E42FBD1104B9847A4000D4B4B
S11309409C466444226A80235B001A402A43226244
S11309506146094A4B6813401E42FBD1084B984735
S113096070BD0022D5E7000480239B001843054393
S1130970D4E7C04600180040FC0700001501000041
S11309805501000010B504000422824009480A49B8
S113099043680B401A42FBD1084B9847A400054B0F
S11309A09C466444226A80235B0013432362044B05
S11309B0984710BD00180040FC0700001501000016
S11309C055010000F8B5040004228240124813497E
S11309D043680B401A42FBD1114B98470E4F083421
S11309E0A400E0590007000F0E4B98470600E55994
S11309F0ED04ED0FE459240C0B4B9847002D07D15F
S1130A00012C07D921003000084B9847060001E06B
S1130A100134E6403000F8BD00180040FC07000037
S1130A20150100003107000055010000A50D00006C
S1130A3010B50400094B9847A000094B9C4660443C
S1130A408022835840210B4383504031403A43581D
S1130A501A42FCD0034B984710BDC0461501000054
S1130A60001800405501000010B50400094B9847D8
S1130A70A000094B9C4660448022835840218B434C
S1130A8083504031403A43581A42FCD1034B9847B3
S1130A9010BDC046150100000018004055010000BB
S1130AA070B504000D00054B98472A780F231340B6
S1130AB02034A400024AA35070BDC046690A000055
S1130AC00018004010B50400064B98472034A400D9
S1130AD0054BE4582407240F044B98472000044B8B
S1130AE0984710BD15010000001800405501000092
S1130AF0C509000030B5D378002B35D11378802B8D
S1130B0029D01B0680246402234354780225AC4375
S1130B1006D19478002C20D18024A4022343416080
S1130B205478013C012C1CD90D042D0CA024E4059F
S1130B302C431C4384620D0CD02424062C431C43F8
S1130B408462D478002C22D15B031CD59378012BCA
S1130B501ED0416117E00023D7E7C024E4022343F9
S1130B60DDE70D4C2340DFE741600C04240CA02397
S1130B70DB05234383620C0CD0231B0623438362CF
S1130B80D378002B03D15378013B012B02D930BD1C
S1130B908161F8E78160FAE7FFFFFBFF10B50A0007
S1130BA0C1090023002904D14309DB0105498C460E
S1130BB063441F242040012181401800024B9847C0
S1130BC010BDC04600280040F50A00007047000030
S1130BD010B5054B9847054B9847054B9847054B6F
S1130BE09847054B984710BDC507000085010000D4
S1130BF0CD0B0000CD0B0000CD0B0000FEE7000084
S1130C0010B51A4A1A4B9A4211D01A00194B9A423B
S1130C100DD2194A03339B1A9B0801339B0000220F
S1130C20134812498C58845004329A42FAD1134A18
S1130C30134B9A420AD2D34311495B1803218B43C5
S1130C4004339B18002102C29342FCD10D4AFF21B8
S1130C500D4B8B4393600D4A53687F390B435360AC
S1130C600B4B98470B4B9847FEE7C04658110000C2
S1130C7000000020040000200400002004000020E4
S1130C807801002000ED00E0000000000040004179
S1130C90850F0000550D000010B5074CA368E360F4
S1130CA06368A360236863600020044B9847206056
S1130CB00122034B1A7010BD44000020BD0E000039
S1130CC04000002030B58DB001AC2000134B984794
S1130CD00223A3706370043323710023E370104D67
S1130CE0220010492800104B98472A68138C9BB2A5
S1130CF0002BFBD18021C9030C4B1960072313710E
S1130D009371137802210B431370054B1A68138CEB
S1130D109BB2002BFBD10DB030BDC046C101000019
S1130D2058010020000C00430502000000E100E02F
S1130D3010B5054C002205492000054B9847E37E79
S1130D4001221343E37610BD58010020990C0000E2
S1130D50AD06000010B50B4B98470B4B98470B4B57
S1130D60984701220A4B1A70BFF35F8F62B67F3235
S1130D7008490948094B9847094B1A78002AFCD0BE
S1130D80FEE7C046D10B0000C50C0000310D000089
S1130D90000000205800002058010020C106000077
S1130DA040000020002243088B4274D303098B4285
S1130DB05FD3030A8B4244D3030B8B4228D3030C27
S1130DC08B420DD3FF22090212BA030C8B4202D3C9
S1130DD01212090265D0030B8B4219D300E0090AF1
S1130DE0C30B8B4201D3CB03C01A5241830B8B42FA
S1130DF001D38B03C01A5241430B8B4201D34B03E3
S1130E00C01A5241030B8B4201D30B03C01A524147
S1130E10C30A8B4201D3CB02C01A5241830A8B42CC
S1130E2001D38B02C01A5241430A8B4201D34B02B5
S1130E30C01A5241030A8B4201D30B02C01A524119
S1130E40CDD2C3098B4201D3CB01C01A52418309CD
S1130E508B4201D38B01C01A524143098B4201D307
S1130E604B01C01A524103098B4201D30B01C01A32
S1130E705241C3088B4201D3CB00C01A52418308AC
S1130E808B4201D38B00C01A524143088B4201D3D9
S1130E904B00C01A5241411A00D201465241104639
S1130EA07047FFE701B5002000F006F802BDC04618
S1130EB00029F7D076E770477047C04610B5041E86
S1130EC027D000F041F89E231B1A962B0ADC9622A9
S1130ED0D21A94406402640ADBB26402DB05600A3D
S1130EE0184310BD992B17DC9922D21A002A27DD4A
S1130EF094402200134C1440510704D00F210A409F
S1130F00042A00D00434620112D4A401640ADBB2BE
S1130F10E3E700230024E0E7B9222100D21A91403C
S1130F200A00511E8A410521091ACC401443DBE70B
S1130F30044B1C409F23A4011B1A640ADBB2CCE7B8
S1130F402200D7E7FFFFFFFB1C2101231B0498426B
S1130F5001D3000C10391B0A984201D3000A083946
S1130F601B09984201D30009043902A2105C4018FD
S1130F707047C046040302020101010100000000A1
S1130F800000000070B500260C4D0D4C641BA4102D
S1130F90A64209D1002600F0CFF80A4D0A4C641B82
S1130FA0A410A64205D170BDB300EB589847013692
S1130FB0EEE7B300EB5898470136F2E7441100001E
S1130FC0441100004411000048110000002310B532
S1130FD09A4200D110BDCC5CC4540133F8E7000040
S1130FE090030000DA050000DA050000DA050000CD
S1130FF0DA050000DA050000DA050000DA05000071
S1131000DA050000DA050000DA050000DA05000060
S1131010DA050000DA050000DA050000DA05000050
S113102078030000DA050000DA050000DA050000A4
S1131030DA050000DA050000DA050000DA05000030
S1131040DA050000DA050000DA050000DA05000020
S1131050DA050000DA050000DA050000DA05000010
S113106088030000DA050000DA050000DA05000054
S1131070DA050000DA050000DA050000DA050000F0
S1131080DA050000DA050000DA050000DA050000E0
S1131090DA050000DA050000DA050000DA050000D0
S11310A08003000098030000600300007003000048
S11310B06803000002000000030000002800000094
S11310C029000000040000000500000006000000E4
S11310D007000000200000002100000022000000A2
S11310E0230000002400000025000000260000006A
S11310F02700000008000000090000000A000000AA
S11311000B000000FFFF0000FFFF0000FFFF0000D6
S1131110FFFF0000420700003E0700003E070000FA
S1131120A4070000A40700005807000048070000B7
S11311305E07000092070000F8B5C046F8BC08BC82
S11311409E467047DD000000F8B5C046F8BC08BCF8
S10B11509E467047B500000043
S1071158010000008E
S9030C01EF
