S0160000584D4547413235365F4150505F332E737265632D
S1130000FDC000001CC100001AC1000018C100009E
S113001016C1000014C1000012C1000010C100008C
S11300200EC100000CC100000AC1000008C100009C
S113003006C1000004C10000C8C30000F3C30000EF
S11300401EC4000049C4000074C400009FC4000022
S1130050CAC40000F5C4000020C500004BC5000060
S1130060EEC00000ECC00000EAC00000E8C00000E0
S1130070E6C00000E4C00000E2C00000E0C00000F0
S1130080DEC00000DCC00000DAC00000D8C0000000
S1130090D6C00000D4C00000D2C00000CEC2000010
S11300A0FEC200002EC300005EC30000C8C00000F2
S11300B0C6C00000C4C00000C2C000000AC70000DF
S11300C035C7000060C700008BC70000B6C700003A
S11300D0E1C700000C9477080C94A4080C94D10890
S11300E00C94FE08ACC00000AAC00000A8C0000028
S11300F0A6C00000A4C00000A2C00000A0C0000070
S11301009EC000009CC000009AC0000098C000007F
S113011096C0000094C0000092C00000C6C1000058
S1130120F6C1000026C2000056C2000088C00000CC
S113013086C000000CC5000037C5000062C5000081
S11301408DC50000B8C50000E3C500000EC6000060
S113015039C6000064C600008FC6000070C00000ED
S11301606EC000006CC000006AC0000068C00000DF
S113017066C0000064C0000062C0000060C00000EF
S11301805EC000005CC000005AC0000058C00000FF
S113019056C0000054C0000052C0000050C000000F
S11301A04EC000004CC000004AC0000048C000001F
S11301B00C942B090C9458090C9485090C94B209DD
S11301C00C94DF090C940C0A3AC0000038C00000FB
S11301D036C0000034C0000032C0000030C000004F
S11301E02EC000002CC000002AC0000028C000005F
S11301F026C0000024C0000022C0000011241FBE3D
S1130200CFEFCDBFDFE5DEBF00E00CBF10E2A0E022
S1130210B0E2ECE8F7E100E00BBF02C007900D92FA
S1130220A030B107D9F72AE2A0E0B0E201C01D92E4
S1130230A037B207E1F70E94650B0C94C40BE0CE23
S11302408FEF80937000809371008093720080938D
S113025073008093740080937500809376000895F2
S1130260CF93DF931F92CDB7DEB79FB79983F894EE
S11302709981E82FF0E0E059FF4F60958081682371
S113028060839FBF0F90DF91CF910895CF93DF9349
S1130290FC0120E030E0C62FD0E0DE01022E02C0D7
S11302A0B595A7950A94E2F7A0FD508B2F5F3F4FB9
S11302B031962830310589F740FF0AC041FF03C059
S11302C0FC01658302C0FC016683FC01618302C0FA
S11302D0FC016283DF91CF91089543E050E061E037
S11302E080EE97E0D3DF43E050E062E080EE97E0F9
S11302F0CDDF43E050E060E180E696E0C7DF41E017
S113030050E460E280E696E0C1DF40E05BE160E259
S113031080E896E0BBDF40E05BE162E080EA96E0E3
S1130320B5DF40E05BE164E080EA96E0AFDF43E004
S113033050E062E080E696E0A9DF43E050E068E048
S113034080E696E0A3DF43E050E068E080EA96E0D0
S11303509DDF43E050E061E080E696E097DF43E014
S113036050E068E080E096E091DF41E050E060E139
S113037080E896E08BDF43E050E062E080E696E0C0
S113038085DF43E050E068E080E696E07FDF40E010
S113039050E064E080E696E079DF43E050E060E11D
S11303A080EA96E073DF40E050E061E080E096E0B0
S11303B06DDF40E050E064E080E096E067DF40E01D
S11303C050E062E080E296E061DF43E050E068E004
S11303D080E496E05BDF40E050E064E080E496E097
S11303E055DF43E050E068E080E696E04FDF40E010
S11303F050E064E080E696E049DF43E050E068E0E6
S113040080E896E043DF40E050E064E080E896E076
S11304103DCF0895811522E0920761F48091012077
S113042091E0980F90930120811112C062E081E065
S113043017CF08958034924059F48091002091E0C0
S1130440980F90930020811103C062E082E008CFEE
S11304500895EF92FF921F93CF93DF931F921F9201
S1130460CDB7DEB77C018FB78983F8941981C701B2
S1130470D1DFF7018081816080831FBF8091672A6B
S11304808F3F09F4FFCF8FB78A83F8949A81E6E609
S1130490FAE281818F5F81839FBF0F900F90DF917C
S11304A0CF911F91FF90EF9008951F920F920FB676
S11304B00F9211240BB60F922F933F934F935F9398
S11304C06F937F938F939F93AF93BF93EF93FF9318
S11304D04091240250912502E0916E2AF0916F2AF6
S11304E061E080E092E01995FF91EF91BF91AF91A7
S11304F09F918F917F916F915F914F913F912F9138
S11305000F900BBE0F900FBE0F901F9018951F9267
S11305100F920FB60F9211240BB60F922F933F93A5
S11305204F935F936F937F938F939F93AF93BF93F7
S1130530EF93FF9340912C0250912D02E0916E2A8B
S1130540F0916F2A62E080E092E01995FF91EF91BB
S1130550BF91AF919F918F917F916F915F914F91D7
S11305603F912F910F900BBE0F900FBE0F901F90D5
S113057018951F920F920FB60F9211240BB60F927B
S11305802F933F934F935F936F937F938F939F9397
S1130590AF93BF93EF93FF93409134025091350290
S11305A0E0916E2AF0916F2A64E080E092E0199560
S11305B0FF91EF91BF91AF919F918F917F916F9137
S11305C05F914F913F912F910F900BBE0F900FBEF3
S11305D00F901F9018951F920F920FB60F9211242F
S11305E00BB60F922F933F934F935F936F937F9329
S11305F08F939F93AF93BF93EF93FF9340913C02EC
S113060050913D02E0916E2AF0916F2A68E080E0FB
S113061092E01995FF91EF91BF91AF919F918F91C6
S11306207F916F915F914F913F912F910F900BBEEE
S11306300F900FBE0F901F9018951F920F920FB638
S11306400F9211240BB60F922F933F934F935F9306
S11306506F937F938F939F93AF93BF93EF93FF9386
S11306604091640250916502E0916C2AF0916D2AE8
S113067061E080E492E01995FF91EF91BF91AF9111
S11306809F918F917F916F915F914F913F912F91A6
S11306900F900BBE0F900FBE0F901F9018951F92D6
S11306A00F920FB60F9211240BB60F922F933F9314
S11306B04F935F936F937F938F939F93AF93BF9366
S11306C0EF93FF9340916C0250916D02E0916C2A7C
S11306D0F0916D2A62E080E492E01995FF91EF9128
S11306E0BF91AF919F918F917F916F915F914F9146
S11306F03F912F910F900BBE0F900FBE0F901F9044
S113070018951F920F920FB60F9211240BB60F92E9
S11307102F933F934F935F936F937F938F939F9305
S1130720AF93BF93EF93FF9340917402509175027E
S1130730E0916C2AF0916D2A64E080E492E01995CE
S1130740FF91EF91BF91AF919F918F917F916F91A5
S11307505F914F913F912F910F900BBE0F900FBE61
S11307600F901F9018951F920F920FB60F9211249D
S11307700BB60F922F933F934F935F936F937F9397
S11307808F939F93AF93BF93EF93FF9340917C021A
S113079050917D02E0916C2AF0916D2A68E080E42A
S11307A092E01995FF91EF91BF91AF919F918F9135
S11307B07F916F915F914F913F912F910F900BBE5D
S11307C00F900FBE0F901F9018951F920F920FB6A7
S11307D00F9211240BB60F922F933F934F935F9375
S11307E06F937F938F939F93AF93BF93EF93FF93F5
S11307F0E0914820F0914920309709F01995FF9134
S1130800EF91BF91AF919F918F917F916F915F9184
S11308104F913F912F910F900BBE0F900FBE0F90F1
S11308201F9018951F920F920FB60F9211240BB6BA
S11308300F922F933F934F935F936F937F938F9375
S11308409F93AF93BF93EF93FF93E0914620F09172
S11308504720309709F01995FF91EF91BF91AF911F
S11308609F918F917F916F915F914F913F912F91C4
S11308700F900BBE0F900FBE0F901F9018951F92F4
S11308800F920FB60F9211240BB60F922F933F9332
S11308904F935F936F937F938F939F93AF93BF9384
S11308A0EF93FF93E0914420F0914520309709F0B5
S11308B01995FF91EF91BF91AF919F918F917F9186
S11308C06F915F914F913F912F910F900BBE0F90BD
S11308D00FBE0F901F9018951F920F920FB60F9294
S11308E011240BB60F922F933F934F935F936F9303
S11308F07F938F939F93AF93BF93EF93FF93E09175
S11309004220F0914320309709F01995FF91EF911F
S1130910BF91AF919F918F917F916F915F914F9113
S11309203F912F910F900BBE0F900FBE0F901F9011
S113093018951F920F920FB60F9211240BB60F92B7
S11309402F933F934F935F936F937F938F939F93D3
S1130950AF93BF93EF93FF93E0914020F091412038
S1130960309709F01995FF91EF91BF91AF919F9145
S11309708F917F916F915F914F913F912F910F9044
S11309800BBE0F900FBE0F901F9018951F920F92E1
S11309900FB60F9211240BB60F922F933F934F93E0
S11309A05F936F937F938F939F93AF93BF93EF93D3
S11309B0FF93E0913E20F0913F20309709F0199584
S11309C0FF91EF91BF91AF919F918F917F916F9123
S11309D05F914F913F912F910F900BBE0F900FBEDF
S11309E00F901F9018951F920F920FB60F9211241B
S11309F00BB60F922F933F934F935F936F937F9315
S1130A008F939F93AF93BF93EF93FF93E0913C2019
S1130A10F0913D20309709F01995FF91EF91BF9126
S1130A20AF919F918F917F916F915F914F913F9182
S1130A302F910F900BBE0F900FBE0F901F90189523
S1130A401F920F920FB60F9211240BB60F922F9391
S1130A503F934F935F936F937F938F939F93AF9342
S1130A60BF93EF93FF93E0913A20F0913B203097AE
S1130A7009F01995FF91EF91BF91AF919F918F91DB
S1130A807F916F915F914F913F912F910F900BBE8A
S1130A900F900FBE0F901F9018951F920F920FB6D4
S1130AA00F9211240BB60F922F933F934F935F93A2
S1130AB06F937F938F939F93AF93BF93EF93FF9322
S1130AC0E0913820F0913920309709F01995FF9181
S1130AD0EF91BF91AF919F918F917F916F915F91B2
S1130AE04F913F912F910F900BBE0F900FBE0F901F
S1130AF01F9018951F920F920FB60F9211240BB6E8
S1130B000F922F933F934F935F936F937F938F93A2
S1130B109F93AF93BF93EF93FF93E0913620F091AF
S1130B203720309709F01995FF91EF91BF91AF915C
S1130B309F918F917F916F915F914F913F912F91F1
S1130B400F900BBE0F900FBE0F901F9018951F9221
S1130B500F920FB60F9211240BB60F922F933F935F
S1130B604F935F936F937F938F939F93AF93BF93B1
S1130B70EF93FF93E0913420F0913520309709F002
S1130B801995FF91EF91BF91AF919F918F917F91B3
S1130B906F915F914F913F912F910F900BBE0F90EA
S1130BA00FBE0F901F9018951F920F920FB60F92C1
S1130BB011240BB60F922F933F934F935F936F9330
S1130BC07F938F939F93AF93BF93EF93FF93E091A2
S1130BD03220F0913320309709F01995FF91EF916D
S1130BE0BF91AF919F918F917F916F915F914F9141
S1130BF03F912F910F900BBE0F900FBE0F901F903F
S1130C0018951F920F920FB60F9211240BB60F92E4
S1130C102F933F934F935F936F937F938F939F9300
S1130C20AF93BF93EF93FF93E0913020F091312085
S1130C30309709F01995FF91EF91BF91AF919F9172
S1130C408F917F916F915F914F913F912F910F9071
S1130C500BBE0F900FBE0F901F9018951F920F920E
S1130C600FB60F9211240BB60F922F933F934F930D
S1130C705F936F937F938F939F93AF93BF93EF9300
S1130C80FF93E0912E20F0912F20309709F01995D1
S1130C90FF91EF91BF91AF919F918F917F916F9150
S1130CA05F914F913F912F910F900BBE0F900FBE0C
S1130CB00F901F9018951F920F920FB60F92112448
S1130CC00BB60F922F933F934F935F936F937F9342
S1130CD08F939F93AF93BF93EF93FF93E0912C2057
S1130CE0F0912D20309709F01995FF91EF91BF9164
S1130CF0AF919F918F917F916F915F914F913F91B0
S1130D002F910F900BBE0F900FBE0F901F90189550
S1130D101F920F920FB60F9211240BB60F922F93BE
S1130D203F934F935F936F937F938F939F93AF936F
S1130D30BF93EF93FF93E0912A20F0912B203097FB
S1130D4009F01995FF91EF91BF91AF919F918F9108
S1130D507F916F915F914F913F912F910F900BBEB7
S1130D600F900FBE0F901F9018951F920F920FB601
S1130D700F9211240BB60F922F933F934F935F93CF
S1130D806F937F938F939F93AF93BF93EF93FF934F
S1130D90E0912820F0912920309709F01995FF91CE
S1130DA0EF91BF91AF919F918F917F916F915F91DF
S1130DB04F913F912F910F900BBE0F900FBE0F904C
S1130DC01F9018951F920F920FB60F9211240BB615
S1130DD00F922F933F934F935F936F937F938F93D0
S1130DE09F93AF93BF93EF93FF93E0912620F091ED
S1130DF02720309709F01995FF91EF91BF91AF919A
S1130E009F918F917F916F915F914F913F912F911E
S1130E100F900BBE0F900FBE0F901F9018951F924E
S1130E200F920FB60F9211240BB60F922F933F938C
S1130E304F935F936F937F938F939F93AF93BF93DE
S1130E40EF93FF93E0912420F0912520309709F04F
S1130E501995FF91EF91BF91AF919F918F917F91E0
S1130E606F915F914F913F912F910F900BBE0F9017
S1130E700FBE0F901F9018951F920F920FB60F92EE
S1130E8011240BB60F922F933F934F935F936F935D
S1130E907F938F939F93AF93BF93EF93FF93E091CF
S1130EA02220F0912320309709F01995FF91EF91BA
S1130EB0BF91AF919F918F917F916F915F914F916E
S1130EC03F912F910F900BBE0F900FBE0F901F906C
S1130ED018951F920F920FB60F9211240BB60F9212
S1130EE02F933F934F935F936F937F938F939F932E
S1130EF0AF93BF93EF93FF93E0912020F0912120D3
S1130F00309709F01995FF91EF91BF91AF919F919F
S1130F108F917F916F915F914F913F912F910F909E
S1130F200BBE0F900FBE0F901F9018951F920F923B
S1130F300FB60F9211240BB60F922F933F934F933A
S1130F405F936F937F938F939F93AF93BF93EF932D
S1130F50FF93E0911E20F0911F20309709F019951E
S1130F60FF91EF91BF91AF919F918F917F916F917D
S1130F705F914F913F912F910F900BBE0F900FBE39
S1130F800F901F9018951F920F920FB60F92112475
S1130F900BB60F922F933F934F935F936F937F936F
S1130FA08F939F93AF93BF93EF93FF93E0911C2094
S1130FB0F0911D20309709F01995FF91EF91BF91A1
S1130FC0AF919F918F917F916F915F914F913F91DD
S1130FD02F910F900BBE0F900FBE0F901F9018957E
S1130FE01F920F920FB60F9211240BB60F922F93EC
S1130FF03F934F935F936F937F938F939F93AF939D
S1131000BF93EF93FF93E0911A20F0911B20309748
S113101009F01995FF91EF91BF91AF919F918F9135
S11310207F916F915F914F913F912F910F900BBEE4
S11310300F900FBE0F901F9018951F920F920FB62E
S11310400F9211240BB60F922F933F934F935F93FC
S11310506F937F938F939F93AF93BF93EF93FF937C
S1131060E0911820F0911920309709F01995FF911B
S1131070EF91BF91AF919F918F917F916F915F910C
S11310804F913F912F910F900BBE0F900FBE0F9079
S11310901F9018951F920F920FB60F9211240BB642
S11310A00F922F933F934F935F936F937F938F93FD
S11310B09F93AF93BF93EF93FF93E0911620F0912A
S11310C01720309709F01995FF91EF91BF91AF91D7
S11310D09F918F917F916F915F914F913F912F914C
S11310E00F900BBE0F900FBE0F901F9018951F927C
S11310F00F920FB60F9211240BB60F922F933F93BA
S11311004F935F936F937F938F939F93AF93BF930B
S1131110EF93FF93E0911420F0911520309709F09C
S11311201995FF91EF91BF91AF919F918F917F910D
S11311306F915F914F913F912F910F900BBE0F9044
S11311400FBE0F901F9018951F920F920FB60F921B
S113115011240BB60F922F933F934F935F936F938A
S11311607F938F939F93AF93BF93EF93FF93E091FC
S11311701220F0911320309709F01995FF91EF9107
S1131180BF91AF919F918F917F916F915F914F919B
S11311903F912F910F900BBE0F900FBE0F901F9099
S11311A018951F920F920FB60F9211240BB60F923F
S11311B02F933F934F935F936F937F938F939F935B
S11311C0AF93BF93EF93FF93E0911020F091112020
S11311D0309709F01995FF91EF91BF91AF919F91CD
S11311E08F917F916F915F914F913F912F910F90CC
S11311F00BBE0F900FBE0F901F9018951F920F9269
S11312000FB60F9211240BB60F922F933F934F9367
S11312105F936F937F938F939F93AF93BF93EF935A
S1131220FF93E0910E20F0910F20309709F019956B
S1131230FF91EF91BF91AF919F918F917F916F91AA
S11312405F914F913F912F910F900BBE0F900FBE66
S11312500F901F9018951F920F920FB60F921124A2
S11312600BB60F922F933F934F935F936F937F939C
S11312708F939F93AF93BF93EF93FF93E0910C20D1
S1131280F0910D20309709F01995FF91EF91BF91DE
S1131290AF919F918F917F916F915F914F913F910A
S11312A02F910F900BBE0F900FBE0F901F901895AB
S11312B01F920F920FB60F9211240BB60F922F9319
S11312C03F934F935F936F937F938F939F93AF93CA
S11312D0BF93EF93FF93E0910A20F0910B20309796
S11312E009F01995FF91EF91BF91AF919F918F9163
S11312F07F916F915F914F913F912F910F900BBE12
S11313000F900FBE0F901F9018951F920F920FB65B
S11313100F9211240BB60F922F933F934F935F9329
S11313206F937F938F939F93AF93BF93EF93FF93A9
S1131330E0910820F0910920309709F01995FF9168
S1131340EF91BF91AF919F918F917F916F915F9139
S11313504F913F912F910F900BBE0F900FBE0F90A6
S11313601F9018951F920F920FB60F9211240BB66F
S11313700F922F933F934F935F936F937F938F932A
S11313809F93AF93BF93EF93FF93E0910620F09167
S11313900720309709F01995FF91EF91BF91AF9114
S11313A09F918F917F916F915F914F913F912F9179
S11313B00F900BBE0F900FBE0F901F9018951F92A9
S11313C00F920FB60F9211240BB60F922F933F93E7
S11313D04F935F936F937F938F939F93AF93BF9339
S11313E0EF93FF93E0910420F0910520309709F0EA
S11313F01995FF91EF91BF91AF919F918F917F913B
S11314006F915F914F913F912F910F900BBE0F9071
S11314100FBE0F901F9018951F920F920FB60F9248
S113142011240BB60F922F933F934F935F936F93B7
S11314307F938F939F93AF93BF93EF93FF93E09129
S11314400220F0910320309709F01995FF91EF9154
S1131450BF91AF919F918F917F916F915F914F91C8
S11314603F912F910F900BBE0F900FBE0F901F90C6
S113147018951F93CF93DF931F921F92CDB7DEB7BA
S11314802FB72A83F8941A81282F392F211588E041
S1131490380749F461E083E00E94300164E083E0AE
S11314A00E9430014FC0203488E0380749F462E0DC
S11314B083E00E94300164E083E00E94300142C076
S11314C0211589E0380749F461E084E00E94300185
S11314D064E084E00E94300135C0203489E038079C
S11314E049F462E084E00E94300164E084E00E94F8
S11314F0300128C021158AE0380749F461E085E00D
S11315000E94300164E085E00E9430011BC0203459
S11315108AE0380749F462E085E00E94300164E023
S113152085E00E9430010EC021153B4049F461E082
S113153086E00E94300164E086E00E94300102C02F
S11315401FBF10C08091672A8F3F09F4FFCF8FB768
S11315508983F8949981E6E6FAE281818F5F818339
S11315609FBF1FBF0F900F90DF91CF911F910895E0
S1131570811528E0920729F4609344207093452054
S11315800895803428E0920729F4609338207093FA
S113159039200895811529E0920729F460933020B9
S11315A0709331200895803429E0920729F46093E0
S11315B0242070932520089581152AE0920729F4A8
S11315C060931C2070931D20089580342AE09207B4
S11315D029F46093102070931120089581159B4085
S11315E021F460930820709309200895CF93DF932A
S11315F01F92CDB7DEB781E0809347066091100259
S1131600709111028FB78983F8949981E0E0F2E038
S11316108081846080839FBFE2E6FAE22AE430E2BC
S1131620B291A2919291829184839583A683B78388
S1131630E217F307A9F780E090E069D060934A20AD
S113164070934B2080934C2090934D2087E892E038
S11316500197F1F781E0809347060F90DF91CF91D6
S1131660089580E098E005DF66EF7AE080E098E096
S11316707FDFE0E0F8E08181887F818388E391E087
S113168086A397A380A791A78181806181838781A5
S11316908C7F87838781816087838081807F856059
S11316A08083089588ED84BF81E080939600089537
S11316B0E0E7F0E083E5808385E0818382838FE740
S11316C083838483858386830895CF93DF931F92D6
S11316D0CDB7DEB787E08093A2000E946D010E941F
S11316E02001E0DFE5DF80E092E00E9429028FB76D
S11316F08983F8949981E0E0F2E0808184608083BA
S11317009FBF7894AEDF81E080934106FFCFE894D9
S113171009C097FB3EF490958095709561957F4F35
S11317208F4F9F4F9923A9F0F92F96E9BB279395E3
S1131730F695879577956795B795F111F8CFFAF4F3
S1131740BB0F11F460FF1BC06F5F7F4F8F4F9F4F24
S113175016C0882311F096E911C0772321F09EE882
S1131760872F762F05C0662371F096E8862F70E0E8
S113177060E02AF09A95660F771F881FDAF7880FC2
S10F17809695879597F90895F894FFCF8B
S9030000FC
