S014000054435F4558414D504C4531312E73726563AC
S1130000FDC000001CC100001AC1000018C100009E
S113001016C1000014C1000012C1000010C100008C
S11300200EC100000CC100000AC1000008C100009C
S113003006C1000004C100008DC10000B8C1000069
S1130040E3C100000EC2000039C2000064C2000017
S11300508FC20000BAC20000E5C2000010C3000055
S1130060EEC00000ECC00000EAC00000E8C00000E0
S1130070E6C00000E4C00000E2C00000E0C00000F0
S1130080DEC00000DCC00000DAC00000D8C0000000
S1130090D6C00000D4C00000D2C00000D0C0000010
S11300A0CEC00000CCC00000CAC00000C8C0000020
S11300B0C6C00000C4C00000C2C00000CFC400001D
S11300C0FAC4000025C5000050C500007BC500002F
S11300D0A6C50000D1C50000FCC5000027C600006D
S11300E052C60000ACC00000AAC00000A8C00000B6
S11300F0A6C00000A4C00000A2C00000A0C0000070
S11301009EC000009CC000009AC0000098C000007F
S113011096C0000094C0000092C0000090C000008F
S11301208EC000008CC000008AC0000088C000009F
S113013086C00000D1C20000FCC2000027C300003A
S113014052C300007DC30000A8C30000D3C3000055
S1130150FEC3000029C4000054C4000070C00000A5
S11301606EC000006CC000006AC0000068C00000DF
S113017066C0000064C0000062C0000060C00000EF
S11301805EC000005CC000005AC0000058C00000FF
S113019056C0000054C0000052C0000050C000000F
S11301A04EC000004CC000004AC0000048C000001F
S11301B017C6000042C600006DC6000098C60000C5
S11301C0C3C60000EEC600003AC0000038C00000FC
S11301D036C0000034C0000032C0000030C000004F
S11301E02EC000002CC000002AC0000028C000005F
S11301F026C0000024C0000022C0000011241FBE3D
S1130200CFEFCDBFDFE5DEBF00E00CBF10E2A0E022
S1130210B0E2EAE1F3E100E00BBF02C007900D9207
S1130220A030B107D9F720E2A0E0B0E201C01D92EE
S1130230AE34B207E1F70E9435090C948B09E0CE85
S11302408FEF80937000809371008093720080938D
S113025073008093740080937500809376000895F2
S1130260CF93DF931F92CDB7DEB79FB79983F894EE
S11302709981E82FF0E0E059FF4F60958081682371
S113028060839FBF0F90DF91CF910895CF93DF9349
S1130290FC0120E030E0C62FD0E0DE01022E02C0D7
S11302A0B595A7950A94E2F7A0FD508B2F5F3F4FB9
S11302B031962830310589F740FF0AC041FF03C059
S11302C0FC01658302C0FC016683FC01618302C0FA
S11302D0FC016283DF91CF91089543E050E061E037
S11302E080EE97E0D3DF43E050E062E080EE97E0F9
S11302F0CDDF43E050E060E180E696E0C7DF41E017
S113030050E460E280E696E0C1DF40E05BE160E259
S113031080E896E0BBDF40E05BE162E080EA96E0E3
S1130320B5DF40E05BE164E080EA96E0AFDF40E007
S113033050E061E080E096E0A9DF40E050E064E056
S113034080E096E0A3DF40E050E062E080E296E0E7
S11303509DCF08951F920F920FB60F9211240BB6E2
S11303600F922F933F934F935F936F937F938F934A
S11303709F93AF93BF93EF93FF93E0914620F09147
S11303804720309709F01995FF91EF91BF91AF91F4
S11303909F918F917F916F915F914F913F912F9199
S11303A00F900BBE0F900FBE0F901F9018951F92C9
S11303B00F920FB60F9211240BB60F922F933F9307
S11303C04F935F936F937F938F939F93AF93BF9359
S11303D0EF93FF93E0914420F0914520309709F08A
S11303E01995FF91EF91BF91AF919F918F917F915B
S11303F06F915F914F913F912F910F900BBE0F9092
S11304000FBE0F901F9018951F920F920FB60F9268
S113041011240BB60F922F933F934F935F936F93D7
S11304207F938F939F93AF93BF93EF93FF93E09149
S11304304220F0914320309709F01995FF91EF91F4
S1130440BF91AF919F918F917F916F915F914F91E8
S11304503F912F910F900BBE0F900FBE0F901F90E6
S113046018951F920F920FB60F9211240BB60F928C
S11304702F933F934F935F936F937F938F939F93A8
S1130480AF93BF93EF93FF93E0914020F09141200D
S1130490309709F01995FF91EF91BF91AF919F911A
S11304A08F917F916F915F914F913F912F910F9019
S11304B00BBE0F900FBE0F901F9018951F920F92B6
S11304C00FB60F9211240BB60F922F933F934F93B5
S11304D05F936F937F938F939F93AF93BF93EF93A8
S11304E0FF93E0913E20F0913F20309709F0199559
S11304F0FF91EF91BF91AF919F918F917F916F91F8
S11305005F914F913F912F910F900BBE0F900FBEB3
S11305100F901F9018951F920F920FB60F921124EF
S11305200BB60F922F933F934F935F936F937F93E9
S11305308F939F93AF93BF93EF93FF93E0913C20EE
S1130540F0913D20309709F01995FF91EF91BF91FB
S1130550AF919F918F917F916F915F914F913F9157
S11305602F910F900BBE0F900FBE0F901F901895F8
S11305701F920F920FB60F9211240BB60F922F9366
S11305803F934F935F936F937F938F939F93AF9317
S1130590BF93EF93FF93E0913A20F0913B20309783
S11305A009F01995FF91EF91BF91AF919F918F91B0
S11305B07F916F915F914F913F912F910F900BBE5F
S11305C00F900FBE0F901F9018951F920F920FB6A9
S11305D00F9211240BB60F922F933F934F935F9377
S11305E06F937F938F939F93AF93BF93EF93FF93F7
S11305F0E0913820F0913920309709F01995FF9156
S1130600EF91BF91AF919F918F917F916F915F9186
S11306104F913F912F910F900BBE0F900FBE0F90F3
S11306201F9018951F920F920FB60F9211240BB6BC
S11306300F922F933F934F935F936F937F938F9377
S11306409F93AF93BF93EF93FF93E0913620F09184
S11306503720309709F01995FF91EF91BF91AF9131
S11306609F918F917F916F915F914F913F912F91C6
S11306700F900BBE0F900FBE0F901F9018951F92F6
S11306800F920FB60F9211240BB60F922F933F9334
S11306904F935F936F937F938F939F93AF93BF9386
S11306A0EF93FF93E0913420F0913520309709F0D7
S11306B01995FF91EF91BF91AF919F918F917F9188
S11306C06F915F914F913F912F910F900BBE0F90BF
S11306D00FBE0F901F9018951F920F920FB60F9296
S11306E011240BB60F922F933F934F935F936F9305
S11306F07F938F939F93AF93BF93EF93FF93E09177
S11307003220F0913320309709F01995FF91EF9141
S1130710BF91AF919F918F917F916F915F914F9115
S11307203F912F910F900BBE0F900FBE0F901F9013
S113073018951F920F920FB60F9211240BB60F92B9
S11307402F933F934F935F936F937F938F939F93D5
S1130750AF93BF93EF93FF93E0913020F09131205A
S1130760309709F01995FF91EF91BF91AF919F9147
S11307708F917F916F915F914F913F912F910F9046
S11307800BBE0F900FBE0F901F9018951F920F92E3
S11307900FB60F9211240BB60F922F933F934F93E2
S11307A05F936F937F938F939F93AF93BF93EF93D5
S11307B0FF93E0912E20F0912F20309709F01995A6
S11307C0FF91EF91BF91AF919F918F917F916F9125
S11307D05F914F913F912F910F900BBE0F900FBEE1
S11307E00F901F9018951F920F920FB60F9211241D
S11307F00BB60F922F933F934F935F936F937F9317
S11308008F939F93AF93BF93EF93FF93E0912C202B
S1130810F0912D20309709F01995FF91EF91BF9138
S1130820AF919F918F917F916F915F914F913F9184
S11308302F910F900BBE0F900FBE0F901F90189525
S11308401F920F920FB60F9211240BB60F922F9393
S11308503F934F935F936F937F938F939F93AF9344
S1130860BF93EF93FF93E0912A20F0912B203097D0
S113087009F01995FF91EF91BF91AF919F918F91DD
S11308807F916F915F914F913F912F910F900BBE8C
S11308900F900FBE0F901F9018951F920F920FB6D6
S11308A00F9211240BB60F922F933F934F935F93A4
S11308B06F937F938F939F93AF93BF93EF93FF9324
S11308C0E0912820F0912920309709F01995FF91A3
S11308D0EF91BF91AF919F918F917F916F915F91B4
S11308E04F913F912F910F900BBE0F900FBE0F9021
S11308F01F9018951F920F920FB60F9211240BB6EA
S11309000F922F933F934F935F936F937F938F93A4
S11309109F93AF93BF93EF93FF93E0912620F091C1
S11309202720309709F01995FF91EF91BF91AF916E
S11309309F918F917F916F915F914F913F912F91F3
S11309400F900BBE0F900FBE0F901F9018951F9223
S11309500F920FB60F9211240BB60F922F933F9361
S11309604F935F936F937F938F939F93AF93BF93B3
S1130970EF93FF93E0912420F0912520309709F024
S11309801995FF91EF91BF91AF919F918F917F91B5
S11309906F915F914F913F912F910F900BBE0F90EC
S11309A00FBE0F901F9018951F920F920FB60F92C3
S11309B011240BB60F922F933F934F935F936F9332
S11309C07F938F939F93AF93BF93EF93FF93E091A4
S11309D02220F0912320309709F01995FF91EF918F
S11309E0BF91AF919F918F917F916F915F914F9143
S11309F03F912F910F900BBE0F900FBE0F901F9041
S1130A0018951F920F920FB60F9211240BB60F92E6
S1130A102F933F934F935F936F937F938F939F9302
S1130A20AF93BF93EF93FF93E0912020F0912120A7
S1130A30309709F01995FF91EF91BF91AF919F9174
S1130A408F917F916F915F914F913F912F910F9073
S1130A500BBE0F900FBE0F901F9018951F920F9210
S1130A600FB60F9211240BB60F922F933F934F930F
S1130A705F936F937F938F939F93AF93BF93EF9302
S1130A80FF93E0911E20F0911F20309709F01995F3
S1130A90FF91EF91BF91AF919F918F917F916F9152
S1130AA05F914F913F912F910F900BBE0F900FBE0E
S1130AB00F901F9018951F920F920FB60F9211244A
S1130AC00BB60F922F933F934F935F936F937F9344
S1130AD08F939F93AF93BF93EF93FF93E0911C2069
S1130AE0F0911D20309709F01995FF91EF91BF9176
S1130AF0AF919F918F917F916F915F914F913F91B2
S1130B002F910F900BBE0F900FBE0F901F90189552
S1130B101F920F920FB60F9211240BB60F922F93C0
S1130B203F934F935F936F937F938F939F93AF9371
S1130B30BF93EF93FF93E0911A20F0911B2030971D
S1130B4009F01995FF91EF91BF91AF919F918F910A
S1130B507F916F915F914F913F912F910F900BBEB9
S1130B600F900FBE0F901F9018951F920F920FB603
S1130B700F9211240BB60F922F933F934F935F93D1
S1130B806F937F938F939F93AF93BF93EF93FF9351
S1130B90E0911820F0911920309709F01995FF91F0
S1130BA0EF91BF91AF919F918F917F916F915F91E1
S1130BB04F913F912F910F900BBE0F900FBE0F904E
S1130BC01F9018951F920F920FB60F9211240BB617
S1130BD00F922F933F934F935F936F937F938F93D2
S1130BE09F93AF93BF93EF93FF93E0911620F091FF
S1130BF01720309709F01995FF91EF91BF91AF91AC
S1130C009F918F917F916F915F914F913F912F9120
S1130C100F900BBE0F900FBE0F901F9018951F9250
S1130C200F920FB60F9211240BB60F922F933F938E
S1130C304F935F936F937F938F939F93AF93BF93E0
S1130C40EF93FF93E0911420F0911520309709F071
S1130C501995FF91EF91BF91AF919F918F917F91E2
S1130C606F915F914F913F912F910F900BBE0F9019
S1130C700FBE0F901F9018951F920F920FB60F92F0
S1130C8011240BB60F922F933F934F935F936F935F
S1130C907F938F939F93AF93BF93EF93FF93E091D1
S1130CA01220F0911320309709F01995FF91EF91DC
S1130CB0BF91AF919F918F917F916F915F914F9170
S1130CC03F912F910F900BBE0F900FBE0F901F906E
S1130CD018951F920F920FB60F9211240BB60F9214
S1130CE02F933F934F935F936F937F938F939F9330
S1130CF0AF93BF93EF93FF93E0911020F0911120F5
S1130D00309709F01995FF91EF91BF91AF919F91A1
S1130D108F917F916F915F914F913F912F910F90A0
S1130D200BBE0F900FBE0F901F9018951F920F923D
S1130D300FB60F9211240BB60F922F933F934F933C
S1130D405F936F937F938F939F93AF93BF93EF932F
S1130D50FF93E0910E20F0910F20309709F0199540
S1130D60FF91EF91BF91AF919F918F917F916F917F
S1130D705F914F913F912F910F900BBE0F900FBE3B
S1130D800F901F9018951F920F920FB60F92112477
S1130D900BB60F922F933F934F935F936F937F9371
S1130DA08F939F93AF93BF93EF93FF93E0910C20A6
S1130DB0F0910D20309709F01995FF91EF91BF91B3
S1130DC0AF919F918F917F916F915F914F913F91DF
S1130DD02F910F900BBE0F900FBE0F901F90189580
S1130DE01F920F920FB60F9211240BB60F922F93EE
S1130DF03F934F935F936F937F938F939F93AF939F
S1130E00BF93EF93FF93E0910A20F0910B2030976A
S1130E1009F01995FF91EF91BF91AF919F918F9137
S1130E207F916F915F914F913F912F910F900BBEE6
S1130E300F900FBE0F901F9018951F920F920FB630
S1130E400F9211240BB60F922F933F934F935F93FE
S1130E506F937F938F939F93AF93BF93EF93FF937E
S1130E60E0910820F0910920309709F01995FF913D
S1130E70EF91BF91AF919F918F917F916F915F910E
S1130E804F913F912F910F900BBE0F900FBE0F907B
S1130E901F9018951F920F920FB60F9211240BB644
S1130EA00F922F933F934F935F936F937F938F93FF
S1130EB09F93AF93BF93EF93FF93E0910620F0913C
S1130EC00720309709F01995FF91EF91BF91AF91E9
S1130ED09F918F917F916F915F914F913F912F914E
S1130EE00F900BBE0F900FBE0F901F9018951F927E
S1130EF00F920FB60F9211240BB60F922F933F93BC
S1130F004F935F936F937F938F939F93AF93BF930D
S1130F10EF93FF93E0910420F0910520309709F0BE
S1130F201995FF91EF91BF91AF919F918F917F910F
S1130F306F915F914F913F912F910F900BBE0F9046
S1130F400FBE0F901F9018951F920F920FB60F921D
S1130F5011240BB60F922F933F934F935F936F938C
S1130F607F938F939F93AF93BF93EF93FF93E091FE
S1130F700220F0910320309709F01995FF91EF9129
S1130F80BF91AF919F918F917F916F915F914F919D
S1130F903F912F910F900BBE0F900FBE0F901F909B
S1130FA018951F920F920FB60F9211240BB60F9241
S1130FB02F933F934F935F936F937F938F939F935D
S1130FC0AF93BF93EF93FF93E0910020F091012042
S1130FD0309709F01995FF91EF91BF91AF919F91CF
S1130FE08F917F916F915F914F913F912F910F90CE
S1130FF00BBE0F900FBE0F901F9018951F93CF93A9
S1131000DF931F921F92CDB7DEB72FB72A83F894D0
S11310101A81282F392F211588E0380739F461E027
S113102083E01ED964E083E01BD943C0203488E008
S1131030380739F462E083E013D964E083E010D91F
S113104038C0211589E0380739F461E084E008D913
S113105064E084E005D92DC0203489E0380739F4F0
S113106062E084E0FDD864E084E0FAD822C021156F
S11310708AE0380739F461E085E0F2D864E085E07D
S1131080EFD817C020348AE0380739F462E085E0ED
S1131090E7D864E085E0E4D80CC021153B4039F47E
S11310A061E086E0DDD864E086E0DAD802C01FBFE4
S11310B010C0809149208F3F09F4FFCF8FB78983F7
S11310C0F8949981E8E4F0E281818F5F81839FBF86
S11310D01FBF0F900F90DF91CF911F91089581153D
S11310E028E0920729F460934620709347200895DE
S11310F0803428E0920729F460933A2070933B20CF
S11311000895811529E0920729F4609332207093A1
S113111033200895803429E0920729F4609326202F
S113112070932720089581152AE0920729F460938B
S11311301E2070931F20089580342AE0920729F41A
S11311406093122070931320089581159B4021F41D
S113115060930A2070930B200895811528E092076C
S113116029F460934220709343200895803428E04A
S1131170920729F4609336207093372008958115DF
S113118029E0920729F460932E2070932F2008956C
S1131190803429E0920729F460932220709323205D
S11311A0089581152AE0920729F460931A20709318
S11311B01B20089580342AE0920729F460930E20BE
S11311C070930F20089581159B4021F460930620AD
S11311D0709307200895811528E0920729F46093FD
S11311E04020709341200895803428E0920729F428
S11311F060933420709335200895811529E0920777
S113120029F460932C2070932D200895803429E0D4
S1131210920729F46093202070932120089581156A
S11312202AE0920729F460931820709319200895F6
S113123080342AE0920729F460930C2070930D20E7
S1131240089581159B4021F4609304207093052038
S1131250089581E08093E707089582E08093E7078B
S1131260089580E180936706089587E08093A20043
S113127034D80E942001E8E4F0E210821182128244
S11312801382148281E08583789480E098E0B6DE4E
S113129069E279E080E098E022DF6DE279E080E0C5
S11312A098E05BDF61E379E080E098E094DFE0E0E0
S11312B0F8E08181887F818382E19AE786A397A3FE
S11312C089E09DE380A791A784E89EE182A793A784
S11312D081818063818386818C7F8683868181601E
S11312E0868387818C7F87838781816087838781D9
S11312F0837F87838781846087838081807F856003
S11313008083E8E4F0E08081817F80838081816054
S10D131080838895FECFF894FFCF88
S9030000FC
