S014000054435F4558414D504C4531312E73726563AC
S1130000FDC000001BC1000019C1000017C10000A1
S113001015C1000013C1000011C100000FC1000090
S11300200DC100000BC1000009C1000007C10000A0
S113003005C1000003C100008CC10000B7C100006D
S1130040E2C100000DC2000038C2000063C200001B
S11300508EC20000B9C20000E4C200000FC3000059
S1130060EDC00000EBC00000E9C00000E7C00000E4
S1130070E5C00000E3C00000E1C00000DFC00000F4
S1130080DDC00000DBC00000D9C00000D7C0000004
S1130090D5C00000D3C00000D1C00000CFC0000014
S11300A0CDC00000CBC00000C9C00000C7C0000024
S11300B0C5C00000C3C00000C1C00000CEC4000021
S11300C0F9C4000024C500004FC500007AC5000033
S11300D0A5C50000D0C50000FBC5000026C6000071
S11300E051C60000ABC00000A9C00000A7C00000BA
S11300F0A5C00000A3C00000A1C000009FC0000074
S11301009DC000009BC0000099C0000097C0000083
S113011095C0000093C0000091C000008FC0000093
S11301208DC000008BC0000089C0000087C00000A3
S113013085C00000D0C20000FBC2000026C300003E
S113014051C300007CC30000A7C30000D2C3000059
S1130150FDC3000028C4000053C400006FC00000A9
S11301606DC000006BC0000069C0000067C00000E3
S113017065C0000063C0000061C000005FC00000F3
S11301805DC000005BC0000059C0000057C0000003
S113019055C0000053C0000051C000004FC0000013
S11301A04DC000004BC0000049C0000047C0000023
S11301B016C6000041C600006CC6000097C60000C9
S11301C0C2C60000EDC6000039C0000037C0000000
S11301D035C0000033C0000031C000002FC0000053
S11301E02DC000002BC0000029C0000027C0000063
S11301F025C0000023C0000021C0000011241FBE40
S1130200CFEFCDBFDFE5DEBF00E00CBF10E2A0E022
S1130210B0E2EEE4F2E100E00BBF02C007900D9201
S1130220A630B107D9F720E2A6E0B0E201C01D92E2
S1130230A83CB207E1F7B0D70C942509E1CE8FEFC3
S11302408093700080937100809372008093730098
S11302508093740080937500809376000895CF9303
S1130260DF931F92CDB7DEB79FB79983F894998136
S1130270E82FF0E0E059FF4F6095808168236083A8
S11302809FBF0F90DF91CF910895CF93DF93FC012F
S113029020E030E0C62FD0E0DE01022E02C0B5958A
S11302A0A7950A94E2F7A0FD508B2F5F3F4F31963C
S11302B02830310589F740FF0AC041FF03C0FC0123
S11302C0658302C0FC016683FC01618302C0FC01FA
S11302D06283DF91CF91089543E050E061E080EEC6
S11302E097E0D3DF43E050E062E080EE97E0CDDFBB
S11302F043E050E060E180E696E0C7DF41E050E48F
S113030060E280E696E0C1DF40E05BE160E280E825
S113031096E0BBDF40E05BE162E080EA96E0B5DFB7
S113032040E05BE164E080EA96E0AFDF40E050E06B
S113033061E080E096E0A9DF40E050E064E080E026
S113034096E0A3DF40E050E062E080E296E09DCFDB
S113035008951F920F920FB60F9211240BB60F92AD
S11303602F933F934F935F936F937F938F939F93B9
S1130370AF93BF93EF93FF93E0914C20F0914D2006
S1130380309709F01995FF91EF91BF91AF919F912B
S11303908F917F916F915F914F913F912F910F902A
S11303A00BBE0F900FBE0F901F9018951F920F92C7
S11303B00FB60F9211240BB60F922F933F934F93C6
S11303C05F936F937F938F939F93AF93BF93EF93B9
S11303D0FF93E0914A20F0914B20309709F0199552
S11303E0FF91EF91BF91AF919F918F917F916F9109
S11303F05F914F913F912F910F900BBE0F900FBEC5
S11304000F901F9018951F920F920FB60F92112400
S11304100BB60F922F933F934F935F936F937F93FA
S11304208F939F93AF93BF93EF93FF93E0914820F3
S1130430F0914920309709F01995FF91EF91BF9100
S1130440AF919F918F917F916F915F914F913F9168
S11304502F910F900BBE0F900FBE0F901F90189509
S11304601F920F920FB60F9211240BB60F922F9377
S11304703F934F935F936F937F938F939F93AF9328
S1130480BF93EF93FF93E0914620F091472030977C
S113049009F01995FF91EF91BF91AF919F918F91C1
S11304A07F916F915F914F913F912F910F900BBE70
S11304B00F900FBE0F901F9018951F920F920FB6BA
S11304C00F9211240BB60F922F933F934F935F9388
S11304D06F937F938F939F93AF93BF93EF93FF9308
S11304E0E0914420F0914520309709F01995FF914F
S11304F0EF91BF91AF919F918F917F916F915F9198
S11305004F913F912F910F900BBE0F900FBE0F9004
S11305101F9018951F920F920FB60F9211240BB6CD
S11305200F922F933F934F935F936F937F938F9388
S11305309F93AF93BF93EF93FF93E0914220F09189
S11305404320309709F01995FF91EF91BF91AF9136
S11305509F918F917F916F915F914F913F912F91D7
S11305600F900BBE0F900FBE0F901F9018951F9207
S11305700F920FB60F9211240BB60F922F933F9345
S11305804F935F936F937F938F939F93AF93BF9397
S1130590EF93FF93E0914020F0914120309709F0D0
S11305A01995FF91EF91BF91AF919F918F917F9199
S11305B06F915F914F913F912F910F900BBE0F90D0
S11305C00FBE0F901F9018951F920F920FB60F92A7
S11305D011240BB60F922F933F934F935F936F9316
S11305E07F938F939F93AF93BF93EF93FF93E09188
S11305F03E20F0913F20309709F01995FF91EF913B
S1130600BF91AF919F918F917F916F915F914F9126
S11306103F912F910F900BBE0F900FBE0F901F9024
S113062018951F920F920FB60F9211240BB60F92CA
S11306302F933F934F935F936F937F938F939F93E6
S1130640AF93BF93EF93FF93E0913C20F0913D2053
S1130650309709F01995FF91EF91BF91AF919F9158
S11306608F917F916F915F914F913F912F910F9057
S11306700BBE0F900FBE0F901F9018951F920F92F4
S11306800FB60F9211240BB60F922F933F934F93F3
S11306905F936F937F938F939F93AF93BF93EF93E6
S11306A0FF93E0913A20F0913B20309709F019959F
S11306B0FF91EF91BF91AF919F918F917F916F9136
S11306C05F914F913F912F910F900BBE0F900FBEF2
S11306D00F901F9018951F920F920FB60F9211242E
S11306E00BB60F922F933F934F935F936F937F9328
S11306F08F939F93AF93BF93EF93FF93E091382031
S1130700F0913920309709F01995FF91EF91BF913D
S1130710AF919F918F917F916F915F914F913F9195
S11307202F910F900BBE0F900FBE0F901F90189536
S11307301F920F920FB60F9211240BB60F922F93A4
S11307403F934F935F936F937F938F939F93AF9355
S1130750BF93EF93FF93E0913620F09137203097C9
S113076009F01995FF91EF91BF91AF919F918F91EE
S11307707F916F915F914F913F912F910F900BBE9D
S11307800F900FBE0F901F9018951F920F920FB6E7
S11307900F9211240BB60F922F933F934F935F93B5
S11307A06F937F938F939F93AF93BF93EF93FF9335
S11307B0E0913420F0913520309709F01995FF919C
S11307C0EF91BF91AF919F918F917F916F915F91C5
S11307D04F913F912F910F900BBE0F900FBE0F9032
S11307E01F9018951F920F920FB60F9211240BB6FB
S11307F00F922F933F934F935F936F937F938F93B6
S11308009F93AF93BF93EF93FF93E0913220F091C6
S11308103320309709F01995FF91EF91BF91AF9173
S11308209F918F917F916F915F914F913F912F9104
S11308300F900BBE0F900FBE0F901F9018951F9234
S11308400F920FB60F9211240BB60F922F933F9372
S11308504F935F936F937F938F939F93AF93BF93C4
S1130860EF93FF93E0913020F0913120309709F01D
S11308701995FF91EF91BF91AF919F918F917F91C6
S11308806F915F914F913F912F910F900BBE0F90FD
S11308900FBE0F901F9018951F920F920FB60F92D4
S11308A011240BB60F922F933F934F935F936F9343
S11308B07F938F939F93AF93BF93EF93FF93E091B5
S11308C02E20F0912F20309709F01995FF91EF9188
S11308D0BF91AF919F918F917F916F915F914F9154
S11308E03F912F910F900BBE0F900FBE0F901F9052
S11308F018951F920F920FB60F9211240BB60F92F8
S11309002F933F934F935F936F937F938F939F9313
S1130910AF93BF93EF93FF93E0912C20F0912D20A0
S1130920309709F01995FF91EF91BF91AF919F9185
S11309308F917F916F915F914F913F912F910F9084
S11309400BBE0F900FBE0F901F9018951F920F9221
S11309500FB60F9211240BB60F922F933F934F9320
S11309605F936F937F938F939F93AF93BF93EF9313
S1130970FF93E0912A20F0912B20309709F01995EC
S1130980FF91EF91BF91AF919F918F917F916F9163
S11309905F914F913F912F910F900BBE0F900FBE1F
S11309A00F901F9018951F920F920FB60F9211245B
S11309B00BB60F922F933F934F935F936F937F9355
S11309C08F939F93AF93BF93EF93FF93E09128206E
S11309D0F0912920309709F01995FF91EF91BF917B
S11309E0AF919F918F917F916F915F914F913F91C3
S11309F02F910F900BBE0F900FBE0F901F90189564
S1130A001F920F920FB60F9211240BB60F922F93D1
S1130A103F934F935F936F937F938F939F93AF9382
S1130A20BF93EF93FF93E0912620F0912720309716
S1130A3009F01995FF91EF91BF91AF919F918F911B
S1130A407F916F915F914F913F912F910F900BBECA
S1130A500F900FBE0F901F9018951F920F920FB614
S1130A600F9211240BB60F922F933F934F935F93E2
S1130A706F937F938F939F93AF93BF93EF93FF9362
S1130A80E0912420F0912520309709F01995FF91E9
S1130A90EF91BF91AF919F918F917F916F915F91F2
S1130AA04F913F912F910F900BBE0F900FBE0F905F
S1130AB01F9018951F920F920FB60F9211240BB628
S1130AC00F922F933F934F935F936F937F938F93E3
S1130AD09F93AF93BF93EF93FF93E0912220F09104
S1130AE02320309709F01995FF91EF91BF91AF91B1
S1130AF09F918F917F916F915F914F913F912F9132
S1130B000F900BBE0F900FBE0F901F9018951F9261
S1130B100F920FB60F9211240BB60F922F933F939F
S1130B204F935F936F937F938F939F93AF93BF93F1
S1130B30EF93FF93E0912020F0912120309709F06A
S1130B401995FF91EF91BF91AF919F918F917F91F3
S1130B506F915F914F913F912F910F900BBE0F902A
S1130B600FBE0F901F9018951F920F920FB60F9201
S1130B7011240BB60F922F933F934F935F936F9370
S1130B807F938F939F93AF93BF93EF93FF93E091E2
S1130B901E20F0911F20309709F01995FF91EF91D5
S1130BA0BF91AF919F918F917F916F915F914F9181
S1130BB03F912F910F900BBE0F900FBE0F901F907F
S1130BC018951F920F920FB60F9211240BB60F9225
S1130BD02F933F934F935F936F937F938F939F9341
S1130BE0AF93BF93EF93FF93E0911C20F0911D20EE
S1130BF0309709F01995FF91EF91BF91AF919F91B3
S1130C008F917F916F915F914F913F912F910F90B1
S1130C100BBE0F900FBE0F901F9018951F920F924E
S1130C200FB60F9211240BB60F922F933F934F934D
S1130C305F936F937F938F939F93AF93BF93EF9340
S1130C40FF93E0911A20F0911B20309709F0199539
S1130C50FF91EF91BF91AF919F918F917F916F9190
S1130C605F914F913F912F910F900BBE0F900FBE4C
S1130C700F901F9018951F920F920FB60F92112488
S1130C800BB60F922F933F934F935F936F937F9382
S1130C908F939F93AF93BF93EF93FF93E0911820AB
S1130CA0F0911920309709F01995FF91EF91BF91B8
S1130CB0AF919F918F917F916F915F914F913F91F0
S1130CC02F910F900BBE0F900FBE0F901F90189591
S1130CD01F920F920FB60F9211240BB60F922F93FF
S1130CE03F934F935F936F937F938F939F93AF93B0
S1130CF0BF93EF93FF93E0911620F0911720309764
S1130D0009F01995FF91EF91BF91AF919F918F9148
S1130D107F916F915F914F913F912F910F900BBEF7
S1130D200F900FBE0F901F9018951F920F920FB641
S1130D300F9211240BB60F922F933F934F935F930F
S1130D406F937F938F939F93AF93BF93EF93FF938F
S1130D50E0911420F0911520309709F01995FF9136
S1130D60EF91BF91AF919F918F917F916F915F911F
S1130D704F913F912F910F900BBE0F900FBE0F908C
S1130D801F9018951F920F920FB60F9211240BB655
S1130D900F922F933F934F935F936F937F938F9310
S1130DA09F93AF93BF93EF93FF93E0911220F09141
S1130DB01320309709F01995FF91EF91BF91AF91EE
S1130DC09F918F917F916F915F914F913F912F915F
S1130DD00F900BBE0F900FBE0F901F9018951F928F
S1130DE00F920FB60F9211240BB60F922F933F93CD
S1130DF04F935F936F937F938F939F93AF93BF931F
S1130E00EF93FF93E0911020F0911120309709F0B7
S1130E101995FF91EF91BF91AF919F918F917F9120
S1130E206F915F914F913F912F910F900BBE0F9057
S1130E300FBE0F901F9018951F920F920FB60F922E
S1130E4011240BB60F922F933F934F935F936F939D
S1130E507F938F939F93AF93BF93EF93FF93E0910F
S1130E600E20F0910F20309709F01995FF91EF9122
S1130E70BF91AF919F918F917F916F915F914F91AE
S1130E803F912F910F900BBE0F900FBE0F901F90AC
S1130E9018951F920F920FB60F9211240BB60F9252
S1130EA02F933F934F935F936F937F938F939F936E
S1130EB0AF93BF93EF93FF93E0910C20F0910D203B
S1130EC0309709F01995FF91EF91BF91AF919F91E0
S1130ED08F917F916F915F914F913F912F910F90DF
S1130EE00BBE0F900FBE0F901F9018951F920F927C
S1130EF00FB60F9211240BB60F922F933F934F937B
S1130F005F936F937F938F939F93AF93BF93EF936D
S1130F10FF93E0910A20F0910B20309709F0199586
S1130F20FF91EF91BF91AF919F918F917F916F91BD
S1130F305F914F913F912F910F900BBE0F900FBE79
S1130F400F901F9018951F920F920FB60F921124B5
S1130F500BB60F922F933F934F935F936F937F93AF
S1130F608F939F93AF93BF93EF93FF93E0910820E8
S1130F70F0910920309709F01995FF91EF91BF91F5
S1130F80AF919F918F917F916F915F914F913F911D
S1130F902F910F900BBE0F900FBE0F901F901895BE
S1130FA01F920F920FB60F9211240BB60F922F932C
S1130FB03F934F935F936F937F938F939F93AF93DD
S1130FC0BF93EF93FF93E0910620F09107203097B1
S1130FD009F01995FF91EF91BF91AF919F918F9176
S1130FE07F916F915F914F913F912F910F900BBE25
S1130FF00F900FBE0F901F9018951F93CF93DF9300
S11310001F921F92CDB7DEB72FB72A83F8941A81A7
S1131010282F392F211588E0380739F461E083E05F
S11310201ED964E083E01BD943C0203488E038072C
S113103039F462E083E013D964E083E010D938C066
S1131040211589E0380739F461E084E008D964E0C7
S113105084E005D92DC0203489E0380739F462E0F2
S113106084E0FDD864E084E0FAD822C021158AE047
S1131070380739F461E085E0F2D864E085E0EFD820
S113108017C020348AE0380739F462E085E0E7D8F5
S113109064E085E0E4D80CC021153B4039F461E0FC
S11310A086E0DDD864E086E0DAD802C01FBF10C055
S11310B08091C3208F3F09F4FFCF8FB78983F894C1
S11310C09981E2ECF0E281818F5F81839FBF1FBF32
S11310D00F900F90DF91CF911F910895811528E013
S11310E0920729F46093482070934920089580342E
S11310F028E0920729F460933C2070933D200895E2
S1131100811529E0920729F46093342070933520E7
S11311100895803429E0920729F46093282070937D
S11311202920089581152AE0920729F4609320204C
S113113070932120089580342AE0920729F4609363
S1131140142070931520089581159B4021F4609319
S11311500C2070930D200895EEEBF0E22EE430E2C3
S1131160B291A2919291829184839583A683B7834D
S1131170E217F307A9F780E090EFAFE7B5E48093B7
S11311804E2090934F20A0935020B09351208DE196
S113119090E00197F1F7089587E08093A2009CD82E
S11311A04ED8E2ECF0E21082118212821382148291
S11311B081E0858378948093410680E2809365067C
S11311C080E098E01ADF6CEA78E080E098E086DF5F
S11311D0E0E0F8E08181887F818384E690E086A363
S11311E097A380A791A781818061818387818C7F68
S11311F087838781816087838081807F8760808304
S113120022EC30E2C8E4D0E0F894F9018081811145
S113121009C0A3ECB0E2E0E0EF5F8D918823E1F335
S1131220E11102C07894F0CF8881F0E0E150F04EF3
S1131230817F9081892B88838881816088837894D9
S1111240889588818E7F8883DFCFF894FFCF56
S109124E000E060C040072
S9030000FC
