S014000054435F4558414D504C4531312E73726563AC
S1130000FDC000001CC100001AC1000018C100009E
S113001016C1000014C1000012C1000010C100008C
S11300200EC100000CC100000AC1000008C100009C
S113003006C1000004C1000068C3000093C30000AF
S1130040BEC30000E9C3000014C400003FC40000A4
S11300506AC4000095C40000C0C40000EBC40000E2
S1130060EEC00000ECC00000EAC00000E8C00000E0
S1130070E6C00000E4C00000E2C00000E0C00000F0
S1130080DEC00000DCC00000DAC00000D8C0000000
S1130090D6C00000D4C00000D2C000006EC2000070
S11300A09EC20000CEC20000FEC20000C8C0000014
S11300B0C6C00000C4C00000C2C00000AAC6000040
S11300C0D5C6000000C700002BC7000056C70000BB
S11300D081C70000ACC70000D7C700000C947108AA
S11300E00C949E08ACC00000AAC00000A8C0000088
S11300F0A6C00000A4C00000A2C00000A0C0000070
S11301009EC000009CC000009AC0000098C000007F
S113011096C0000094C0000092C0000066C10000B8
S113012096C10000C6C10000F6C1000088C00000EE
S113013086C00000ACC40000D7C4000002C50000A3
S11301402DC5000058C5000083C50000AEC50000E1
S1130150D9C5000004C600002FC6000070C000000E
S11301606EC000006CC000006AC0000068C00000DF
S113017066C0000064C0000062C0000060C00000EF
S11301805EC000005CC000005AC0000058C00000FF
S113019056C0000054C0000052C0000050C000000F
S11301A04EC000004CC000004AC0000048C000001F
S11301B0F2C700000C94F8080C9425090C94520919
S11301C00C947F090C94AC093AC0000038C00000BC
S11301D036C0000034C0000032C0000030C000004F
S11301E02EC000002CC000002AC0000028C000005F
S11301F026C0000024C0000022C0000011241FBE3D
S1130200CFEFCDBFDFE5DEBF00E00CBF10E2A0E022
S1130210B0E2E6EBF6E100E00BBF02C007900D92FE
S1130220A030B107D9F720E2A0E0B0E201C01D92EE
S1130230AC37B207E1F70E94CD0A0C94590BE0CE1B
S11302408FEF80937000809371008093720080938D
S113025073008093740080937500809376000895F2
S1130260CF93DF931F92CDB7DEB79FB79983F894EE
S11302709981E82FF0E0E059FF4F60958081682371
S113028060839FBF0F90DF91CF910895CF93DF9349
S1130290FC0120E030E0C62FD0E0DE01022E02C0D7
S11302A0B595A7950A94E2F7A0FD508B2F5F3F4FB9
S11302B031962830310589F740FF0AC041FF03C059
S11302C0FC01658302C0FC016683FC01618302C0FA
S11302D0FC016283DF91CF91089543E050E061E037
S11302E080EE97E0D3DF43E050E062E080EE97E0F9
S11302F0CDDF43E050E060E180E696E0C7DF41E017
S113030050E460E280E696E0C1DF40E05BE160E259
S113031080E896E0BBDF40E05BE162E080EA96E0E3
S1130320B5DF40E05BE164E080EA96E0AFDF40E007
S113033050E061E080E096E0A9DF40E050E064E056
S113034080E096E0A3DF40E050E062E080E296E0E7
S11303509DCF0895811522E0920761F480910120D8
S113036091E0980F90930120811112C062E081E026
S113037077CF08958034924059F48091002091E021
S1130380980F90930020811103C062E082E068CF4F
S11303900895EF92FF921F93CF93DF931F921F92C2
S11303A0CDB7DEB77C018FB78983F8941981C70173
S11303B0D1DFF7018081816080831FBF809173202A
S11303C08F3F09F4FFCF8FB78A83F8949A81E2E7CD
S11303D0F0E281818F5F81839FBF0F900F90DF9147
S11303E0CF911F91FF90EF9008951F920F920FB637
S11303F00F9211240BB60F922F933F934F935F9359
S11304006F937F938F939F93AF93BF93EF93FF93D8
S11304104091240250912502E0917A20F0917B20B2
S113042061E080E092E01995FF91EF91BF91AF9167
S11304309F918F917F916F915F914F913F912F91F8
S11304400F900BBE0F900FBE0F901F9018951F9228
S11304500F920FB60F9211240BB60F922F933F9366
S11304604F935F936F937F938F939F93AF93BF93B8
S1130470EF93FF9340912C0250912D02E0917A204A
S1130480F0917B2062E080E092E01995FF91EF917A
S1130490BF91AF919F918F917F916F915F914F9198
S11304A03F912F910F900BBE0F900FBE0F901F9096
S11304B018951F920F920FB60F9211240BB60F923C
S11304C02F933F934F935F936F937F938F939F9358
S11304D0AF93BF93EF93FF93409134025091350251
S11304E0E0917A20F0917B2064E080E092E019951D
S11304F0FF91EF91BF91AF919F918F917F916F91F8
S11305005F914F913F912F910F900BBE0F900FBEB3
S11305100F901F9018951F920F920FB60F921124EF
S11305200BB60F922F933F934F935F936F937F93E9
S11305308F939F93AF93BF93EF93FF9340913C02AC
S113054050913D02E0917A20F0917B2068E080E0B8
S113055092E01995FF91EF91BF91AF919F918F9187
S11305607F916F915F914F913F912F910F900BBEAF
S11305700F900FBE0F901F9018951F920F920FB6F9
S11305800F9211240BB60F922F933F934F935F93C7
S11305906F937F938F939F93AF93BF93EF93FF9347
S11305A04091640250916502E0917820F0917920A5
S11305B061E080E492E01995FF91EF91BF91AF91D2
S11305C09F918F917F916F915F914F913F912F9167
S11305D00F900BBE0F900FBE0F901F9018951F9297
S11305E00F920FB60F9211240BB60F922F933F93D5
S11305F04F935F936F937F938F939F93AF93BF9327
S1130600EF93FF9340916C0250916D02E09178203A
S1130610F091792062E080E492E01995FF91EF91E6
S1130620BF91AF919F918F917F916F915F914F9106
S11306303F912F910F900BBE0F900FBE0F901F9004
S113064018951F920F920FB60F9211240BB60F92AA
S11306502F933F934F935F936F937F938F939F93C6
S1130660AF93BF93EF93FF9340917402509175023F
S1130670E0917820F091792064E080E492E019958B
S1130680FF91EF91BF91AF919F918F917F916F9166
S11306905F914F913F912F910F900BBE0F900FBE22
S11306A00F901F9018951F920F920FB60F9211245E
S11306B00BB60F922F933F934F935F936F937F9358
S11306C08F939F93AF93BF93EF93FF9340917C02DB
S11306D050917D02E0917820F091792068E080E4E7
S11306E092E01995FF91EF91BF91AF919F918F91F6
S11306F07F916F915F914F913F912F910F900BBE1E
S11307000F900FBE0F901F9018951F920F920FB667
S11307100F9211240BB60F922F933F934F935F9335
S11307206F937F938F939F93AF93BF93EF93FF93B5
S1130730E0914820F0914920309709F01995FF91F4
S1130740EF91BF91AF919F918F917F916F915F9145
S11307504F913F912F910F900BBE0F900FBE0F90B2
S11307601F9018951F920F920FB60F9211240BB67B
S11307700F922F933F934F935F936F937F938F9336
S11307809F93AF93BF93EF93FF93E0914620F09133
S11307904720309709F01995FF91EF91BF91AF91E0
S11307A09F918F917F916F915F914F913F912F9185
S11307B00F900BBE0F900FBE0F901F9018951F92B5
S11307C00F920FB60F9211240BB60F922F933F93F3
S11307D04F935F936F937F938F939F93AF93BF9345
S11307E0EF93FF93E0914420F0914520309709F076
S11307F01995FF91EF91BF91AF919F918F917F9147
S11308006F915F914F913F912F910F900BBE0F907D
S11308100FBE0F901F9018951F920F920FB60F9254
S113082011240BB60F922F933F934F935F936F93C3
S11308307F938F939F93AF93BF93EF93FF93E09135
S11308404220F0914320309709F01995FF91EF91E0
S1130850BF91AF919F918F917F916F915F914F91D4
S11308603F912F910F900BBE0F900FBE0F901F90D2
S113087018951F920F920FB60F9211240BB60F9278
S11308802F933F934F935F936F937F938F939F9394
S1130890AF93BF93EF93FF93E0914020F0914120F9
S11308A0309709F01995FF91EF91BF91AF919F9106
S11308B08F917F916F915F914F913F912F910F9005
S11308C00BBE0F900FBE0F901F9018951F920F92A2
S11308D00FB60F9211240BB60F922F933F934F93A1
S11308E05F936F937F938F939F93AF93BF93EF9394
S11308F0FF93E0913E20F0913F20309709F0199545
S1130900FF91EF91BF91AF919F918F917F916F91E3
S11309105F914F913F912F910F900BBE0F900FBE9F
S11309200F901F9018951F920F920FB60F921124DB
S11309300BB60F922F933F934F935F936F937F93D5
S11309408F939F93AF93BF93EF93FF93E0913C20DA
S1130950F0913D20309709F01995FF91EF91BF91E7
S1130960AF919F918F917F916F915F914F913F9143
S11309702F910F900BBE0F900FBE0F901F901895E4
S11309801F920F920FB60F9211240BB60F922F9352
S11309903F934F935F936F937F938F939F93AF9303
S11309A0BF93EF93FF93E0913A20F0913B2030976F
S11309B009F01995FF91EF91BF91AF919F918F919C
S11309C07F916F915F914F913F912F910F900BBE4B
S11309D00F900FBE0F901F9018951F920F920FB695
S11309E00F9211240BB60F922F933F934F935F9363
S11309F06F937F938F939F93AF93BF93EF93FF93E3
S1130A00E0913820F0913920309709F01995FF9141
S1130A10EF91BF91AF919F918F917F916F915F9172
S1130A204F913F912F910F900BBE0F900FBE0F90DF
S1130A301F9018951F920F920FB60F9211240BB6A8
S1130A400F922F933F934F935F936F937F938F9363
S1130A509F93AF93BF93EF93FF93E0913620F09170
S1130A603720309709F01995FF91EF91BF91AF911D
S1130A709F918F917F916F915F914F913F912F91B2
S1130A800F900BBE0F900FBE0F901F9018951F92E2
S1130A900F920FB60F9211240BB60F922F933F9320
S1130AA04F935F936F937F938F939F93AF93BF9372
S1130AB0EF93FF93E0913420F0913520309709F0C3
S1130AC01995FF91EF91BF91AF919F918F917F9174
S1130AD06F915F914F913F912F910F900BBE0F90AB
S1130AE00FBE0F901F9018951F920F920FB60F9282
S1130AF011240BB60F922F933F934F935F936F93F1
S1130B007F938F939F93AF93BF93EF93FF93E09162
S1130B103220F0913320309709F01995FF91EF912D
S1130B20BF91AF919F918F917F916F915F914F9101
S1130B303F912F910F900BBE0F900FBE0F901F90FF
S1130B4018951F920F920FB60F9211240BB60F92A5
S1130B502F933F934F935F936F937F938F939F93C1
S1130B60AF93BF93EF93FF93E0913020F091312046
S1130B70309709F01995FF91EF91BF91AF919F9133
S1130B808F917F916F915F914F913F912F910F9032
S1130B900BBE0F900FBE0F901F9018951F920F92CF
S1130BA00FB60F9211240BB60F922F933F934F93CE
S1130BB05F936F937F938F939F93AF93BF93EF93C1
S1130BC0FF93E0912E20F0912F20309709F0199592
S1130BD0FF91EF91BF91AF919F918F917F916F9111
S1130BE05F914F913F912F910F900BBE0F900FBECD
S1130BF00F901F9018951F920F920FB60F92112409
S1130C000BB60F922F933F934F935F936F937F9302
S1130C108F939F93AF93BF93EF93FF93E0912C2017
S1130C20F0912D20309709F01995FF91EF91BF9124
S1130C30AF919F918F917F916F915F914F913F9170
S1130C402F910F900BBE0F900FBE0F901F90189511
S1130C501F920F920FB60F9211240BB60F922F937F
S1130C603F934F935F936F937F938F939F93AF9330
S1130C70BF93EF93FF93E0912A20F0912B203097BC
S1130C8009F01995FF91EF91BF91AF919F918F91C9
S1130C907F916F915F914F913F912F910F900BBE78
S1130CA00F900FBE0F901F9018951F920F920FB6C2
S1130CB00F9211240BB60F922F933F934F935F9390
S1130CC06F937F938F939F93AF93BF93EF93FF9310
S1130CD0E0912820F0912920309709F01995FF918F
S1130CE0EF91BF91AF919F918F917F916F915F91A0
S1130CF04F913F912F910F900BBE0F900FBE0F900D
S1130D001F9018951F920F920FB60F9211240BB6D5
S1130D100F922F933F934F935F936F937F938F9390
S1130D209F93AF93BF93EF93FF93E0912620F091AD
S1130D302720309709F01995FF91EF91BF91AF915A
S1130D409F918F917F916F915F914F913F912F91DF
S1130D500F900BBE0F900FBE0F901F9018951F920F
S1130D600F920FB60F9211240BB60F922F933F934D
S1130D704F935F936F937F938F939F93AF93BF939F
S1130D80EF93FF93E0912420F0912520309709F010
S1130D901995FF91EF91BF91AF919F918F917F91A1
S1130DA06F915F914F913F912F910F900BBE0F90D8
S1130DB00FBE0F901F9018951F920F920FB60F92AF
S1130DC011240BB60F922F933F934F935F936F931E
S1130DD07F938F939F93AF93BF93EF93FF93E09190
S1130DE02220F0912320309709F01995FF91EF917B
S1130DF0BF91AF919F918F917F916F915F914F912F
S1130E003F912F910F900BBE0F900FBE0F901F902C
S1130E1018951F920F920FB60F9211240BB60F92D2
S1130E202F933F934F935F936F937F938F939F93EE
S1130E30AF93BF93EF93FF93E0912020F091212093
S1130E40309709F01995FF91EF91BF91AF919F9160
S1130E508F917F916F915F914F913F912F910F905F
S1130E600BBE0F900FBE0F901F9018951F920F92FC
S1130E700FB60F9211240BB60F922F933F934F93FB
S1130E805F936F937F938F939F93AF93BF93EF93EE
S1130E90FF93E0911E20F0911F20309709F01995DF
S1130EA0FF91EF91BF91AF919F918F917F916F913E
S1130EB05F914F913F912F910F900BBE0F900FBEFA
S1130EC00F901F9018951F920F920FB60F92112436
S1130ED00BB60F922F933F934F935F936F937F9330
S1130EE08F939F93AF93BF93EF93FF93E0911C2055
S1130EF0F0911D20309709F01995FF91EF91BF9162
S1130F00AF919F918F917F916F915F914F913F919D
S1130F102F910F900BBE0F900FBE0F901F9018953E
S1130F201F920F920FB60F9211240BB60F922F93AC
S1130F303F934F935F936F937F938F939F93AF935D
S1130F40BF93EF93FF93E0911A20F0911B20309709
S1130F5009F01995FF91EF91BF91AF919F918F91F6
S1130F607F916F915F914F913F912F910F900BBEA5
S1130F700F900FBE0F901F9018951F920F920FB6EF
S1130F800F9211240BB60F922F933F934F935F93BD
S1130F906F937F938F939F93AF93BF93EF93FF933D
S1130FA0E0911820F0911920309709F01995FF91DC
S1130FB0EF91BF91AF919F918F917F916F915F91CD
S1130FC04F913F912F910F900BBE0F900FBE0F903A
S1130FD01F9018951F920F920FB60F9211240BB603
S1130FE00F922F933F934F935F936F937F938F93BE
S1130FF09F93AF93BF93EF93FF93E0911620F091EB
S11310001720309709F01995FF91EF91BF91AF9197
S11310109F918F917F916F915F914F913F912F910C
S11310200F900BBE0F900FBE0F901F9018951F923C
S11310300F920FB60F9211240BB60F922F933F937A
S11310404F935F936F937F938F939F93AF93BF93CC
S1131050EF93FF93E0911420F0911520309709F05D
S11310601995FF91EF91BF91AF919F918F917F91CE
S11310706F915F914F913F912F910F900BBE0F9005
S11310800FBE0F901F9018951F920F920FB60F92DC
S113109011240BB60F922F933F934F935F936F934B
S11310A07F938F939F93AF93BF93EF93FF93E091BD
S11310B01220F0911320309709F01995FF91EF91C8
S11310C0BF91AF919F918F917F916F915F914F915C
S11310D03F912F910F900BBE0F900FBE0F901F905A
S11310E018951F920F920FB60F9211240BB60F9200
S11310F02F933F934F935F936F937F938F939F931C
S1131100AF93BF93EF93FF93E0911020F0911120E0
S1131110309709F01995FF91EF91BF91AF919F918D
S11311208F917F916F915F914F913F912F910F908C
S11311300BBE0F900FBE0F901F9018951F920F9229
S11311400FB60F9211240BB60F922F933F934F9328
S11311505F936F937F938F939F93AF93BF93EF931B
S1131160FF93E0910E20F0910F20309709F019952C
S1131170FF91EF91BF91AF919F918F917F916F916B
S11311805F914F913F912F910F900BBE0F900FBE27
S11311900F901F9018951F920F920FB60F92112463
S11311A00BB60F922F933F934F935F936F937F935D
S11311B08F939F93AF93BF93EF93FF93E0910C2092
S11311C0F0910D20309709F01995FF91EF91BF919F
S11311D0AF919F918F917F916F915F914F913F91CB
S11311E02F910F900BBE0F900FBE0F901F9018956C
S11311F01F920F920FB60F9211240BB60F922F93DA
S11312003F934F935F936F937F938F939F93AF938A
S1131210BF93EF93FF93E0910A20F0910B20309756
S113122009F01995FF91EF91BF91AF919F918F9123
S11312307F916F915F914F913F912F910F900BBED2
S11312400F900FBE0F901F9018951F920F920FB61C
S11312500F9211240BB60F922F933F934F935F93EA
S11312606F937F938F939F93AF93BF93EF93FF936A
S1131270E0910820F0910920309709F01995FF9129
S1131280EF91BF91AF919F918F917F916F915F91FA
S11312904F913F912F910F900BBE0F900FBE0F9067
S11312A01F9018951F920F920FB60F9211240BB630
S11312B00F922F933F934F935F936F937F938F93EB
S11312C09F93AF93BF93EF93FF93E0910620F09128
S11312D00720309709F01995FF91EF91BF91AF91D5
S11312E09F918F917F916F915F914F913F912F913A
S11312F00F900BBE0F900FBE0F901F9018951F926A
S11313000F920FB60F9211240BB60F922F933F93A7
S11313104F935F936F937F938F939F93AF93BF93F9
S1131320EF93FF93E0910420F0910520309709F0AA
S11313301995FF91EF91BF91AF919F918F917F91FB
S11313406F915F914F913F912F910F900BBE0F9032
S11313500FBE0F901F9018951F920F920FB60F9209
S113136011240BB60F922F933F934F935F936F9378
S11313707F938F939F93AF93BF93EF93FF93E091EA
S11313800220F0910320309709F01995FF91EF9115
S1131390BF91AF919F918F917F916F915F914F9189
S11313A03F912F910F900BBE0F900FBE0F901F9087
S11313B018951F93CF93DF931F921F92CDB7DEB77B
S11313C02FB72A83F8941A81282F392F211588E002
S11313D0380749F461E083E00E94300164E083E06F
S11313E00E9430014FC0203488E0380749F462E09D
S11313F083E00E94300164E083E00E94300142C037
S1131400211589E0380749F461E084E00E94300145
S113141064E084E00E94300135C0203489E038075C
S113142049F462E084E00E94300164E084E00E94B8
S1131430300128C021158AE0380749F461E085E0CD
S11314400E94300164E085E00E9430011BC020341A
S11314508AE0380749F462E085E00E94300164E0E4
S113146085E00E9430010EC021153B4049F461E043
S113147086E00E94300164E086E00E94300102C0F0
S11314801FBF10C0809173208F3F09F4FFCF8FB727
S11314908983F8949981E2E7F0E281818F5F818307
S11314A09FBF1FBF0F900F90DF91CF911F910895A1
S11314B0811528E0920729F4609344207093452015
S11314C00895803428E0920729F4609338207093BB
S11314D039200895811529E0920729F4609330207A
S11314E0709331200895803429E0920729F46093A1
S11314F0242070932520089581152AE0920729F469
S113150060931C2070931D20089580342AE0920774
S113151029F46093102070931120089581159B4045
S113152021F460930820709309200895CF93DF93EA
S11315301F92CDB7DEB781E0809347066091240205
S113154070912502EEE6F0E22AE430E2B291A29133
S11315509291829184839583A683B783E217F307DC
S1131560A9F780E090E068D060934A2070934B2004
S113157080934C2090934D2081E0809347068FB751
S11315808983F8949981E0E0F2E08081846080832B
S11315909FBF0F90DF91CF910895CF93DF931F9258
S11315A0CDB7DEB787E08093A2000E946D010E9450
S11315B02001E2E7F0E21082118212821382148287
S11315C011E0158380E092E00E94C9018FB78983FE
S11315D0F8949981E0E0F2E08081846080839FBF89
S11315E07894E0E4F6E0118382E08183809322061C
S11315F080E28093650680E098E0DBDE66E97AE0CD
S113160080E098E055DFE0E0F8E08181887F818325
S113161088E391E086A397A380A791A78181806145
S1131620818387818C7F87838781816087838081A1
S1131630807F85608083FFCFE89409C097FB3EF4E8
S113164090958095709561957F4F8F4F9F4F99230B
S1131650A9F0F92F96E9BB279395F6958795779589
S11316606795B795F111F8CFFAF4BB0F11F460FF49
S11316701BC06F5F7F4F8F4F9F4F16C0882311F0A1
S113168096E911C0772321F09EE8872F762F05C0B5
S1131690662371F096E8862F70E060E02AF09A9550
S11316A0660F771F881FDAF7880F9695879597F945
S10916B00895F894FFCF39
S9030000FC
