S014000053414D4C32315F4150505F322E73726563AF
S113000018280020790C0000750C0000750C000005
S113001000000000000000000000000000000000DC
S1130020000000000000000000000000750C00004B
S11300300000000000000000750C0000750C0000BA
S1130040750C0000750C0000750C0000750C0000A8
S1130050750C0000750C0000750C0000750C000098
S1130060750C0000750C0000750C0000750C000088
S1130070750C0000750C0000750C0000750C000078
S1130080750C0000750C0000750C0000750C000068
S1130090750C0000750C0000750C0000750C000058
S11300A0750C0000750C0000750C0000750C000048
S11300B00000000010B5064C2378002B07D1054B37
S11300C0002B02D0044800E000BF0123237010BDC0
S11300D004000020000000004C110000084B10B583
S11300E0002B03D00749084800E000BF0748036815
S11300F0002B00D110BD064B002BFBD09847F9E72D
S113010000000000080000204C1100004C11000009
S11301100000000010B500230022037043708370B8
S1130120C370002103830362C36101240471C024EA
S11301306401C480017242728272C27202732A2400
S1130140025542738273C27303610275063C025501
S1130150C3840385417510BDF0B5CE4600B59AB091
S1130160050016000160B54A136A082003431362B0
S11301700B780338DB0703D51AB004BC9146F0BDF5
S11301802A68138C9BB2002BFBD10B781C209B0795
S1130190F2D473782B71002B04D1A94AD3690421BA
S11301A00B43D3612F6833786A46137069461E2067
S11301B0A44B98471E20A44B984734796022A34946
S11301C002A8A34B9847132C0BD9F48860229F49AB
S11301D002A89F4B9847132C11D900249C4B994695
S11301E01EE0A40002ABE05801A900234B70CB70C1
S11301F08B7001330B70C0B2964B9847E5E7A400AF
S113020002ABE05801A900234B70CB708B70013313
S11302100B70C0B28F4B9847DFE70134142C18D011
S11302200123A34032691A42F7D06022874902A809
S1130230C847132CF1D8A30002AA985801A9002397
S11302404B70CB708B7001330B70C0B2814B9847ED
S1130250E3E7737B9B01B27BD2011343DBB23B70B8
S1130260337DDB0172781343DBB2BB70F378342B3C
S113027000D933E19B00784AD3589F4604221024C6
S113028002211AE0717A327A102416E00622102430
S1130290012112E00822102400210EE00022302463
S11302A000210AE000222024002106E0002200248C
S11302B0002102E0022210240121090170230B40D5
S11302C013433B732A68138C9BB2002BFBD1737DC1
S11302D017203F2B00D94FE7F27BD2011343DBB247
S11302E07B732A68138C9BB2002BFBD1B3787B7091
S11302F02423F35CDB00327B92001A43F37A13432A
S1130300B27A5200134323437B812A68138C9BB235
S1130310002BFBD1338B002B1FD0102C00D1BFE05E
S11303206BD9202C00D19DE0302C16D1F27A002A12
S11303300AD0F26980321720FF2A00D91CE7326AFA
S11303408032FF2A00D917E71720F269FF2A00DD5F
S113035012E7326AFF2A00DD0EE77A8913437B81B4
S11303602A68138C9BB2002BFBD1B38BFB812A68C8
S1130370138C9BB2002BFBD1338C3B822A68138CE9
S11303809BB2002BFBD13379F28813433B812A685B
S1130390138C9BB2002BFBD12A33F35CFB70072335
S11303A03B711D33F35C002B1BD0F38C2B4A1720BD
S11303B0934200D9E0E67B822A68138C9BB2002B1F
S11303C0FBD1328D80231B01D31824499BB2172003
S11303D08B4200D9D0E6BA822A68138C9BB2002BD8
S11303E0FBD11F4B1B681A02E021C9000A409B067F
S11303F05B0F1343BB850020BEE6002CADD1F27A1F
S1130400002A0FD0F269802109018C466244134905
S113041017208A4200D9AFE6326A62440F498A4201
S113042000D9A9E60D4A1720F169914200DDA3E63F
S1130430316A914200DD9FE68FE7C0460004004028
S113044000140040190B0000A90A000084100000E9
S11304509D0F0000150C0000B00F0000FF0F0000FE
S113046020608000F27A002A0FD0F269802189008E
S11304708C4662441A4917208A4200D97CE6326AC3
S1130480624417498A4200D976E6154A1720F16971
S1130490914200DD70E6316A914200DD6CE65CE772
S11304A0F27A002A0FD0F269802109028C46624454
S11304B00C4917208A4200D95EE6326A624409492F
S11304C08A4200D958E6074A1720F169914200DDB3
S11304D052E6316A914200DD4EE63EE717204BE6D4
S11304E0FF030000FFFF00000022FF21002809D0C5
S11304F00B00C046013BDBB2002BFAD1013292B2B1
S11305009042F5D1704700000C4B1B68002B06D1BC
S1130510EFF31083002B07D00022094B1A70074A0F
S1130520136801331360704772B6BFF35F8F002204
S1130530044B1A700132024B1A70F0E720000020BD
S11305402400002000000020084B1A68013A1A60B9
S11305501B68002B09D1064B1B78002B05D0012208
S1130560044B1A70BFF35F8F62B6704720000020FF
S11305702400002000000020F0B583B001AC012568
S113058065700027A770257021002A20064EB04709
S11305908022D200054B9A612770657021000220E9
S11305A0B04703B0F0BDC046B1050000802800404C
S11305B000B583B001AB80221A700A785A704A7869
S11305C09A708A78DA701900014B984703B000BD1D
S11305D0150C000010B5082803D880001C4B1B58CC
S11305E09F46002032E01B4B18692FE01A4B187D00
S11305F00007800F431C1948584327E0154B5869DE
S113060024E0144B1B6800209B071FD5124980224D
S11306105200CB681342FCD00E4B1B685B0701D41D
S11306200F4813E000200F4B98470A4B9B681B04AC
S11306301B0C58430AE02823074AD35C00209B077D
S113064004D5044BD86801E08020000210BDC046E8
S1130650E410000028000020000C004000093D00C8
S1130660006CDC023D0B0000F0B5D6464F46464612
S1130670C0B5204B9A465B69457801784C424C41A1
S1130680A14681788C46C1788846467A077A847A6E
S11306904068194948610121484680000422934377
S11306A0034340460840C00004329343034360467A
S11306B0084000010832934303430F40BF01402028
S11306C083433B430E40F601403083433343793840
S11306D005402D02094803402B43214009030848E3
S11306E003400B43524653611CBC90469946A246B4
S11306F0F0BDC0460010004028000020FFF8FFFFB6
S1130700FFEFFFFF082803D880002D4B1B589F469E
S1130710172054E02B4A137D02210B43137500204C
S11307204DE0294A936902210B439361002046E07E
S1130730244A138A02210B43138200203FE0224AF9
S1130740536902210B435361002038E01F490B68B1
S1130750022213430B601B4B1A831900FE32CB6831
S11307601342FCD0194B9A68164B1A6202221A8360
S11307701900FE32CB681342FCD0144B5A68114B5B
S1130780DA6100221A8319000132FF32CB68134266
S1130790FCD00E4B1B689BB20A4A138300200EE068
S11307A0084928228B5C022003438B54080038211B
S11307B0263A435C1342FCD1002000E0002070473D
S11307C008110000000C0040001000402800002028
S11307D0F0B5C64600B586B080225200464B9A60FA
S11307E0FD3A464B9A60464A53681E218B43536038
S11307F08023DB059B78022B0FD08023DB059B78BD
S11308005BB2002B09DB8023DB0501229A710132E4
S11308109A701A009379002BFCD003A8002303706C
S113082080221202426083700122C27003728372BA
S1130830033242704372334B98470520324B98473A
S113084032490122CB681A42FCD0304A53698021D4
S11308500B435361284B197D802252420A431A7577
S11308601A7D40218A431A75294B98470125019521
S113087000246B465C701C725C7205236A4613701C
S113088069460120234B984698470120224FB847D8
S1130890224EB5717571357101956B465C700623F6
S11308A06A4613701472547269460020C0470020CF
S11308B0B84700201A4B98473179C9B2194B984769
S11308C0194B984214D88023DB059B78002B0FD05A
S11308D08023DB059B785BB2002B09DB8023DB05DF
S11308E001229A7100229A701A009379002BFCD08D
S11308F006B004BC9046F0BD000C0040001400405B
S11309000040004169060000050700000010004097
S11309102D09000051090000FD09000000040040F9
S11309203D0A00003D0E0000001BB700064A536953
S113093040210B4353610122044B1A7019000B78B8
S11309401342FCD17047C046000400400018004028
S113095070B504000D784B78002B02D08023DB00A7
S11309601D434B7A002B02D080231B011D43486892
S113097001280FD9431E184231D102282DD9022350
S1130980002201325B009842FBD880235B011D43A7
S1130990120415430B7A002B02D080239B011D43C4
S11309A00426A6401149124A4B6813401E42FBD14B
S11309B0104B9847A4000D4B9C466444226A802344
S11309C05B001A402A4322626146094A4B6813407D
S11309D01E42FBD1084B984770BD0022D5E70004A6
S11309E080239B0018430543D4E7C0460018004009
S11309F0FC070000090500004905000010B50400CB
S1130A000422824009480A4943680B401A42FBD138
S1130A10084B9847A400054B9C466444226A8023F3
S1130A205B0013432362044B984710BD0018004039
S1130A30FC0700000905000049050000F8B50400A2
S1130A40042282401248134943680B401A42FBD1E6
S1130A50114B98470E4F0834A400E0590007000FCB
S1130A600E4B98470600E559ED04ED0FE459240CAC
S1130A700B4B9847002D07D1012C07D921003000DA
S1130A80084B9847060001E00134E6403000F8BD09
S1130A9000180040FC07000009050000D50500000F
S1130AA0490500003D0E000010B50400094B9847AD
S1130AB0A000094B9C4660448022835840210B438C
S1130AC083504031403A43581A42FCD0034B984774
S1130AD010BDC0460905000000180040490500008B
S1130AE010B50400094B9847A000094B9C4660448C
S1130AF08022835840218B4383504031403A4358ED
S1130B001A42FCD1034B984710BDC04609050000AA
S1130B10001800404905000070B504000D00054BA5
S1130B2098472A780F2313402034A400024AA35084
S1130B3070BDC046E10A00000018004010B5040072
S1130B40064B98472034A400054BE4582407240F8F
S1130B50044B98472000044B984710BD090500003A
S1130B6000180040490500003D0A000030B5D37864
S1130B70002B35D11378802B29D01B0680246402E6
S1130B80234354780225AC4306D19478002C20D119
S1130B908024A402234341605478013C012C1CD9D5
S1130BA00D042D0CA024E4052C431C4384620D0C7D
S1130BB0D02424062C431C438462D478002C22D1F4
S1130BC05B031CD59378012B1ED0416117E00023F1
S1130BD0D7E7C024E4022343DDE70D4C2340DFE7DD
S1130BE041600C04240CA023DB05234383620C0C1A
S1130BF0D0231B0623438362D378002B03D153787D
S1130C00013B012B02D930BD8161F8E78160FAE72D
S1130C10FFFFFBFF10B50A00C1090023002904D11E
S1130C204309DB0105498C4663441F24204001210C
S1130C3081401800024B984710BDC0460028004070
S1130C406D0B00007047000010B5054B9847054B2D
S1130C509847054B9847054B9847054B984710BD57
S1130C60D107000079050000450C0000450C000088
S1130C70450C0000FEE7000010B51A4A1A4B9A42D0
S1130C8011D01A00194B9A420DD2194A03339B1AF8
S1130C909B0801339B000022134812498C5884504E
S1130CA004329A42FAD1134A134B9A420AD2D343DA
S1130CB011495B1803218B4304339B18002102C2A2
S1130CC09342FCD10D4AFF210D4B8B4393600D4A97
S1130CD053687F390B4353600B4B98470B4B984732
S1130CE0FEE7C0464C110000000000200400002074
S1130CF004000020040000201808002000ED00E09B
S1130D000000000000400041550F0000110E0000DB
S1130D1030B58DB001AC2000124B984701232370ED
S1130D20013363700133A3700F4D22000F49280073
S1130D300F4B98472A68138C9BB2002BFBD10733C7
S1130D4013719371137802210B431370064B1A68C5
S1130D50138C9BB2002BFBD13220064B98470DB06D
S1130D6030BDC0461501000010080020000C0043EF
S1130D7059010000E9040000F8B5224B1D682B8CD2
S1130D809BB2002BFBD12B7E022213432B762B8CA0
S1130D909BB2002BFBD11C4AFA23DB009C469444F3
S1130DA0002701200424022605E008420ED1178002
S1130DB0023294451BD0AB79DBB2010019401C42CE
S1130DC000D031431E42F0D02143EEE7AF8CBFB2D6
S1130DD0A871AB79DBB2010019401C4200D0314349
S1130DE01E4200D021430C42E1D0AE71DFE7FA236A
S1130DF09B00013B002BFCD1FA204000034B984799
S1130E00F8BDC0461008002040000020E90400009E
S1130E1010B5064B9847064B98470122054B1A70AC
S1130E20BFF35F8F62B6044CA047FDE7490C000096
S1130E30110D000000000020790D0000002243087D
S1130E408B4274D303098B425FD3030A8B4244D38E
S1130E50030B8B4228D3030C8B420DD3FF220902D0
S1130E6012BA030C8B4202D31212090265D0030B8F
S1130E708B4219D300E0090AC30B8B4201D3CB0385
S1130E80C01A5241830B8B4201D38B03C01A5241C7
S1130E90430B8B4201D34B03C01A5241030B8B42C9
S1130EA001D30B03C01A5241C30A8B4201D3CB02B4
S1130EB0C01A5241830A8B4201D38B02C01A524199
S1130EC0430A8B4201D34B02C01A5241030A8B429C
S1130ED001D30B02C01A5241CDD2C3098B4201D3B4
S1130EE0CB01C01A524183098B4201D38B01C01A32
S1130EF0524143098B4201D34B01C01A52410309A9
S1130F008B4201D30B01C01A5241C3088B4201D357
S1130F10CB00C01A524183088B4201D38B00C01A04
S1130F20524143088B4201D34B00C01A5241411A2B
S1130F3000D20146524110467047FFE701B5002038
S1130F4000F006F802BDC0460029F7D076E77047E6
S1130F507047C04670B500260C4D0D4C641BA410A0
S1130F60A64209D1002600F0E1F80A4D0A4C641BA0
S1130F70A410A64205D170BDB300EB5898470136C2
S1130F80EEE7B300EB5898470136F2E7381100005A
S1130F9038110000381100003C110000002310B586
S1130FA09A4200D110BDCC5CC4540133F8E7000070
S1130FB0AC020000DC040000DC040000DC040000DF
S1130FC0DC040000DC040000DC040000DC0400009D
S1130FD0DC040000DC040000DC040000DC0400008D
S1130FE0DC040000DC040000DC040000DC0400007D
S1130FF094020000DC040000DC040000DC040000B7
S1131000DC040000DC040000DC040000DC0400005C
S1131010DC040000DC040000DC040000DC0400004C
S1131020DC040000DC040000DC040000DC0400003C
S1131030A4020000DC040000DC040000DC04000066
S1131040DC040000DC040000DC040000DC0400001C
S1131050DC040000DC040000DC040000DC0400000C
S1131060DC040000DC040000DC040000DC040000FC
S11310709C020000B40200007C0200008C0200000C
S113108084020000020000000300000028000000A9
S11310902900000004000000050000000600000014
S11310A007000000200000002100000022000000D2
S11310B0230000002400000025000000260000009A
S11310C02700000008000000090000000A000000DA
S11310D00B000000FFFF0000FFFF0000FFFF000007
S11310E0FFFF0000E6050000E2050000E205000045
S11310F04806000048060000FC050000EC0500005E
S11311000206000036060000300700001007000049
S113111010070000BC070000220700003E07000083
S1131120140700004C070000A0070000F8B5C046F3
S1131130F8BC08BC9E467047DD000000F8B5C04608
S10F1140F8BC08BC9E467047B5000000D7
S107114C010000009A
S9030C7977
