S02400004652454552544F535F4F4C4544315F5850524F5F4558414D504C45312E737265639E
S1130000385C00207D0600007906000079060000B7
S113001000000000000000000000000000000000DC
S1130020000000000000000000000000F1070000D4
S113003000000000000000005508000099080000BE
S113004079060000790600007906000079060000B0
S113005079060000790600007906000079060000A0
S1130060E1010000F10100000102000011020000A2
S11300702102000031020000790600007906000028
S11300807906000079060000790600007906000070
S11300907906000079060000790600007906000060
S11300A07906000079060000790600007906000050
S11300B00000000010B5064C2378002B07D1054B37
S11300C0002B02D0044800E000BF0123237010BDC0
S11300D00C000020000000006C1F0000084B10B54D
S11300E0002B03D00749084800E000BF0748036815
S11300F0002B00D110BD064B002BFBD09847F9E72D
S113010000000000100000206C1F00006C1F0000A5
S1130110000000000C4B1B68002B06D1EFF310838A
S1130120002B07D00022094B1A70074A13680133C9
S11301301360704772B6BFF35F8F0022044B1A70CE
S11301400132024B1A70F0E7280000202C00002036
S113015000000020084B1A68013A1A601B68002B43
S113016009D1064B1B78002B05D00122044B1A70D1
S1130170BFF35F8F62B67047280000202C00002078
S113018000000020F0B583B001AC012565700027A4
S1130190A770257021002A20064EB0478022D20085
S11301A0054B9A612770657021000220B04703B0A7
S11301B0F0BDC046BD0100008028004000B583B0FA
S11301C001AB80221A700A785A704A789A708A7839
S11301D0DA701900014B984703B000BD19060000FE
S11301E010B5024B1B680020984710BD300000205A
S11301F010B5024B5B680120984710BD3000002009
S113020010B5024B9B680220984710BD30000020B7
S113021010B5024BDB680320984710BD3000002066
S113022010B5024B1B690420984710BD3000002014
S113023010B5024B5B690520984710BD30000020C3
S113024010B5082803D880001C4B1B589F4600207B
S113025032E01B4B18692FE01A4B187D0007800F02
S1130260431C1948584327E0154B586924E0144BA4
S11302701B6800209B071FD5124980225200CB68BF
S11302801342FCD00E4B1B685B0701D40F4813E0EC
S113029000200F4B98470A4B9B681B041B0C5843C8
S11302A00AE02823074AD35C00209B0704D5044BAB
S11302B0D86801E08020000210BDC046DC1E0000AA
S11302C048000020000C004000093D00006CDC02E6
S11302D04105000010B584B0802252002F4B9A6073
S11302E0FD3A2F4B9A602F4A53681E218B4353606B
S11302F08023DB059B78022B0FD08023DB059B78C2
S11303005BB2002B09DB8023DB0501229A710132E9
S11303109A701A009379002BFCD0204B197D80220F
S113032052420A431A751A7D40218A431A751E4B9C
S113033098471E4C0123A3716371237101A94B607B
S113034000234B7006220A700B724B720020184B6C
S113035098470020174B98470020174B984721795E
S1130360C9B2164B9847164B984214D88023DB0524
S11303709B78002B0FD08023DB059B785BB2002B8E
S113038009DB8023DB0501229A7100229A701A008E
S11303909379002BFCD004B010BDC046000C004083
S11303A00014004000400041C50300000004004068
S11303B0E903000095040000D5040000691D000055
S11303C0001BB700064A536940210B4353610122C5
S11303D0044B1A7019000B781342FCD17047C046C5
S11303E0000400400018004070B504000D784B78FC
S11303F0002B02D08023DB001D434B7A002B02D05C
S113040080231B011D43486801280FD9431E18424D
S113041031D102282DD90223002201325B009842F7
S1130420FBD880235B011D43120415430B7A002B78
S113043002D080239B011D430426A6401149124A81
S11304404B6813401E42FBD1104B9847A4000D4B40
S11304509C466444226A80235B001A402A43226239
S11304606146094A4B6813401E42FBD1084B98472A
S113047070BD0022D5E7000480239B001843054388
S1130480D4E7C04600180040FC0700001501000036
S11304905501000010B504000422824009480A49AD
S11304A043680B401A42FBD1084B9847A400054B04
S11304B09C466444226A80235B0013432362044BFA
S11304C0984710BD00180040FC070000150100000B
S11304D055010000F8B50400042282401248134973
S11304E043680B401A42FBD1114B98470E4F083416
S11304F0A400E0590007000F0E4B98470600E55989
S1130500ED04ED0FE459240C0B4B9847002D07D153
S1130510012C07D921003000084B9847060001E060
S11305200134E6403000F8BD00180040FC0700002C
S1130530150100004102000055010000691D000082
S113054010B50400064B98472034A400054BE4582A
S11305502407240F044B98472000044B984710BDF0
S1130560150100000018004055010000D5040000EA
S113057030B5D378002B35D11378802B29D01B06C6
S113058080246402234354780225AC4306D1947832
S1130590002C20D18024A402234341605478013CE0
S11305A0012C1CD90D042D0CA024E4052C431C4360
S11305B084620D0CD02424062C431C438462D4781A
S11305C0002C22D15B031CD59378012B1ED04161F2
S11305D017E00023D7E7C024E4022343DDE70D4CF2
S11305E02340DFE741600C04240CA023DB052343F4
S11305F083620C0CD0231B0623438362D378002B25
S113060003D15378013B012B02D930BD8161F8E756
S11306108160FAE7FFFFFBFF10B50A00C109002360
S1130620002904D14309DB0105498C4663441F2496
S11306302040012181401800024B984710BDC0465C
S113064000280040710500007047000010B5054BFC
S11306509847054B9847054B9847054B9847054BDA
S1130660984710BDD502000085010000490600002E
S11306704906000049060000FEE7000010B51A4ACA
S11306801A4B9A4211D01A00194B9A420DD2194AA8
S113069003339B1A9B0801339B0000221348124921
S11306A08C58845004329A42FAD1134A134B9A421A
S11306B00AD2D34311495B1803218B4304339B189B
S11306C0002102C29342FCD10D4AFF210D4B8B4302
S11306D093600D4A53687F390B4353600B4B984723
S11306E00B4B9847FEE7C0466C1F0000000000203B
S11306F00C000020040000200C000020343C0020EA
S113070000ED00E00000000000400041811E0000F8
S1130710051D000003000833436001225242826039
S1130720C3600361002303607047002303617047C3
S113073043684B609A688A609A685160996008615E
S1130740036801330360704730B50C680200083257
S1130750631C02D1026904E01A0053681D68AC42AC
S1130760FAD253684B6099608A60516008610368EB
S11307700133036030BD0369426881689160826817
S1130780416851605A68904205D0002202611A689B
S1130790501E1860704782685A60F6E7034B1B6866
S11307A0013301D072B6FEE772B6FEE70400002002
S11307B0064A13681868203080F30988022080F301
S11307C014883FBCAE4662B600BDC046003B002064
S11307D010B5031F802464041C60043B1960043BAF
S11307E002491960143B1A60403810BD9D0700008F
S11307F07047000080225205034B1A60BFF34F8FED
S1130800BFF36F8F7047C04604ED00E072B6044A30
S1130810136801331360BFF34F8FBFF36F8F7047BB
S113082004000020064B1B68002B01D172B6FEE7C2
S1130830013B034A1360002B00D162B67047C046E7
S113084004000020EFF3108072B67047002080F39C
S113085010887047EFF309800E4B1A682038106037
S1130860F0C044464D4656465F46F0C008B572B6E1
S113087000F0BEFE62B60CBC116808681030F0C807
S1130880A046A946B246BB4680F309882038F0C882
S11308901847C046003B002010B5074B984704009A
S11308A0064B9847002803D080225205044B1A6057
S11308B02000044B984710BD450800003D1300007C
S11308C004ED00E04F08000010B50022074B1A6049
S11308D00020074B9847C821064B98470138064B20
S11308E018600722054B1A6010BDC04618E000E0EE
S11308F0D5040000691D000014E000E010E000E0F1
S113090010B50A4B1968FF2212040A431A601968C9
S1130910FF2212060A431A60054B98470022054B32
S11309201A60054B9847054B9847C04620ED00E0F8
S1130930C908000004000020B10700009D07000062
S113094070B50400430702D007239C430834114BBD
S11309509847114B1B68002B10D0104B1B68E418F0
S11309600F4A944211D8A34211D20B4A1568ED18CC
S11309700A4B1C600B4B9847280070BD07220A4B9A
S113098008339343044A1360E7E70025F2E70025A0
S1130990F0E7C0460D13000060000020FC3A002080
S11309A08F3A00006114000064000020002801D088
S11309B072B6FEE77047000070B504001500026CC3
S11309C0002A0BD10368002B04D14068174B9847C9
S11309D000236360A36B0133A36370BD002D0DD1AD
S11309E08068134B9847A368226C94466344A360C1
S11309F062689342EED32368A360EBE7C0680C4BB4
S1130A009847236C5B42E268D218E26021688A420C
S1130A1003D2626894466344E360022DDAD1A36B87
S1130A20002BD7D0A36B013BA363D3E709190000C4
S1130A30C91E000010B582B001900A00C46C002CDD
S1130A4005D0A16BE36B994203D372B6FEE772B68D
S1130A50FEE7A16B00208B4201D802B010BD01A9B2
S1130A602000064B98470020636A002BF5D0200035
S1130A702430034B9847431E9841EEE7B909000020
S1130A803917000070B50C00016800290BD0026C06
S1130A90C3689B18C3604568AB4200D3C160C1689A
S1130AA02000014B984770BDC91E0000F8B5040032
S1130AB0254B9847A36C002B1EDD244D244E0DE0DE
S1130AC0636A002B18D020002430B047002810D1CE
S1130AD0A36C013BA364A36C002B0DDDE36C002B22
S1130AE0EED000212000A8470128F1D1194B9847E6
S1130AF0EEE7184B9847EBE701235B42A364164BE0
S1130B009847114B9847636C002B16DD2369002B23
S1130B1013D0250010350E4F0E4E08E0636C013BD8
S1130B206364636C002B08DD2369002B05D0280067
S1130B30B8470028F2D0B047F0E701235B42636472
S1130B40054B9847F8BDC0460D080000350A000063
S1130B5039170000511800002508000070B5040082
S1130B600D00002820D0174B98472268216CE36BB6
S1130B704B43D01860600020A063A2605B1AD318B6
S1130B80E36001235B426364A364002D11D12369F4
S1130B90002B05D0200010300B4B9847012805D0BE
S1130BA00A4B9847012070BD72B6FEE7084B984780
S1130BB0F6E720001030074DA84720002430A8474E
S1130BC0EEE7C0460D0800003917000025080000B4
S1130BD0F50700001507000070B505000E00002899
S1130BE019D050200D4B9847041E14D03000684390
S1130BF001300A4B98472060002809D0E563266439
S1130C0001212000064B98470023E364200070BDB7
S1130C102000044B984772B6FEE7C0464109000025
S1130C205D0B0000AD090000F0B5CE46474680B527
S1130C3085B004000F0001921D0000280CD000298B
S1130C400CD0022D0FD0484B9847002810D1019B9F
S1130C50002B11D072B6FEE772B6FEE7036C002BD0
S1130C60EFD072B6FEE7E36B012BECD072B6FEE771
S1130C7000263E4B984647E00026FAE72A00390052
S1130C8020003B4B9847E36C002B0FD02900200039
S1130C90384B9847012801D1374B9847374B984731
S1130CA0012005B00CBC90469946F0BD636A002B48
S1130CB0F4D020002430324B98470128EED12E4B3B
S1130CC09847EBE72D4B98470020EAE72B4B9847D2
S1130CD001A902A82B4B984700283ED1234B9847E3
S1130CE0A36B9946E66B254B9847B1452FD120005D
S1130CF010300199244B98472000244B9847244BEB
S1130D009847002820D00126C047A36BE26B93428A
S1130D10B4D3022DB2D0019B002BD3D0002E02D12C
S1130D2002A81C4B9847154B98471B4B98470F4BF1
S1130D309847636C013301D100236364A36C0133CE
S1130D40C4D10023A364C1E70B4B9847DBE7200021
S1130D500E4B98470E4B9847D5E720000B4B98470E
S1130D600B4B984700209CE7691800000D08000011
S1130D70B9090000350A0000F50700002508000045
S1130D8039170000E1170000A1160000AD0A0000A9
S1130D9061140000C11700000D130000F0B583B00A
S1130DA004000F0016001D00002811D0002911D0E6
S1130DB0022D14D0264B98470190A36BE26B9A4204
S1130DC02ED800250198234B9847280003B0F0BD86
S1130DD072B6FEE7036C002BEAD072B6FEE7E36B53
S1130DE0012B19D072B6FEE70125636A002BE9D006
S1130DF020002430184B98470028E3D0002E09D057
S1130E0001233360DEE7A36C0133A3640125D9E732
S1130E100125D7E70125D5E70D4B98470190A36B32
S1130E202A00390020000D4B9847A36C0133EAD106
S1130E30E36C002BD8D029002000094B98470125EA
S1130E400128BFD1002EE3D001233360BAE7C046A6
S1130E50450800004F08000039170000B9090000D8
S1130E60350A0000F0B5C64600B584B004000E0093
S1130E7001921F0000280AD000290AD04D4B984740
S1130E8000280BD1019B002B0CD072B6FEE772B682
S1130E90FEE7036C002BF1D072B6FEE70025464B4B
S1130EA0984642E00025FAE7E56831002000434B0C
S1130EB09847002F1AD1A36B013BA3632368002B2F
S1130EC002D13F4B984760602369002B07D0200074
S1130ED010303C4B9847012801D13B4B98473B4B82
S1130EE09847012004B004BC9046F0BDE560636AF5
S1130EF0002BF4D020002430324B98470028EED049
S1130F00314B9847EBE7314B98470020EAE72A4BEF
S1130F10984760682E4B98472C4B984733E0200045
S1130F202C4B98472C4B98470125C047A36B002BAB
S1130F30BAD1019B002BE6D0002D02D102A8274B89
S1130F409847224B9847264B98471B4B9847636C0E
S1130F50013301D100236364A36C013301D1002365
S1130F60A3641A4B984701A902A81E4B984700286E
S1130F7018D1114B9847A56B144B9847002DCED12F
S1130F802368002BC3D0200024300199164B9847C6
S1130F902000104B9847104B98470028C4D10A4BA7
S1130FA09847C1E720000B4B98470B4B984700200C
S1130FB098E7C046691800000D080000850A000083
S1130FC05D18000039170000F5070000250800002F
S1130FD089180000AD0A000061140000C117000068
S1130FE00D130000E1170000A116000070B5040005
S1130FF00D000E4B9847636C01330BD0A36C013387
S11310000BD00B4B9847A36B002B09D02000094B46
S1131010984770BD00236364F0E70023A364F0E7FE
S1131020200024302900044B9847EFE70D08000006
S113103025080000AD0A0000F9160000084B1B68E3
S11310401B68002B07D0064B1B68DB68DB685A68FB
S1131050044B1A60704701225242024B1A60F9E7AE
S1131060043B00200800002010B504000E4B1B6850
S113107058600E4B1B6898420DD30D4B18680A4BF1
S1131080196804310B4B98470B4B1B689C4209D2DF
S1131090094B1C6006E0094B1868034B19680431BE
S11310A0044B984710BDC046003B0020F43B002091
S11310B0043B00204907000008000020083B0020F2
S11310C0F0B5D64600B582B005000F0016000193B6
S11310D0089B9A46002803D0042B03D972B6FEE776
S11310E072B6FEE740205A4B9847041E0DD00A9B67
S11310F0002B00D094E0B000554B984720630028A3
S113110000D08FE02000534B98470120404277E005
S1131110013701338B4204D03878187038780028AE
S1131120F6D100223B23E2545346E362E363231DDA
S113113000931800484FB84720001830B84724617E
S1131140052352469B1AA3616462019A2900300068
S1131150424B98472060099B002B00D01C60404BF9
S11311609847404A1368013313603F4B1B68002BB8
S11311704AD13D4B1C601368012B1FD13B4E3000FC
S11311803B4DA84730001430A84730002830A8470A
S113119030003C30A84730005030A847354F380065
S11311A0A847354E3000A8473448A8473448A847D4
S11311B03448A847344B1F60344B1E60344A1368CC
S11311C001331360E36A334A1268934201D9314A06
S11311D013609800C0188000244B181800992E4BF7
S11311E098472E4B98472E4B1B680120002B07D0A5
S11311F01D4B1B68DB6A9A4502D92A4B984701208C
S113120002B004BC9246F0BD254B1B68002BD5D11F
S1131210154B1B68DB6A9A45D0D3134B1C60CDE792
S11312200A9B0363204BF3189B00226B9446634490
S1131230072293431E003A783423E2543B78002B70
S113124000D16EE701372300353321003C3163E7D9
S113125041090000AD0900002B070000D107000080
S11312600D080000703B0020003B00200C3B0020D8
S113127015070000883B00209C3B0020B43B002065
S1131280E03B0020CC3B0020043B0020083B002036
S11312907C3B0020843B002031070000250800002F
S11312A0C83B0020F5070000FFFFFF3F10B584B0E6
S11312B00023039302930193009364220C490D4885
S11312C00D4CA047012803D000280ED172B6FEE7CA
S11312D00A4B98470128F7D172B60122084B1A60CD
S11312E00022084B1A60084B984704B010BDC04652
S11312F0001F000061150000C11000000D1A00005D
S1131300C83B0020F43B002001090000024A136896
S1131310013313607047C046783B002010B5044B7E
S11313209847044B1C68044B9847200010BDC046E6
S11313300D080000F43B002025080000F0B583B040
S1131340394B1B68002B61D1384B1A6801321A6083
S11313501E68002E12D1364B1B681B68002B01D06F
S113136072B6FEE7324A1168324B18681060196091
S1131370314A136801331360304B9847304B1B6874
S113138000249E4233D30024294F3B681B68002B62
S113139029D0274B1B68DB68DD686B689E4232D31B
S11313A02B1D01931800274B9847AB6A002B03D0E1
S11313B028001830234B9847EB6A234A126893425B
S11313C001D9214A13609800C01880001F4B1818D7
S11313D001991F4B98471F4B1B68EA6ADB6A9A42C4
S11313E0D3D30124D1E701225242154B1A60194B81
S11313F01B68DA6A93009B189B00144A9B58012BC4
S113140009D9012407E00E4A1360F0E7124A136871
S1131410013313600024114B1B68002B00D00124FE
S1131420200003B0F0BDC046783B0020F43B002010
S1131430043B0020083B0020B03B00203D1000008E
S11314400800002077070000843B00200C3B0020AC
S113145031070000003B0020743B0020F83B0020D3
S1131460F8B5314B1B68002B01D172B6FEE72F4B48
S113147098472D4B1A68013A1A601B680024002B08
S113148003D12B4B1B68002B2AD12A4B98472000F1
S1131490F8BD9800C0188000274B18182900274B66
S11314A09847274B1B68FA6ADB6A9A4214D233685E
S11314B0002B18D0E368DF6838001830214B9847B8
S11314C03D1D28001F4B9847FB6A1F4A1268934230
S11314D0DFD91D4A1360DCE701221C4B1A60E6E7E2
S11314E01B4E3400E3E71B4B1B68002B13D0194B36
S11314F01B68002B0FD0184E144D164C05E02368C2
S1131500013B23602368002B05D0B0470028F6D0A8
S113151001232B60F3E70D4B1B680024012BB4D18E
S11315200E4B98470134B0E7783B00200D080000CB
S1131530703B0020250800000C3B00203107000010
S1131540003B002077070000843B0020F83B00208C
S1131550B43B0020743B00203D130000F50700005D
S1131560F8B5CE46474680B5164B9846164F174EEB
S113157026E0174B1B68012B20D82B68002BF8D0D2
S1131580C0473C68B047002CF7D0124B98470E4B2D
S1131590DB68DC68201D104B9847104A1368013B38
S11315A013600F4A1368013B13600E4B9847206B7E
S11315B00D4B994698472000C847DEE70B4B9847E8
S11315C0074DDAE70D130000E03B00206114000032
S11315D00C3B00200D08000077070000703B002042
S11315E0803B002025080000AD090000F50700003D
S11315F010B5264B1B68002B21D10022244B1A6006
S1131600244B1A6893009B189B00234A9B58002B79
S113161019D1204B1B68002B0FD01E4A1E4C100002
S11316201368013B136011688B005B189B001B5906
S1131630002B08D10368002BF2D172B6FEE7012219
S1131640134B1A6010BD134B1A6813489300991872
S1131650890041184C6864684C609B189B000833EF
S1131660C3189C4209D093009A1892000A4B9A1806
S11316705368DA68094B1A60E4E7606893009B18C2
S11316809B000549CB185860EDE7C046783B002025
S1131690F83B0020843B00200C3B0020003B002052
S11316A070B50C00002810D00C4D296818310C4B73
S11316B09847286804300B4B9847631C07D00A4BA3
S11316C018682018094B984770BD72B6FEE7034BA3
S11316D0196804310648074B9847F5E7003B00209A
S11316E04907000077070000F43B00206910000060
S11316F0CC3B00203107000070B50D00002801D15B
S113170072B6FEE7074C21681831074B98472068EA
S11317100430064B9847064B18684019054B984708
S113172070BDC046003B0020310700007707000071
S1131730F43B00206910000070B5C368DC68002C1D
S113174027D0250018352800154B9847154B1B68E2
S1131750002B20D1251D2800114B9847E36A124A1B
S11317601268934201D9104A13609800C01880008F
S11317700E4B181829000E4B98470E4B1B68E26A53
S1131780DB6A00209A4203D901220B4B1A60013014
S113179070BD72B6FEE729000848054B9847ECE790
S11317A077070000783B0020843B00200C3B00209E
S11317B031070000003B0020F83B0020B43B002030
S11317C0002806D0044B1B680360044B1B6843606D
S11317D0704772B6FEE7C046B03B0020F43B0020E1
S11317E070B504000E0000281AD000291AD0134B3B
S11317F09847134B1A683368591C1DD0114909685E
S11318002068884203D0012561688A4204D2616855
S1131810501A0125834207D80B4B9847280070BD06
S113182072B6FEE772B6FEE79B1A5B1833602000BF
S1131830064B98470025EFE70025EDE70D0800006B
S1131840F43B0020B03B002025080000C117000035
S11318500122014B1A607047F83B0020014B1868C5
S11318607047C046003B0020054B1B680120002B3D
S113187004D0044B18684342584140007047C046A6
S1131880C83B0020783B002070B5041E1AD0C26A01
S1131890184B1B68DB6A9A4214D28369002B05DB60
S11318A0144B1B68D96A05235B1A836193009B1848
S11318B09B00114AD31862699A4204D00D4B1B68ED
S11318C0DB6AE36270BD251D28000C4B9847094B69
S11318D01B68DB6AE3620A4A1268934201D9084A28
S11318E013609800C0188000034B18182900054B9A
S11318F09847E7E7003B00200C3B002077070000F7
S1131900843B00203107000070B5041E1DD0C36A5B
S1131910C26B934219D0051D28000C4B9847E06B0D
S1131920E062A369002B02DB05231B1AA361084BA9
S11319301B68984201D9064B186083001818800070
S1131940044B18182900044B984770BD7707000012
S1131950843B00200C3B00203107000010B541609F
S1131960006191420BD8D21A012483699A4211D2A0
S1131970011D094B1868094B984700240AE09A4254
S113198002D20124994205D2011D054B1868034B6C
S113199098470024200010BD003C002049070000A7
S11319A0FC3B002070B5104B9847104B1B68002B74
S11319B002D00F4B984770BD0E4D28000E4EB04715
S11319C00E4C2000B0470E4B1D600E4B1C600022D5
S11319D00C2102200C4B9847002802D0034B1860BE
S11319E0E7E772B6FEE7C0460D080000303C002071
S11319F025080000043C002015070000183C0020C6
S1131A00FC3B0020003C0020D90B000010B584B042
S1131A100B4B98470B4B1B68002B0FD000230393F1
S1131A20029301930233009300235022064907488E
S1131A30074CA047002801D004B010BD72B6FEE7E1
S1131A40A5190000303C0020301F0000711B00006D
S1131A50C110000030B585B01D00134B1C68002C6C
S1131A6020D0019102920390052913DC0F4B984773
S1131A70022807D00C4B18680023002201A90C4C43
S1131A80A0470DE0084B18680023089A01A9084CE8
S1131A90A04705E000232A0001A92000054CA04727
S1131AA005B030BD0020FBE7303C00206918000081
S1131AB0290C00009D0D0000F0B5D6464F46464661
S1131AC0C0B582B08146234B98478046224B1B68A1
S1131AD0984217D300234A4613601F4B42461A60AC
S1131AE0404602B01CBC90469946A246F0BD002375
S1131AF00093524600212000184CA047002803D12F
S1131B0072B6FEE7164E174F33681A68002A18D0CB
S1131B10DB681A689246DC68251D2800B847200057
S1131B20636A9847E369012BEED1A36953449A454C
S1131B30DDD2636024610A4B186829000A4B984778
S1131B40E2E70A4A064910680860136001234A461E
S1131B501360C2E71D1300002C3C0020551A00003E
S1131B60FC3B00207707000049070000003C0020F0
S1131B70F0B589B0504F514B1B681A68002A00D148
S1131B808CE0DB681D684E4B984705A84D4B984781
S1131B900400059B002B00D08BE0A84225D2291B12
S1131BA0494B1868494B9847494B9847002840D0FF
S1131BB0454D484C0023002205A92868A047002869
S1131BC0D9D0059B0393002BF4DB079E7369002B8C
S1131BD001D0301DB84704A83A4B9847059B092B00
S1131BE0E8D89B003C4AD3589F46394B9847334B1F
S1131BF01B68DB68DE68301D2F4B9847F369012BA7
S1131C0003D0736A30009847D2E7B369E9182B0010
S1131C1022003000314CA0470128F2D10023009368
S1131C202A00002130002E4CA0470028E9D172B6CA
S1131C30FEE72C4B9847BBE7069BB2699446634486
S1131C401900069B02003000244CA0470128B0D1A3
S1131C503000736A9847F369012BAAD1069BB169D6
S1131C608C4663441A0000230093002130001C4C6E
S1131C70A04700289DD172B6FEE70699B1610029FC
S1131C8006D04118030002003000144CA04790E72E
S1131C9072B6FEE73000144B98478AE7084B984722
S1131CA005A8084B984704000025059B002B00D18C
S1131CB075E7074B98477BE777070000FC3B00205C
S1131CC00D130000B91A0000303C0020ED0F000095
S1131CD061140000650E0000081F00005D1900007B
S1131CE0551A0000F5070000AD090000024B8022E0
S1131CF0D2005A619A61704780280040BFF34F8F29
S1131D0030BF704730B585B0104B9847022280230E
S1131D10DB055A705A78022AFCD1002403940294F9
S1131D2001940123009300236232094909480A4DB2
S1131D30A84703940294019402230093002364228D
S1131D4006490748A847074B9847FEE74D06000099
S1131D50381F0000FD1C0000C1100000401F0000DF
S1131D60ED1C0000AD120000002243088B4274D326
S1131D7003098B425FD3030A8B4244D3030B8B4288
S1131D8028D3030C8B420DD3FF22090212BA030C91
S1131D908B4202D31212090265D0030B8B4219D372
S1131DA000E0090AC30B8B4201D3CB03C01A524192
S1131DB0830B8B4201D38B03C01A5241430B8B42DA
S1131DC001D34B03C01A5241030B8B4201D30B03C3
S1131DD0C01A5241C30A8B4201D3CB02C01A5241EA
S1131DE0830A8B4201D38B02C01A5241430A8B42AD
S1131DF001D34B02C01A5241030A8B4201D30B0296
S1131E00C01A5241CDD2C3098B4201D3CB01C01AAF
S1131E10524183098B4201D38B01C01A52414309B9
S1131E208B4201D34B01C01A524103098B4201D3A7
S1131E300B01C01A5241C3088B4201D3CB00C01A14
S1131E40524183088B4201D38B00C01A524143088C
S1131E508B4201D34B00C01A5241411A00D20146B1
S1131E60524110467047FFE701B5002000F006F824
S1131E7002BDC0460029F7D076E770477047C046D8
S1131E8070B500260C4D0D4C641BA410A64209D15C
S1131E90002600F05BF80A4D0A4C641BA410A6420D
S1131EA005D170BDB300EB5898470136EEE7B30097
S1131EB0EB5898470136F2E7581F0000581F0000FE
S1131EC0581F00005C1F0000002310B59A4200D187
S1131ED010BDCC5CC4540133F8E70000520200008A
S1131EE04E0200004E020000B4020000B4020000E2
S1131EF068020000580200006E020000A202000006
S1131F0049444C4500000000381C0000381C000007
S1131F10381C0000B41B00007A1C0000941C000054
S1131F20381C0000381C0000B41B00007A1C0000A0
S1131F30546D722053766300736C65657000000005
S1131F40746F67676C65206C65640000F8B5C04603
S1131F50F8BC08BC9E467047DD000000F8B5C046DA
S10F1F60F8BC08BC9E467047B5000000A9
S10F1F6C01000000AAAAAAAAFFFFFFFFC0
S903067D79
