S01500004144435F4558414D504C4533312E7372656378
S1130000FDC000001AC1000018C1000016C10000A4
S113001014C1000012C1000010C100000EC1000094
S11300200CC100000AC1000008C1000006C10000A4
S113003004C1000002C1000000C10000FEC00000B5
S1130040FCC00000FAC00000F8C00000F6C00000C8
S1130050F4C00000F2C00000F0C00000EEC00000D8
S1130060ECC00000EAC00000E8C00000E6C00000E8
S1130070E4C00000E2C00000E0C00000DEC00000F8
S1130080DCC00000DAC00000D8C00000D6C0000008
S1130090D4C00000D2C00000D0C00000CEC0000018
S11300A0CCC00000CAC00000C8C00000C6C0000028
S11300B0C4C00000C2C00000C0C00000BEC0000038
S11300C0BCC00000BAC00000B8C00000B6C0000048
S11300D0B4C00000B2C00000B0C00000AEC0000058
S11300E0ACC00000AAC00000A8C00000A6C0000068
S11300F0A4C00000A2C00000A0C000009EC0000078
S11301009CC000009AC0000098C0000096C0000087
S113011094C0000092C0000090C00000CAC000005B
S11301208CC000008AC0000088C0000086C00000A7
S113013084C0000082C0000080C000007EC00000B7
S11301407CC000007AC0000078C0000076C00000C7
S113015074C0000072C0000070C000006EC00000D7
S11301606CC000006AC0000068C0000066C00000E7
S113017064C0000062C0000060C000005EC00000F7
S11301805CC000005AC0000058C0000056C0000007
S113019054C0000052C0000050C000004EC0000017
S11301A04CC000004AC0000048C0000046C0000027
S11301B044C0000042C0000040C000003EC0000037
S11301C03CC000003AC0000038C0000036C0000047
S11301D034C0000032C0000030C000002EC0000057
S11301E02CC000002AC0000028C0000026C0000067
S11301F024C0000022C0000020C0000011241FBE43
S1130200CFEFCDBFDFE5DEBF00E00CBF10E2A0E022
S1130210B0E2E8E3F4E000E00BBF02C007900D9207
S1130220A030B107D9F727E2A0E0B0E201C01D92E7
S1130230A63DB207E1F728D0FDC0E2CE88ED84BF29
S113024081E0809396000895E0E7F0E083E5808301
S113025085E0818382838FE7838384838583868398
S1130260089588ED84BF84E080934100E0E0F2E0EB
S113027080E6818380E18283148281E080A311A2DD
S113028093E092A380830895AAD0DEDFD7DFE9DF6D
S1130290E8E4F0E08081817F8083808181608083D5
S11302A080E88093200284E08093A200789488956B
S11302B0FECF1F920F920FB60F9211240BB60F921E
S11302C02F933F938F939F93AF93BF93EF93FF939A
S11302D08091100290911102A0E0B0E08093002080
S11302E090930120A0930220B0930320E0E0F2E079
S11302F081E083A380E880A3E0910420F0910520AD
S11303008091002090910120A0910220B0910320BF
S1130310EE0FFF1FEA5FFF4D8083918380910420DD
S1130320909105200196809304209093052080915C
S1130330042090910520883E9340D9F480910420B4
S113034090910520892B89F080E090E0FC01EE0F6C
S1130350FF1FEA5FFF4D2081318101962091042027
S1130360309105208217930788F31092042010928D
S11303700520FF91EF91BF91AF919F918F913F9194
S11303802F910F900BBE0F900FBE0F901F901895DA
S1130390CF93DF93FC0120E030E0C62FD0E0DE01F4
S11303A0022E02C0B595A7950A94E2F7A0FD508BE2
S11303B02F5F3F4F31962830310589F740FF0AC03F
S11303C041FF03C0FC01658302C0FC016683FC019C
S11303D0618302C0FC016283DF91CF91089543E001
S11303E050E061E080EE97E0D3DF43E050E062E06C
S11303F080EE97E0CDDF43E050E060E180E696E0F8
S1130400C7DF41E050E460E280E696E0C1DF40E00F
S11304105BE160E280E896E0BBDF40E05BE162E044
S113042080EA96E0B5DF40E05BE164E080EA96E0D4
S10B0430AFCF0895F894FFCF4B
S9030000FC
