S014000053414D4C32315F4150505F332E73726563AE
S113000098200020B10D0000AD0D0000AD0D0000E2
S113001000000000000000000000000000000000DC
S1130020000000000000000000000000AD0D000012
S11300300000000000000000AD0D0000AD0D000048
S1130040AD0D0000AD0D000051070000AD0D000026
S1130050AD0D0000AD0D0000AD0D0000AD0D0000B4
S1130060AD0D0000AD0D0000AD0D0000AD0D0000A4
S1130070AD0D0000AD0D0000AD0D0000AD0D000094
S1130080AD0D0000AD0D0000AD0D0000AD0D000084
S1130090AD0D0000AD0D0000AD0D0000AD0D000074
S11300A0AD0D0000AD0D0000AD0D0000AD0D000064
S11300B00000000010B5064C2378002B07D1054B37
S11300C0002B02D0044800E000BF0123237010BDC0
S11300D0040000200000000084130000084B10B549
S11300E0002B03D00749084800E000BF0748036815
S11300F0002B00D110BD064B002BFBD09847F9E72D
S11301000000000008000020841300008413000095
S11301100000000010B500230022037043708370B8
S1130120C370002103830362C36101240471C024EA
S11301306401C480017242728272C27202732A2400
S1130140025542738273C27303610275063C025501
S1130150C3840385417510BDF0B5CE4600B59AB091
S1130160050016000160B54A136A082003431362B0
S11301700B780338DB0703D51AB004BC9146F0BDF5
S11301802A68138C9BB2002BFBD10B781C209B0795
S1130190F2D473782B71002B04D1A94AD3690421BA
S11301A00B43D3612F6833786A46137069461E2067
S11301B0A44B98471E20A44B984734796022A34946
S11301C002A8A34B9847132C0BD9F48860229F49AB
S11301D002A89F4B9847132C11D900249C4B994695
S11301E01EE0A40002ABE05801A900234B70CB70C1
S11301F08B7001330B70C0B2964B9847E5E7A400AF
S113020002ABE05801A900234B70CB708B70013313
S11302100B70C0B28F4B9847DFE70134142C18D011
S11302200123A34032691A42F7D06022874902A809
S1130230C847132CF1D8A30002AA985801A9002397
S11302404B70CB708B7001330B70C0B2814B9847ED
S1130250E3E7737B9B01B27BD2011343DBB23B70B8
S1130260337DDB0172781343DBB2BB70F378342B3C
S113027000D933E19B00784AD3589F4604221024C6
S113028002211AE0717A327A102416E00622102430
S1130290012112E00822102400210EE00022302463
S11302A000210AE000222024002106E0002200248C
S11302B0002102E0022210240121090170230B40D5
S11302C013433B732A68138C9BB2002BFBD1737DC1
S11302D017203F2B00D94FE7F27BD2011343DBB247
S11302E07B732A68138C9BB2002BFBD1B3787B7091
S11302F02423F35CDB00327B92001A43F37A13432A
S1130300B27A5200134323437B812A68138C9BB235
S1130310002BFBD1338B002B1FD0102C00D1BFE05E
S11303206BD9202C00D19DE0302C16D1F27A002A12
S11303300AD0F26980321720FF2A00D91CE7326AFA
S11303408032FF2A00D917E71720F269FF2A00DD5F
S113035012E7326AFF2A00DD0EE77A8913437B81B4
S11303602A68138C9BB2002BFBD1B38BFB812A68C8
S1130370138C9BB2002BFBD1338C3B822A68138CE9
S11303809BB2002BFBD13379F28813433B812A685B
S1130390138C9BB2002BFBD12A33F35CFB70072335
S11303A03B711D33F35C002B1BD0F38C2B4A1720BD
S11303B0934200D9E0E67B822A68138C9BB2002B1F
S11303C0FBD1328D80231B01D31824499BB2172003
S11303D08B4200D9D0E6BA822A68138C9BB2002BD8
S11303E0FBD11F4B1B681A02E021C9000A409B067F
S11303F05B0F1343BB850020BEE6002CADD1F27A1F
S1130400002A0FD0F269802109018C466244134905
S113041017208A4200D9AFE6326A62440F498A4201
S113042000D9A9E60D4A1720F169914200DDA3E63F
S1130430316A914200DD9FE68FE7C0460004004028
S113044000140040510C0000E10B0000E012000019
S1130450F91100004D0D00000C120000FF0F000008
S113046020608000F27A002A0FD0F269802189008E
S11304708C4662441A4917208A4200D97CE6326AC3
S1130480624417498A4200D976E6154A1720F16971
S1130490914200DD70E6316A914200DD6CE65CE772
S11304A0F27A002A0FD0F269802109028C46624454
S11304B00C4917208A4200D95EE6326A624409492F
S11304C08A4200D958E6074A1720F169914200DDB3
S11304D052E6316A914200DD4EE63EE717204BE6D4
S11304E0FF030000FFFF000003681869431E9841E2
S11304F0C0B2704770B5040006680422084B1A6045
S1130500084D2000A8470028FBD13388022213435A
S11305103380044D2000A8470028FBD170BDC0469D
S113052000E100E0E904000070B50400066804215D
S113053080230A4AD1500A4D2000A8470028FBD145
S1130540084B3381B3813388022293433380044DB3
S11305502000A8470028FBD170BDC04600E100E0A0
S1130560E9040000FF81FFFF70B5040006680A4B30
S113057098470023A386E386084D2000A847002857
S1130580FBD13388012213433380044D2000A84754
S11305900028FBD170BDC04629050000E904000015
S11305A0F0B583B00400019115000668134F2000D4
S11305B0B8470028FBD12379002B0ED0012B19D189
S11305C01730012D17D80835AD00019BAB510B4DE9
S11305D02000A8470028FBD10DE01720022D0AD8DF
S11305E0074B019A9A4206D86B469B8810356D00DA
S11305F0AB53ECE71A2003B0F0BDC046E904000099
S1130600FFFF000070B50400150001601F4A516926
S113061080235B000B43536100221D4B1A611D4B69
S11306209847AB7823711C4B1C6022682B79DB0341
S113063029880B439BB21380AB78002B13D017206F
S1130640012B0FD113889BB21380EB78002B03D0BE
S1130650138880210B431380A968002220000F4BCC
S11306609847002070BD138804210B431380EB7856
S11306701720002BF6D10022A9682000074EB047AE
S1130680E96801222000B0470020EBE700040040A5
S1130690001000406905000050000020A105000082
S11306A0F8B504000E0003791520002B00D0F8BD26
S11306B02768064D2000A8470028FBD1BE83034DC0
S11306C02000A8470028FBD1F1E7C046E904000058
S11306D00A2A09D0072A07D90379002B10D0012B45
S11306E012D11633092A09D8931C9B001950838E02
S11306F0012191400B439BB283860023180070476D
S113070017230A2AFAD8EFE71723F7E710B5026888
S11307100A2911D0072912D980235B000C00083C58
S1130720A340C024A40023405381C38E01228A40E5
S113073013439BB2C38610BD044B5381F5E70124D8
S11307408C40FF2323405381EFE7C0460080FFFF26
S1130750F8B5DE4657464E464546E0B52B4B1B687A
S11307609A461E68DB8E5246928E1A409046B28993
S1130770738913401AB2002A08DBFF271F402AD0CE
S1130780002401239946FE339B4614E043465B054F
S113079007D41F4BB3813CBC90469946A246AB4656
S11307A0F8BD53461B6B9847F3E75B461D40B58184
S11307B00134082CEFD023004D46A5402F42F4D03D
S11307C04246224149461142EFD002339B00524631
S11307D09B589847E9E7DA050AD54346DB0503D475
S11307E080235B00B381D6E753469B6A9847F7E7BB
S11307F09B05D0D543469B0503D480239B00B3813E
S1130800C9E75346DB6A9847F7E7C0465000002023
S11308100080FFFF0C4B1B68002B06D1EFF3108305
S1130820002B07D00022094B1A70074A13680133C2
S11308301360704772B6BFF35F8F0022044B1A70C7
S11308400132024B1A70F0E720000020240000203F
S113085000000020084B1A68013A1A601B68002B3C
S113086009D1064B1B78002B05D00122044B1A70CA
S1130870BFF35F8F62B67047200000202400002081
S113088000000020F0B583B001AC0125657000279D
S1130890A770257021002A20064EB0478022D2007E
S11308A0054B9A612770657021000220B04703B0A0
S11308B0F0BDC046BD0800008028004000B583B0EC
S11308C001AB80221A700A785A704A789A708A7832
S11308D0DA701900014B984703B000BD4D0D0000BC
S11308E010B5082803D880001C4B1B589F460020D5
S11308F032E01B4B18692FE01A4B187D0007800F5C
S1130900431C1948584327E0154B586924E0144BFD
S11309101B6800209B071FD5124980225200CB6818
S11309201342FCD00E4B1B685B0701D40F4813E045
S113093000200F4B98470A4B9B681B041B0C584321
S11309400AE02823074AD35C00209B0704D5044B04
S1130950D86801E08020000210BDC04640130000AA
S113096028000020000C004000093D00006CDC025F
S1130970750C000010B584B0802252002F4B9A6091
S1130980FD3A2F4B9A602F4A53681E218B435360C4
S11309908023DB059B78022B0FD08023DB059B781B
S11309A05BB2002B09DB8023DB0501229A71013243
S11309B09A701A009379002BFCD0204B197D802269
S11309C052420A431A751A7D40218A431A751E4BF6
S11309D098471E4C0123A3716371237101A94B60D5
S11309E000234B7006220A700B724B720020184BC6
S11309F098470020174B98470020174B98472179B8
S1130A00C9B2164B9847164B984214D88023DB057D
S1130A109B78002B0FD08023DB059B785BB2002BE7
S1130A2009DB8023DB0501229A7100229A701A00E7
S1130A309379002BFCD004B010BDC046000C0040DC
S1130A400014004000400041650A0000000400401A
S1130A50890A0000350B0000750B0000D10F00005F
S1130A60001BB700064A536940210B43536101221E
S1130A70044B1A7019000B781342FCD17047C0461E
S1130A80000400400018004070B504000D784B7855
S1130A90002B02D08023DB001D434B7A002B02D0B5
S1130AA080231B011D43486801280FD9431E1842A7
S1130AB031D102282DD90223002201325B00984251
S1130AC0FBD880235B011D43120415430B7A002BD2
S1130AD002D080239B011D430426A6401149124ADB
S1130AE04B6813401E42FBD1104B9847A4000D4B9A
S1130AF09C466444226A80235B001A402A43226293
S1130B006146094A4B6813401E42FBD1084B984783
S1130B1070BD0022D5E7000480239B0018430543E1
S1130B20D4E7C04600180040FC0700001508000088
S1130B305508000010B504000422824009480A49FF
S1130B4043680B401A42FBD1084B9847A400054B5D
S1130B509C466444226A80235B0013432362044B53
S1130B60984710BD00180040FC070000150800005D
S1130B7055080000F8B504000422824012481349C5
S1130B8043680B401A42FBD1114B98470E4F08346F
S1130B90A400E0590007000F0E4B98470600E559E2
S1130BA0ED04ED0FE459240C0B4B9847002D07D1AD
S1130BB0012C07D921003000084B9847060001E0BA
S1130BC00134E6403000F8BD00180040FC07000086
S1130BD015080000E108000055080000D10F0000CE
S1130BE010B50400094B9847A000094B9C4660448B
S1130BF08022835840210B4383504031403A43586C
S1130C001A42FCD0034B984710BDC046150800009B
S1130C10001800405508000010B50400094B98471F
S1130C20A000094B9C4660448022835840218B439A
S1130C3083504031403A43581A42FCD1034B984701
S1130C4010BDC046150800000018004055080000FB
S1130C5070B504000D00054B98472A780F23134004
S1130C602034A400024AA35070BDC046190C0000F1
S1130C700018004010B50400064B98472034A40027
S1130C80054BE4582407240F044B98472000044BD9
S1130C90984710BD150800000018004055080000D2
S1130CA0750B000030B5D378002B35D11378802B29
S1130CB029D01B0680246402234354780225AC43C4
S1130CC006D19478002C20D18024A40223434160CF
S1130CD05478013C012C1CD90D042D0CA024E405EE
S1130CE02C431C4384620D0CD02424062C431C4347
S1130CF08462D478002C22D15B031CD59378012B19
S1130D001ED0416117E00023D7E7C024E402234347
S1130D10DDE70D4C2340DFE741600C04240CA023E5
S1130D20DB05234383620C0CD0231B06234383621D
S1130D30D378002B03D15378013B012B02D930BD6A
S1130D408161F8E78160FAE7FFFFFBFF10B50A0055
S1130D50C1090023002904D14309DB0105498C465C
S1130D6063441F242040012181401800024B98470E
S1130D7010BDC04600280040A50C000070470000CC
S1130D8010B5054B9847054B9847054B9847054BBD
S1130D909847054B984710BD750900008508000069
S1130DA07D0D00007D0D00007D0D0000FEE70000BC
S1130DB010B51A4A1A4B9A4211D01A00194B9A428A
S1130DC00DD2194A03339B1A9B0801339B0000225E
S1130DD0134812498C58845004329A42FAD1134A67
S1130DE0134B9A420AD2D34311495B1803218B4314
S1130DF004339B18002102C29342FCD10D4AFF2107
S1130E000D4B8B4393600D4A53687F390B435360FA
S1130E100B4B98470B4B9847FEE7C04684130000E2
S1130E200000002004000020040000200400002032
S1130E309400002000ED00E00000000000400041AC
S1130E40B1110000850F000010B51D4B1B681A8CF2
S1130E5092B2002AFBD11A7E02210A431A761A8C16
S1130E6092B2002AFBD19979C9B201320A404C07E7
S1130E7001D502242243890701D504210A43D2075C
S1130E800AD4104CA368E3606368A36023686360BA
S1130E900D4B9847206010BD988C80B201229A7146
S1130EA09979C9B20A404C0701D502242243890723
S1130EB001D504210A435207E3D502229A71E0E7DF
S1130EC08C00002040000020E910000010B58CB018
S1130ED001A80E4B98470E4C01AA0E4920000E4B58
S1130EE098472268138C9BB2002BFBD107331371F4
S1130EF09371137802210B431370054B1A68138CFA
S1130F009BB2002BFBD10CB010BDC04615010000F4
S1130F108C000020000C00435901000010B584B07F
S1130F2000236A46D370012269460A71029303932F
S1130F30FF320A806A468B70044C05492000054B39
S1130F4098472000044B984704B010BD540000207B
S1130F500020004005060000F504000010B5054C13
S1130F600A2205492000054B98470A212000044B1A
S1130F70984710BD54000020490E0000D10600001F
S1130F800D07000010B50C4B98470C4B98470C4BC1
S1130F9098470C4B9847FA21C9000B480B4B9847CC
S1130FA004228023DB055A705A78042AFCD1BFF34B
S1130FB04F8F30BFFBE7C046810D00001D0F0000BE
S1130FC0CD0E00005D0F000054000020A1060000BB
S1130FD0002243088B4274D303098B425FD3030A74
S1130FE08B4244D3030B8B4228D3030C8B420DD387
S1130FF0FF22090212BA030C8B4202D31212090215
S113100065D0030B8B4219D300E0090AC30B8B4252
S113101001D3CB03C01A5241830B8B4201D38B0300
S1131020C01A5241430B8B4201D34B03C01A5241A5
S1131030030B8B4201D30B03C01A5241C30A8B42E8
S113104001D3CB02C01A5241830A8B4201D38B02D3
S1131050C01A5241430A8B4201D34B02C01A524177
S1131060030A8B4201D30B02C01A5241CDD2C309E9
S11310708B4201D3CB01C01A524183098B4201D365
S11310808B01C01A524143098B4201D34B01C01A50
S1131090524103098B4201D30B01C01A5241C308C8
S11310A08B4201D3CB00C01A524183088B4201D337
S11310B08B00C01A524143088B4201D34B00C01A23
S11310C05241411A00D20146524110467047FFE78F
S11310D001B5002000F006F802BDC0460029F7D093
S11310E076E770477047C04610B5041E27D000F05D
S11310F041F89E231B1A962B0ADC9622D21A94409E
S11311006402640ADBB26402DB05600A184310BDA2
S1131110992B17DC9922D21A002A27DD9440220049
S1131120134C1440510704D00F210A40042A00D064
S11311300434620112D4A401640ADBB2E3E700239D
S11311400024E0E7B9222100D21A91400A00511E7E
S11311508A410521091ACC401443DBE7044B1C40A7
S11311609F23A4011B1A640ADBB2CCE72200D7E751
S1131170FFFFFFFB1C2101231B04984201D3000C39
S113118010391B0A984201D3000A08391B099842F6
S113119001D30009043902A2105C40187047C0460C
S11311A0040302020101010100000000000000002C
S11311B070B500260C4D0D4C641BA410A64209D139
S11311C0002600F0CFF80A4D0A4C641BA410A64276
S11311D005D170BDB300EB5898470136EEE7B30074
S11311E0EB5898470136F2E77013000070130000C3
S11311F07013000074130000002310B59A4200D14C
S113120010BDCC5CC4540133F8E70000AC0200000C
S1131210DC040000DC040000DC040000DC0400004A
S1131220DC040000DC040000DC040000DC0400003A
S1131230DC040000DC040000DC040000DC0400002A
S1131240DC040000DC040000DC0400009402000064
S1131250DC040000DC040000DC040000DC0400000A
S1131260DC040000DC040000DC040000DC040000FA
S1131270DC040000DC040000DC040000DC040000EA
S1131280DC040000DC040000DC040000A402000014
S1131290DC040000DC040000DC040000DC040000CA
S11312A0DC040000DC040000DC040000DC040000BA
S11312B0DC040000DC040000DC040000DC040000AA
S11312C0DC040000DC040000DC0400009C020000DC
S11312D0B40200007C0200008C02000084020000C2
S11312E002000000030000002800000029000000A4
S11312F004000000050000000600000007000000D4
S11313002000000021000000220000002300000053
S11313102400000025000000260000002700000033
S113132008000000090000000A0000000B00000093
S1131330FFFF0000FFFF0000FFFF0000FFFF0000B1
S1131340F2080000EE080000EE0800005409000056
S11313505409000008090000F80800000E09000004
S113136042090000F8B5C046F8BC08BC9E46704768
S1131370DD000000F8B5C046F8BC08BC9E467047C6
S1071380B5000000B0
S10713840100000060
S9030DB13E
