S014000053414D4C32315F4150505F322E73726563AF
S1130000802000200D1200000912000009120000D7
S113001000000000000000000000000000000000DC
S113002000000000000000000000000009120000B1
S11300300000000000000000091200000912000086
S11300400912000009120000091200000912000040
S11300500912000009120000091200000912000030
S11300600912000009120000091200000912000020
S11300700912000009120000091200000912000010
S113008009120000D1050000E1050000F10500009F
S11300900106000011060000091200000912000008
S11300A009120000091200000912000009120000E0
S11300B00000000010B5064C2378002B07D1054B37
S11300C0002B02D0044800E000BF0123237010BDC0
S11300D004000020000000007C160000084B10B54E
S11300E0002B03D00749084800E000BF0748036815
S11300F0002B00D110BD064B002BFBD09847F9E72D
S113010000000000080000207C1600007C1600009F
S11301100000000010B58CB001A80E4B98470E4C9F
S113012001AA0E4920000E4B98472268138C9BB2FB
S1130130002BFBD1073313719371137802210B4306
S11301401370054B1A68138C9BB2002BFBD10CB0B7
S113015010BDC0466501000048000020000C0043AB
S1130160A901000010B500230022037043708370BE
S1130170C370002103830362C36101240471C0249A
S11301806401C480017242728272C27202732A24B0
S1130190025542738273C27303610275063C0255B1
S11301A0C3840385417510BDF0B5CE4600B59AB041
S11301B0050016000160B54A136A08200343136260
S11301C00B780338DB0703D51AB004BC9146F0BDA5
S11301D02A68138C9BB2002BFBD10B781C209B0745
S11301E0F2D473782B71002B04D1A94AD36904216A
S11301F00B43D3612F6833786A46137069461E2017
S1130200A44B98471E20A44B984734796022A349F5
S113021002A8A34B9847132C0BD9F48860229F495A
S113022002A89F4B9847132C11D900249C4B994644
S11302301EE0A40002ABE05801A900234B70CB7070
S11302408B7001330B70C0B2964B9847E5E7A4005E
S113025002ABE05801A900234B70CB708B700133C3
S11302600B70C0B28F4B9847DFE70134142C18D0C1
S11302700123A34032691A42F7D06022874902A8B9
S1130280C847132CF1D8A30002AA985801A9002347
S11302904B70CB708B7001330B70C0B2814B98479D
S11302A0E3E7737B9B01B27BD2011343DBB23B7068
S11302B0337DDB0172781343DBB2BB70F378342BEC
S11302C000D933E19B00784AD3589F460422102476
S11302D002211AE0717A327A102416E006221024E0
S11302E0012112E00822102400210EE00022302413
S11302F000210AE000222024002106E0002200243C
S1130300002102E0022210240121090170230B4084
S113031013433B732A68138C9BB2002BFBD1737D70
S113032017203F2B00D94FE7F27BD2011343DBB2F6
S11303307B732A68138C9BB2002BFBD1B3787B7040
S11303402423F35CDB00327B92001A43F37A1343D9
S1130350B27A5200134323437B812A68138C9BB2E5
S1130360002BFBD1338B002B1FD0102C00D1BFE00E
S11303706BD9202C00D19DE0302C16D1F27A002AC2
S11303800AD0F26980321720FF2A00D91CE7326AAA
S11303908032FF2A00D917E71720F269FF2A00DD0F
S11303A012E7326AFF2A00DD0EE77A8913437B8164
S11303B02A68138C9BB2002BFBD1B38BFB812A6878
S11303C0138C9BB2002BFBD1338C3B822A68138C99
S11303D09BB2002BFBD13379F28813433B812A680B
S11303E0138C9BB2002BFBD12A33F35CFB700723E5
S11303F03B711D33F35C002B1BD0F38C2B4A17206D
S1130400934200D9E0E67B822A68138C9BB2002BCE
S1130410FBD1328D80231B01D31824499BB21720B2
S11304208B4200D9D0E6BA822A68138C9BB2002B87
S1130430FBD11F4B1B681A02E021C9000A409B062E
S11304405B0F1343BB850020BEE6002CADD1F27ACE
S1130450002A0FD0F269802109018C4662441349B5
S113046017208A4200D9AFE6326A62440F498A42B1
S113047000D9A9E60D4A1720F169914200DDA3E6EF
S1130480316A914200DD9FE68FE7C04600040040D8
S113049000140040AD1000003D100000481500009D
S11304A061140000A911000074140000FF0F000083
S11304B020608000F27A002A0FD0F269802189003E
S11304C08C4662441A4917208A4200D97CE6326A73
S11304D0624417498A4200D976E6154A1720F16921
S11304E0914200DD70E6316A914200DD6CE65CE722
S11304F0F27A002A0FD0F269802109028C46624404
S11305000C4917208A4200D95EE6326A62440949DE
S11305108A4200D958E6074A1720F169914200DD62
S113052052E6316A914200DD4EE63EE717204BE683
S1130530FF030000FFFF0000931C9B001950022AD8
S113054009D0032A0CD0012393401A00037E1343DD
S1130550037600207047037E102213430376F8E7E6
S1130560037E202213430376F3E7000070B5800076
S1130570164BC45823689D7A227E637E13401D4027
S1130580EB0706D4AB070BD4EB0610D4AB0615D49B
S113059070BD2000A3689847012322689372F1E795
S11305A02000E3689847022322689372ECE7200056
S11305B023699847102322689372E7E72000636950
S11305C09847236820229A72E2E7C0465000002030
S11305D010B50020014B984710BDC0466D050000C2
S11305E010B50120014B984710BDC0466D050000B1
S11305F010B50220014B984710BDC0466D050000A0
S113060010B50320014B984710BDC0466D0500008E
S113061010B50420014B984710BDC0466D0500007D
S113062030B587B001A90C4B0A0032CB32C212CBD1
S113063012C2019B98420BD0012301A99A0052587F
S1130640824206D00133052BF8D1002007B030BD1B
S11306500023D8B2FAE7C046D0150000F0B5C6466C
S113066000B58EB004000D0016000800AE4B98478C
S113067080460CAB1B221A705A7001329A70DA70E1
S113068001321A7102A9A94B14330A0083CB83C225
S113069083CB83C283CB83C21B6813600023A36014
S11306A0E360236163612376637643469A00A04B3B
S11306B0D45025603423F35CA376F378082B08D058
S11306C023712B680520DB0708D50EB004BC9046C7
S11306D0F0BD17204246D207F7D4F1E7EB7A173082
S11306E09B07F2D42B689B07EFD4337C002B12D1E9
S11306F0337F002B1BD143465A0002A9531C9B0095
S113070058584346DB005B58D9B2042923D88B00E0
S11307108849CB589F4601A901238B700022CA70D7
S1130720327E0A704B70307D834B9847E0E701A915
S113073001238B700022CA702432B21812780A7016
S11307404B701F33F31818787B4B9847D3E77B49DA
S11307504B6918434861F378082B00D186E033785D
S11307606A4613700CAB42469F5C69463800744B72
S113077098473800734B9847F378F2791343B2885B
S11307801343727A002A02D0802252021343B27AAF
S1130790002A02D0802292021343F27A002A02D065
S11307A0802252031343327B002A02D08022920318
S11307B0134371788901B278D20111431943226835
S11307C01369002BFCD1296022681369002BFCD12A
S11307D0B3792B73717B4B1E99418900B37B002B3A
S11307E001D00123194322681369002BFCD1FF3384
S11307F02B71002904D022681369002BFCD1697184
S1130800337A6B7322681369002BFCD12379042B90
S113081059D0082B74D01720002B00D055E713694A
S1130820002BFCD1338DAB8222681369002BFCD1E1
S1130830738DAB8322681369002BFCD1B38DEB83DA
S1130840002042E73D498B691843886183E73B49AF
S1130850CB691843C8617EE738490B6A18430862BC
S113086079E7364B596A0843586274E743460133C3
S1130870042B00DD73E702ABD11C8900C958023296
S11308809200D358DAB2042A00D968E793002E4ABA
S1130890D3589F46294A5369194351615FE7274A50
S11308A09369194391615AE7244AD3691943D16181
S11308B055E7224A136A1943116250E71F4B5A6ADB
S11308C0114359624BE71369002BFCD12833F35CC5
S11308D02B7522681369002BFCD12933F35CEB766A
S11308E022681369002BFCD12A33F35C2B7722682E
S11308F01369002BFCD12B33F35C6B770020E4E607
S11309001369002BFCD1B36A6B6122681369002B55
S1130910FCD1F36AEB6122681369002BFCD1336BC1
S11309202B620020D1E6C04621060000D01500004D
S113093050000020A8150000A91100000004004088
S1130940AD1000003D100000BC15000030B5264B72
S11309501A88002A02D12021244B9961013292B2D3
S1130960214B1A80224B1B68198C89B20029FBD1B8
S1130970197E022001431976198C89B20029FBD112
S11309809879C0B201310140450701D502252943B8
S1130990800701D504200143C90709D415490B6810
S11309A09C4664440C60FA239B009A4214D030BDE8
S11309B09C8CA4B2012199719879C0B20140450779
S11309C001D502252943800701D5042001434907A5
S11309D0E4D502219971E1E70022034B1A80203209
S11309E0024B5A61E3E7C046200000208028004003
S11309F0480000202400002010B58EB000236A4671
S1130A0013709371D3715370937013725372937202
S1130A10D3721373937353731374059306931377F9
S1130A2008930993138553859385343300226946CB
S1130A30CA54303BCB70C023DB008B809F22292318
S1130A40CA549E3A0133CA54074C6A4607492000E7
S1130A50074B984722681369002BFCD113680221C5
S1130A600B4313600EB010BD64000020002C004244
S1130A705D06000010B50C4C02220C4920000C4B02
S1130A80984720680B4B98470B4B1B5C1F221A405E
S1130A9001239340094A1360637E10221343637653
S1130AA0236810225A7210BD640000204D09000012
S1130AB039050000210600000C16000000E100E0EA
S1130AC00C4B1B68002B06D1EFF31083002B07D0CF
S1130AD00022094B1A70074A1368013313607047E8
S1130AE072B6BFF35F8F0022044B1A700132024BBF
S1130AF01A70F0E7280000202C00002000000020DD
S1130B00084B1A68013A1A601B68002B09D1064B7E
S1130B101B78002B05D00122044B1A70BFF35F8FA2
S1130B2062B67047280000202C000020000000203E
S1130B30F0B583B001AC012565700027A77025705E
S1130B4021002A20064EB0478022D200054B9A612C
S1130B502770657021000220B04703B0F0BDC04685
S1130B60690B00008028004000B583B001AB8022EF
S1130B701A700A785A704A789A708A78DA7019006A
S1130B80014B984703B000BDA911000010B5082817
S1130B9003D880001C4B1B589F46002032E01B4B9F
S1130BA018692FE01A4B187D0007800F431C194861
S1130BB0584327E0154B586924E0144B1B68002068
S1130BC09B071FD5124980225200CB681342FCD0E8
S1130BD00E4B1B685B0701D40F4813E000200F4B3A
S1130BE098470A4B9B681B041B0C58430AE02823B4
S1130BF0074AD35C00209B0704D5044BD86801E066
S1130C008020000210BDC0461416000030000020F1
S1130C10000C004000093D00006CDC02D110000013
S1130C20F0B5D6464F464646C0B5204B9A465B695A
S1130C30457801784C424C41A14681788C46C17874
S1130C408846467A077A847A4068194948610121BE
S1130C504846800004229343034340460840C000B2
S1130C60043293430343604608400001083293432F
S1130C7003430F40BF01402083433B430E40F60132
S1130C80403083433343793805402D0209480340FB
S1130C902B4321400903084803400B435246536148
S1130CA01CBC90469946A246F0BDC04600100040C8
S1130CB030000020FFF8FFFFFFEFFFFF082803D8F4
S1130CC080002D4B1B589F46172054E02B4A137D60
S1130CD002210B43137500204DE0294A9369022138
S1130CE00B439361002046E0244A138A02210B43FC
S1130CF0138200203FE0224A536902210B435361CF
S1130D00002038E01F490B68022213430B601B4B81
S1130D101A831900FE32CB681342FCD0194B9A682F
S1130D20164B1A6202221A831900FE32CB68134250
S1130D30FCD0144B5A68114BDA6100221A83190053
S1130D400132FF32CB681342FCD00E4B1B689BB2BE
S1130D500A4A138300200EE0084928228B5C0220F3
S1130D6003438B5408003821263A435C1342FCD1D8
S1130D70002000E00020704738160000000C0040FE
S1130D80001000403000002010B586B080225200D0
S1130D903E4B9A60FD3A3E4B9A603E4A53681E2190
S1130DA08B4353608023DB059B78022B0FD0802379
S1130DB0DB059B785BB2002B09DB8023DB0501227A
S1130DC09A7101329A701A009379002BFCD003A80F
S1130DD00023037080221202426083700122C270D9
S1130DE0037283720332427043722B4B984705207F
S1130DF02A4B98472A490122CB681A42FCD0284A38
S1130E00536980210B435361204B197D8022524248
S1130E100A431A751A7D40218A431A75214B984753
S1130E20214C0123A37163712371019300236A464A
S1130E305370062269460A700B724B7200201B4BDA
S1130E40984700201A4B984700201A4B984721795D
S1130E50C9B2194B9847194B984214D88023DB0523
S1130E609B78002B0FD08023DB059B785BB2002B93
S1130E7009DB8023DB0501229A7100229A701A0093
S1130E809379002BFCD006B010BDC046000C004086
S1130E900014004000400041210C0000BD0C000083
S1130EA000100040C10E000000040040E50E0000E8
S1130EB0910F0000D10F000001130000001BB700C8
S1130EC0064A536940210B4353610122044B1A70B3
S1130ED019000B781342FCD17047C046000400404F
S1130EE00018004070B504000D784B78002B02D038
S1130EF08023DB001D434B7A002B02D080231B018F
S1130F001D43486801280FD9431E184231D10228D5
S1130F102DD90223002201325B009842FBD88023A2
S1130F205B011D43120415430B7A002B02D080236E
S1130F309B011D430426A6401149124A4B681340E5
S1130F401E42FBD1104B9847A4000D4B9C466444B1
S1130F50226A80235B001A402A4322626146094ABE
S1130F604B6813401E42FBD1084B984770BD0022CA
S1130F70D5E7000480239B0018430543D4E7C0460B
S1130F8000180040FC070000C10A0000010B00002B
S1130F9010B504000422824009480A4943680B4002
S1130FA01A42FBD1084B9847A400054B9C46644465
S1130FB0226A80235B0013432362044B984710BDCD
S1130FC000180040FC070000C10A0000010B0000EB
S1130FD0F8B50400042282401248134943680B40C8
S1130FE01A42FBD1114B98470E4F0834A400E05924
S1130FF00007000F0E4B98470600E559ED04ED0F6E
S1131000E459240C0B4B9847002D07D1012C07D928
S113101021003000084B9847060001E00134E64007
S11310203000F8BD00180040FC070000C10A0000B1
S11310308D0B0000010B00000113000010B504002B
S1131040094B9847A000094B9C4660448022835872
S113105040210B4383504031403A43581A42FCD05C
S1131060034B984710BDC046C10A00000018004059
S1131070010B000010B50400094B9847A000094B70
S11310809C4660448022835840218B4383504031E6
S1131090403A43581A42FCD1034B984710BDC0460E
S11310A0C10A000000180040010B000070B50400E4
S11310B00D00054B98472A780F2313402034A400D1
S11310C0024AA35070BDC0467510000000180040CD
S11310D010B50400064B98472034A400054BE4588F
S11310E02407240F044B98472000044B984710BD55
S11310F0C10A000000180040010B0000D10F0000DD
S113110030B5D378002B35D11378802B29D01B062A
S113111080246402234354780225AC4306D1947896
S1131120002C20D18024A402234341605478013C44
S1131130012C1CD90D042D0CA024E4052C431C43C4
S113114084620D0CD02424062C431C438462D4787E
S1131150002C22D15B031CD59378012B1ED0416156
S113116017E00023D7E7C024E4022343DDE70D4C56
S11311702340DFE741600C04240CA023DB05234358
S113118083620C0CD0231B0623438362D378002B89
S113119003D15378013B012B02D930BD8161F8E7BB
S11311A08160FAE7FFFFFBFF10B50A00C1090023C5
S11311B0002904D14309DB0105498C4663441F24FB
S11311C02040012181401800024B984710BDC046C1
S11311D000280040011100007047000010B5054BC5
S11311E09847054B9847054B9847054B9847054B3F
S11311F0984710BD890D0000310B0000D911000083
S1131200D9110000D9110000FEE7000010B51A4AF8
S11312101A4B9A4211D01A00194B9A420DD2194A0C
S113122003339B1A9B0801339B0000221348124985
S11312308C58845004329A42FAD1134A134B9A427E
S11312400AD2D34311495B1803218B4304339B18FF
S1131250002102C29342FCD10D4AFF210D4B8B4366
S113126093600D4A53687F390B4353600B4B984787
S11312700B4B9847FEE7C0467C1600000000002098
S1131280040000200400002004000020800000204E
S113129000ED00E0000000000040004119140000CF
S11312A0A512000010B5104B9847104B9847104BEF
S11312B09847104B9847104B20229A6065215A5C3E
S11312C0022002435A5401220C4B1A70BFF35F8F61
S11312D062B68023DB0501325A705A78022AFCD1A7
S11312E0BFF34F8F30BFFBE7DD1100001501000095
S11312F0F9090000750A0000802800400000002061
S1131300002243088B4274D303098B425FD3030A40
S11313108B4244D3030B8B4228D3030C8B420DD353
S1131320FF22090212BA030C8B4202D312120902E1
S113133065D0030B8B4219D300E0090AC30B8B421F
S113134001D3CB03C01A5241830B8B4201D38B03CD
S1131350C01A5241430B8B4201D34B03C01A524172
S1131360030B8B4201D30B03C01A5241C30A8B42B5
S113137001D3CB02C01A5241830A8B4201D38B02A0
S1131380C01A5241430A8B4201D34B02C01A524144
S1131390030A8B4201D30B02C01A5241CDD2C309B6
S11313A08B4201D3CB01C01A524183098B4201D332
S11313B08B01C01A524143098B4201D34B01C01A1D
S11313C0524103098B4201D30B01C01A5241C30895
S11313D08B4201D3CB00C01A524183088B4201D304
S11313E08B00C01A524143088B4201D34B00C01AF0
S11313F05241411A00D20146524110467047FFE75C
S113140001B5002000F006F802BDC0460029F7D05F
S113141076E770477047C04670B500260C4D0D4CFA
S1131420641BA410A64209D1002600F017F90A4D46
S11314300A4C641BA410A64205D170BDB300EB583E
S113144098470136EEE7B300EB5898470136F2E7C8
S11314506816000068160000681600006C1600008C
S1131460002310B59A4200D110BDCC5CC4540133A2
S1131470F8E70000FC0200002C0500002C05000029
S11314802C0500002C0500002C0500002C05000094
S11314902C0500002C0500002C0500002C05000084
S11314A02C0500002C0500002C0500002C05000074
S11314B02C050000E40200002C0500002C050000AF
S11314C02C0500002C0500002C0500002C05000054
S11314D02C0500002C0500002C0500002C05000044
S11314E02C0500002C0500002C0500002C05000034
S11314F02C050000F40200002C0500002C0500005F
S11315002C0500002C0500002C0500002C05000013
S11315102C0500002C0500002C0500002C05000003
S11315202C0500002C0500002C0500002C050000F3
S11315302C050000EC02000004030000CC020000B3
S1131540DC020000D40200000200000003000000DE
S1131550280000002900000004000000050000002D
S11315600600000007000000200000002100000029
S113157022000000230000002400000025000000D9
S113158026000000270000000800000009000000F9
S11315900A0000000B000000FFFF0000FFFF000036
S11315A0FFFF0000FFFF00004E070000440800009A
S11315B04E0800005808000062080000940800006B
S11315C09E080000A8080000B2080000BC08000043
S11315D0002000420024004200280042002C004267
S11315E000080043020000000001000002000000A7
S11315F000020000020000000004000002000000DD
S1131600000800000300000004000000111213147D
S1131610150000009E0B00009A0B00009A0B0000BE
S1131620000C0000000C0000B40B0000A40B000030
S1131630BA0B0000EE0B0000E80C0000C80C000020
S1131640C80C0000740D0000DA0C0000F60C000059
S1131650CC0C0000040D0000580D0000F8B5C04685
S1131660F8BC08BC9E467047DD000000F8B5C046D3
S10F1670F8BC08BC9E467047B5000000A2
S107167C0100000065
S903120DDD
