S01D00004C4F575F504F5745525F44454D4F5F584D454741312E73726563A3
S1130000FDC000001AC1000018C1000016C10000A4
S113001014C1000012C1000010C100000EC1000094
S11300200CC100000AC1000008C1000006C10000A4
S113003004C1000002C1000000C10000FEC00000B5
S1130040FCC00000FAC00000F8C00000F6C00000C8
S1130050F4C00000F2C00000F0C00000EEC00000D8
S1130060ECC00000EAC00000E8C00000E6C00000E8
S1130070E4C00000E2C00000E0C00000DEC00000F8
S1130080DCC00000DAC00000D8C00000D6C0000008
S1130090D4C00000D2C00000D0C00000CEC0000018
S11300A0CCC00000CAC00000C8C000002EC30000BD
S11300B0C4C00000C2C00000C0C00000BEC0000038
S11300C0BCC00000BAC00000B8C00000B6C0000048
S11300D0B4C00000B2C00000B0C00000AEC0000058
S11300E0ACC00000AAC00000A8C00000A6C0000068
S11300F0A4C00000A2C00000A0C000009EC0000078
S11301009CC000009AC0000098C0000096C0000087
S113011094C0000092C0000090C000008EC0000097
S11301208CC000008AC0000088C0000086C00000A7
S113013084C0000082C0000080C000007EC00000B7
S11301407CC000007AC0000078C0000076C00000C7
S113015074C0000072C0000070C000006EC00000D7
S11301606CC000006AC0000068C0000066C00000E7
S113017064C0000062C0000060C000005EC00000F7
S11301805CC000005AC0000058C0000056C0000007
S113019054C0000052C0000050C000004EC0000017
S11301A0F5C200004AC0000048C0000046C000007C
S11301B044C0000042C0000040C000003EC0000037
S11301C03CC000003AC0000038C0000036C0000047
S11301D034C0000032C0000030C000002EC0000057
S11301E02CC000002AC0000028C0000026C0000067
S11301F024C0000022C0000020C0000011241FBE43
S1130200CFEFCDBFDFE5DEBF00E00CBF10E2A0E022
S1130210B0E2E0E1FAE000E00BBF02C007900D920B
S1130220A630B107D9F720E2A6E0B0E201C01D92E2
S1130230AD30B207E1F7EBD2E9C3E2CE8FEF8093A2
S11302407000809371008093720080937300809398
S1130250740080937500809376000895CF93DF93A4
S11302601F92CDB7DEB79FB79983F8949981E82F91
S1130270F0E0E059FF4F8081682B60839FBF0F90AF
S1130280DF91CF910895CF93DF93FC0120E030E01C
S1130290C62FD0E0DE01022E02C0B595A7950A94C0
S11302A0E2F7A0FD508B2F5F3F4F31962830310588
S11302B089F740FF0AC041FF03C0FC01658302C007
S11302C0FC016683FC01618302C0FC016283DF914F
S11302D0CF91089543E050E061E080EE97E0D3DFF2
S11302E043E050E062E080EE97E0CDDF43E050E091
S11302F060E180E696E0C7DF41E050E460E280E63A
S113030096E0C1DF40E05BE160E280E896E0BBDFBD
S113031040E05BE162E080EA96E0B5DF40E05BE16B
S113032064E080EA96E0AFCF08951BBEFC0128ED9F
S113033024BF60830895609180006C7F616080E8D1
S113034090E0F3CF089504C06150710981099109C7
S11303506115710581059105B9F70895CF93DF9370
S1130360CDB7DEB72C97CDBFDEBF8091062083309A
S113037009F476C030F4813069F1823009F44DC05B
S113038006C0843009F48FC0853009F4AFC0809171
S11303900720811101C0FFCF8FB78B87F8949B850D
S11303A0E7E0F0E28081815080839FBF81818F3FAD
S11303B009F4FFCF8FB78C87F8949C85E7E0F0E2CF
S11303C081818F5F81839FBF809106208F5F80939F
S11303D00620ACC080910820811101C0FFCF8FB7E7
S11303E08987F8949985E7E0F0E2818181508183DF
S11303F09FBF82818F3F09F4FFCF8FB78A87F8941C
S11304009A85E7E0F0E282818F5F82839FBF8091CB
S113041006208F5F8093062089C080910920811176
S113042001C0FFCF8FB78F83F8949F81E7E0F0E29C
S11304308281815082839FBF83818F3F09F4FFCFE4
S11304408FB78887F8949885E7E0F0E283818F5F1F
S113045083839FBF809106208F5F8093062066C0B0
S113046080910A20811101C0FFCF8FB78D83F8944A
S11304709D81E7E0F0E28381815083839FBF848183
S11304808F3F09F4FFCF8FB78E83F8949E81E7E006
S1130490F0E284818F5F84839FBF809106208F5F09
S11304A08093062043C080910B20811101C0FFCFAF
S11304B08FB78B83F8949B81E7E0F0E284818150CD
S11304C084839FBF85818F3F09F4FFCF8FB78C83CF
S11304D0F8949C81E7E0F0E285818F5F85839FBF7C
S11304E0809106208F5F8093062020C080910C208D
S11304F0811101C0FFCF8FB78983F8949981E7E018
S1130500F0E28581815085839FBF81818F3F09F40B
S1130510FFCF8FB78A83F8949A81E7E0F0E2818174
S11305208F5F81839FBF81E0809306202C96CDBF8F
S1130530DEBFDF91CF910895009709F4E5C0803CB8
S1130540910521F460E180E089CE0895803821E0AE
S1130550920721F462E080E081CE0895811521E0C4
S1130560920721F461E080E079CE0895803823E099
S1130570920721F461E081E071CE0895803923E08F
S1130580920721F461E082E069CE0895811522E0AA
S1130590920721F462E081E061CE0895803422E084
S11305A0920721F462E082E059CE0895803223E07C
S11305B0920721F464E082E051CE0895811528E089
S11305C0920721F461E083E049CE0895811529E082
S11305D0920721F461E084E041CE089581152AE078
S11305E0920721F461E085E039CE089581152BE06E
S11305F0920721F461E086E031CE0895803428E04A
S1130600920721F462E083E029CE0895803429E042
S1130610920721F462E084E021CE089580342AE038
S1130620920721F462E085E019CE0895803928E02C
S1130630920721F464E083E011CE0895803929E023
S1130640920721F464E084E009CE089580392AE019
S1130650920721F464E085E001CE089580392BE00F
S1130660920721F464E086E0F9CD0895803C28E007
S1130670920721F468E083E0F1CD0895803C29E0FD
S1130680920721F468E084E0E9CD0895803A28E0F7
S1130690920721F460E183E0E1CD0895803A29E0F6
S11306A0920721F460E184E0D9CD0895803A2AE0EC
S11306B0920721F460E185E0D1CD0895803A2BE0E2
S11306C0920721F460E186E0C9CD0895803B28E0DB
S11306D0920721F460E283E0C1CD0895803B29E0D4
S11306E0920721F460E284E0B9CD0895803824E0D3
S11306F0920721F460E483E0B1CD0895803A9440F8
S113070019F460E485E0AACD08951F920F920FB604
S11307100F9211240BB60F922F933F934F935F9335
S11307206F937F938F939F93AF93BF93EF93FF93B5
S1130730F89466E07DE080E090E005DE0FDE8091D5
S113074088068F6D8F3F31F0E0E8F6E080858F6D8D
S11307508F3FE1F766E07DE080E090E0F4DD81E04A
S113076080938C067894FF91EF91BF91AF919F9104
S11307708F917F916F915F914F913F912F910F9046
S11307800BBE0F900FBE0F901F9018951F920F92E3
S11307900FB60F9211240BB60F922F933F934F93E2
S11307A05F936F937F938F939F93AF93BF93EF93D5
S11307B0FF93F89466E07DE080E090E0C4DDCEDD58
S11307C08091A806896F8F3F31F0E0EAF6E08085DA
S11307D0896F8F3FE1F766E07DE080E090E0B3DD74
S11307E081E08093AC067894FF91EF91BF91AF9133
S11307F09F918F917F916F915F914F913F912F9135
S11308000F900BBE0F900FBE0F901F901895CF93B3
S1130810DF931F92CDB7DEB75DDD10DD80EC90E095
S11308208BDE80E091E088DE80E891E085DE80E880
S113083094E082DE80EA94E07FDE80EC98E07CDE67
S113084080EC99E079DE80EA98E076DE80EB98E04F
S113085073DE80EA99E070DE80EB99E06DDE80EA79
S11308609AE06ADE80EA9BE067DE80E098E064DE7E
S113087080E498E061DE80E099E05EDE80E499E067
S11308805BDE80E09AE058DE80E49AE055DE80E0AA
S11308909BE052DE80E998E04FDE80E999E04CDE8F
S11308A080E99AE049DE80E99BE046DE80E893E057
S11308B043DE80E092E040DE80E993E03DDE80E4C8
S11308C092E03ADE80E293E037DE40E058E164EF04
S11308D080E096E0D8DC40E057E063E080E096E01A
S11308E0D2DC40E058E16FE780E296E0CCDC40E007
S11308F058E16FEF80E496E0C6DC40E058E16FE336
S113090080E696E0C0DC40E058E16FE080E896E0E5
S1130910BADC40E058E16FEF80EA96E0B4DC40E0F6
S113092058E163E080EE97E0AEDC40E050E068E040
S113093080E096E0A8DCFFDC66E08CEC91E0F5DC7E
S113094007E010E2D8011C9211961C92119712969E
S11309501C92129713961C92139714961C92149738
S113096081E015968C9387E08093A200A0E8B6E01E
S113097082E019968C931997E0EAF6E0818780E289
S11309801A968C9386E0828740E05BE160E280E81F
S113099096E079DC40E05BE166E080EA96E073DCB7
S11309A07894F80180818F3F09F4FFCF8FB7898352
S11309B0F8949981E7E0F0E280818F5F80839FBFA4
S11309C0AF0128E430E0F894DA018C91811109C078
S11309D0A8E0B0E2E0E0EF5F8D918823E1F3E1115C
S11309E002C07894F0CFD9018C91F0E0E150F04E40
S11309F0817F9081892B8C938C9181608C937894E6
S1130A008895F90180818E7F8083DDCFF894FFCFB4
S1090A10000E060C0400B8
S9030000FC
