S0100000584D4547413235362E7372656305
S1130000FDC000001AC1000018C1000016C10000A4
S113001014C1000012C1000010C100000EC1000094
S11300200CC100000AC1000008C1000006C10000A4
S113003004C1000002C1000011C100003CC1000065
S113004067C1000092C10000BDC10000E8C100000A
S113005013C200003EC2000069C2000094C2000046
S1130060ECC00000EAC00000E8C00000E6C00000E8
S1130070E4C00000E2C00000E0C00000DEC00000F8
S1130080DCC00000DAC00000D8C00000D6C0000008
S1130090D4C00000D2C00000D0C00000CEC0000018
S11300A0CCC00000CAC00000C8C00000C6C0000028
S11300B0C4C00000C2C00000C0C0000053C400009F
S11300C07EC40000A9C40000D4C40000FFC4000022
S11300D02AC5000055C5000080C50000ABC500005E
S11300E0D6C50000AAC00000A8C00000A6C0000039
S11300F0A4C00000A2C00000A0C000009EC0000078
S11301009CC000009AC0000098C0000096C0000087
S113011094C0000092C0000090C00000E1C700003D
S11301208CC000008AC0000088C0000086C00000A7
S113013084C0000055C2000080C20000ABC20000B1
S1130140D6C2000001C300002CC3000057C3000046
S113015082C30000ADC30000D8C300006EC000001D
S11301606CC000006AC0000068C0000066C00000E7
S113017064C0000062C0000060C000005EC00000F7
S11301805CC000005AC0000058C0000056C0000007
S113019054C0000052C0000050C000004EC0000017
S11301A04CC000004AC0000048C0000046C0000027
S11301B09BC50000C6C50000F1C500001CC60000B8
S11301C047C6000072C6000038C0000036C00000F8
S11301D034C0000032C0000030C000002EC0000057
S11301E02CC000002AC0000028C0000026C0000067
S11301F024C0000022C0000020C0000011241FBE43
S1130200CFEFCDBFDFE5DEBF00E00CBF10E2A0E022
S1130210B0E2E0E3F1E100E00BBF02C007900D9211
S1130220A030B107D9F720E2A0E0B0E201C01D92EE
S1130230AA34B207E1F73DD779C7E2CE8FEF8093B6
S11302407000809371008093720080937300809398
S11302507400809375008093760008951F920F9226
S11302600FB60F9211240BB60F922F933F934F9317
S11302705F936F937F938F939F93AF93BF93EF930A
S1130280FF93E0914620F0914720309709F01995AB
S1130290FF91EF91BF91AF919F918F917F916F915A
S11302A05F914F913F912F910F900BBE0F900FBE16
S11302B00F901F9018951F920F920FB60F92112452
S11302C00BB60F922F933F934F935F936F937F934C
S11302D08F939F93AF93BF93EF93FF93E091442049
S11302E0F0914520309709F01995FF91EF91BF9156
S11302F0AF919F918F917F916F915F914F913F91BA
S11303002F910F900BBE0F900FBE0F901F9018955A
S11303101F920F920FB60F9211240BB60F922F93C8
S11303203F934F935F936F937F938F939F93AF9379
S1130330BF93EF93FF93E0914220F09143203097D5
S113034009F01995FF91EF91BF91AF919F918F9112
S11303507F916F915F914F913F912F910F900BBEC1
S11303600F900FBE0F901F9018951F920F920FB60B
S11303700F9211240BB60F922F933F934F935F93D9
S11303806F937F938F939F93AF93BF93EF93FF9359
S1130390E0914020F0914120309709F01995FF91A8
S11303A0EF91BF91AF919F918F917F916F915F91E9
S11303B04F913F912F910F900BBE0F900FBE0F9056
S11303C01F9018951F920F920FB60F9211240BB61F
S11303D00F922F933F934F935F936F937F938F93DA
S11303E09F93AF93BF93EF93FF93E0913E20F091DF
S11303F03F20309709F01995FF91EF91BF91AF918C
S11304009F918F917F916F915F914F913F912F9128
S11304100F900BBE0F900FBE0F901F9018951F9258
S11304200F920FB60F9211240BB60F922F933F9396
S11304304F935F936F937F938F939F93AF93BF93E8
S1130440EF93FF93E0913C20F0913D20309709F029
S11304501995FF91EF91BF91AF919F918F917F91EA
S11304606F915F914F913F912F910F900BBE0F9021
S11304700FBE0F901F9018951F920F920FB60F92F8
S113048011240BB60F922F933F934F935F936F9367
S11304907F938F939F93AF93BF93EF93FF93E091D9
S11304A03A20F0913B20309709F01995FF91EF9194
S11304B0BF91AF919F918F917F916F915F914F9178
S11304C03F912F910F900BBE0F900FBE0F901F9076
S11304D018951F920F920FB60F9211240BB60F921C
S11304E02F933F934F935F936F937F938F939F9338
S11304F0AF93BF93EF93FF93E0913820F0913920AD
S1130500309709F01995FF91EF91BF91AF919F91A9
S11305108F917F916F915F914F913F912F910F90A8
S11305200BBE0F900FBE0F901F9018951F920F9245
S11305300FB60F9211240BB60F922F933F934F9344
S11305405F936F937F938F939F93AF93BF93EF9337
S1130550FF93E0913620F0913720309709F01995F8
S1130560FF91EF91BF91AF919F918F917F916F9187
S11305705F914F913F912F910F900BBE0F900FBE43
S11305800F901F9018951F920F920FB60F9211247F
S11305900BB60F922F933F934F935F936F937F9379
S11305A08F939F93AF93BF93EF93FF93E091342086
S11305B0F0913520309709F01995FF91EF91BF9193
S11305C0AF919F918F917F916F915F914F913F91E7
S11305D02F910F900BBE0F900FBE0F901F90189588
S11305E01F920F920FB60F9211240BB60F922F93F6
S11305F03F934F935F936F937F938F939F93AF93A7
S1130600BF93EF93FF93E0913220F0913320309722
S113061009F01995FF91EF91BF91AF919F918F913F
S11306207F916F915F914F913F912F910F900BBEEE
S11306300F900FBE0F901F9018951F920F920FB638
S11306400F9211240BB60F922F933F934F935F9306
S11306506F937F938F939F93AF93BF93EF93FF9386
S1130660E0913020F0913120309709F01995FF91F5
S1130670EF91BF91AF919F918F917F916F915F9116
S11306804F913F912F910F900BBE0F900FBE0F9083
S11306901F9018951F920F920FB60F9211240BB64C
S11306A00F922F933F934F935F936F937F938F9307
S11306B09F93AF93BF93EF93FF93E0912E20F0911C
S11306C02F20309709F01995FF91EF91BF91AF91C9
S11306D09F918F917F916F915F914F913F912F9156
S11306E00F900BBE0F900FBE0F901F9018951F9286
S11306F00F920FB60F9211240BB60F922F933F93C4
S11307004F935F936F937F938F939F93AF93BF9315
S1130710EF93FF93E0912C20F0912D20309709F076
S11307201995FF91EF91BF91AF919F918F917F9117
S11307306F915F914F913F912F910F900BBE0F904E
S11307400FBE0F901F9018951F920F920FB60F9225
S113075011240BB60F922F933F934F935F936F9394
S11307607F938F939F93AF93BF93EF93FF93E09106
S11307702A20F0912B20309709F01995FF91EF91E1
S1130780BF91AF919F918F917F916F915F914F91A5
S11307903F912F910F900BBE0F900FBE0F901F90A3
S11307A018951F920F920FB60F9211240BB60F9249
S11307B02F933F934F935F936F937F938F939F9365
S11307C0AF93BF93EF93FF93E0912820F0912920FA
S11307D0309709F01995FF91EF91BF91AF919F91D7
S11307E08F917F916F915F914F913F912F910F90D6
S11307F00BBE0F900FBE0F901F9018951F920F9273
S11308000FB60F9211240BB60F922F933F934F9371
S11308105F936F937F938F939F93AF93BF93EF9364
S1130820FF93E0912620F0912720309709F0199545
S1130830FF91EF91BF91AF919F918F917F916F91B4
S11308405F914F913F912F910F900BBE0F900FBE70
S11308500F901F9018951F920F920FB60F921124AC
S11308600BB60F922F933F934F935F936F937F93A6
S11308708F939F93AF93BF93EF93FF93E0912420C3
S1130880F0912520309709F01995FF91EF91BF91D0
S1130890AF919F918F917F916F915F914F913F9114
S11308A02F910F900BBE0F900FBE0F901F901895B5
S11308B01F920F920FB60F9211240BB60F922F9323
S11308C03F934F935F936F937F938F939F93AF93D4
S11308D0BF93EF93FF93E0912220F0912320309770
S11308E009F01995FF91EF91BF91AF919F918F916D
S11308F07F916F915F914F913F912F910F900BBE1C
S11309000F900FBE0F901F9018951F920F920FB665
S11309100F9211240BB60F922F933F934F935F9333
S11309206F937F938F939F93AF93BF93EF93FF93B3
S1130930E0912020F0912120309709F01995FF9142
S1130940EF91BF91AF919F918F917F916F915F9143
S11309504F913F912F910F900BBE0F900FBE0F90B0
S11309601F9018951F920F920FB60F9211240BB679
S11309700F922F933F934F935F936F937F938F9334
S11309809F93AF93BF93EF93FF93E0911E20F09159
S11309901F20309709F01995FF91EF91BF91AF9106
S11309A09F918F917F916F915F914F913F912F9183
S11309B00F900BBE0F900FBE0F901F9018951F92B3
S11309C00F920FB60F9211240BB60F922F933F93F1
S11309D04F935F936F937F938F939F93AF93BF9343
S11309E0EF93FF93E0911C20F0911D20309709F0C4
S11309F01995FF91EF91BF91AF919F918F917F9145
S1130A006F915F914F913F912F910F900BBE0F907B
S1130A100FBE0F901F9018951F920F920FB60F9252
S1130A2011240BB60F922F933F934F935F936F93C1
S1130A307F938F939F93AF93BF93EF93FF93E09133
S1130A401A20F0911B20309709F01995FF91EF912E
S1130A50BF91AF919F918F917F916F915F914F91D2
S1130A603F912F910F900BBE0F900FBE0F901F90D0
S1130A7018951F920F920FB60F9211240BB60F9276
S1130A802F933F934F935F936F937F938F939F9392
S1130A90AF93BF93EF93FF93E0911820F091192047
S1130AA0309709F01995FF91EF91BF91AF919F9104
S1130AB08F917F916F915F914F913F912F910F9003
S1130AC00BBE0F900FBE0F901F9018951F920F92A0
S1130AD00FB60F9211240BB60F922F933F934F939F
S1130AE05F936F937F938F939F93AF93BF93EF9392
S1130AF0FF93E0911620F0911720309709F0199593
S1130B00FF91EF91BF91AF919F918F917F916F91E1
S1130B105F914F913F912F910F900BBE0F900FBE9D
S1130B200F901F9018951F920F920FB60F921124D9
S1130B300BB60F922F933F934F935F936F937F93D3
S1130B408F939F93AF93BF93EF93FF93E091142000
S1130B50F0911520309709F01995FF91EF91BF910D
S1130B60AF919F918F917F916F915F914F913F9141
S1130B702F910F900BBE0F900FBE0F901F901895E2
S1130B801F920F920FB60F9211240BB60F922F9350
S1130B903F934F935F936F937F938F939F93AF9301
S1130BA0BF93EF93FF93E0911220F09113203097BD
S1130BB009F01995FF91EF91BF91AF919F918F919A
S1130BC07F916F915F914F913F912F910F900BBE49
S1130BD00F900FBE0F901F9018951F920F920FB693
S1130BE00F9211240BB60F922F933F934F935F9361
S1130BF06F937F938F939F93AF93BF93EF93FF93E1
S1130C00E0911020F0911120309709F01995FF918F
S1130C10EF91BF91AF919F918F917F916F915F9170
S1130C204F913F912F910F900BBE0F900FBE0F90DD
S1130C301F9018951F920F920FB60F9211240BB6A6
S1130C400F922F933F934F935F936F937F938F9361
S1130C509F93AF93BF93EF93FF93E0910E20F09196
S1130C600F20309709F01995FF91EF91BF91AF9143
S1130C709F918F917F916F915F914F913F912F91B0
S1130C800F900BBE0F900FBE0F901F9018951F92E0
S1130C900F920FB60F9211240BB60F922F933F931E
S1130CA04F935F936F937F938F939F93AF93BF9370
S1130CB0EF93FF93E0910C20F0910D20309709F011
S1130CC01995FF91EF91BF91AF919F918F917F9172
S1130CD06F915F914F913F912F910F900BBE0F90A9
S1130CE00FBE0F901F9018951F920F920FB60F9280
S1130CF011240BB60F922F933F934F935F936F93EF
S1130D007F938F939F93AF93BF93EF93FF93E09160
S1130D100A20F0910B20309709F01995FF91EF917B
S1130D20BF91AF919F918F917F916F915F914F91FF
S1130D303F912F910F900BBE0F900FBE0F901F90FD
S1130D4018951F920F920FB60F9211240BB60F92A3
S1130D502F933F934F935F936F937F938F939F93BF
S1130D60AF93BF93EF93FF93E0910820F091092094
S1130D70309709F01995FF91EF91BF91AF919F9131
S1130D808F917F916F915F914F913F912F910F9030
S1130D900BBE0F900FBE0F901F9018951F920F92CD
S1130DA00FB60F9211240BB60F922F933F934F93CC
S1130DB05F936F937F938F939F93AF93BF93EF93BF
S1130DC0FF93E0910620F0910720309709F01995E0
S1130DD0FF91EF91BF91AF919F918F917F916F910F
S1130DE05F914F913F912F910F900BBE0F900FBECB
S1130DF00F901F9018951F920F920FB60F92112407
S1130E000BB60F922F933F934F935F936F937F9300
S1130E108F939F93AF93BF93EF93FF93E09104203D
S1130E20F0910520309709F01995FF91EF91BF914A
S1130E30AF919F918F917F916F915F914F913F916E
S1130E402F910F900BBE0F900FBE0F901F9018950F
S1130E501F920F920FB60F9211240BB60F922F937D
S1130E603F934F935F936F937F938F939F93AF932E
S1130E70BF93EF93FF93E0910220F091032030970A
S1130E8009F01995FF91EF91BF91AF919F918F91C7
S1130E907F916F915F914F913F912F910F900BBE76
S1130EA00F900FBE0F901F9018951F920F920FB6C0
S1130EB00F9211240BB60F922F933F934F935F938E
S1130EC06F937F938F939F93AF93BF93EF93FF930E
S1130ED0E0910020F0910120309709F01995FF91DD
S1130EE0EF91BF91AF919F918F917F916F915F919E
S1130EF04F913F912F910F900BBE0F900FBE0F900B
S1130F001F901895CF93DF93FC0120E030E0C62FAB
S1130F10D0E0DE01022E02C0B595A7950A94E2F74F
S1130F20A0FD508B2F5F3F4F31962830310589F754
S1130F3040FF0AC041FF03C0FC01658302C0FC01FD
S1130F406683FC01618302C0FC016283DF91CF915F
S1130F50089543E050E061E080EE97E0D3DF43E0A2
S1130F6050E062E080EE97E0CDDF43E050E060E1E6
S1130F7080E696E0C7DF41E050E460E280E696E078
S1130F80C1DF40E05BE160E280E896E0BBDF40E087
S1130F905BE162E080EA96E0B5DF40E05BE164E0BB
S1130FA080EA96E0AFDF43E050E062E080E696E05E
S1130FB0A9DF43E050E068E080E696E0A3DF43E089
S1130FC050E068E080EA96E09DDF43E050E061E0B5
S1130FD080E696E097DF43E050E068E080E096E04A
S1130FE091DF41E050E060E180E896E08BDF43E090
S1130FF050E062E080E696E085DF43E050E068E0A0
S113100080E696E07FDF40E050E064E080E696E032
S113101079DF43E050E060E180EA96E073DF40E08E
S113102050E061E080E096E06DDF40E050E064E095
S113103080E096E067DF40E050E062E080E296E026
S113104061DF43E050E068E080E496E05BDF40E08D
S113105050E064E080E496E055DF43E050E068E06F
S113106080E696E04FDF40E050E064E080E696E002
S113107049DF43E050E068E080E896E043DF40E089
S113108050E064E080E896E03DCF089588ED84BFA9
S113109084E080934100E0E0F2E080E6818380E137
S11310A08283148281E080A311A293E092A38083BF
S11310B00895C4D84EDF80E280936506E7DFE8E454
S11310C0F0E08081817F808380818160808380E8FB
S11310D08093200284E08093A20078948895FECFC8
S11310E01F920F920FB60F9211240BB60F928F938B
S11310F09F93EF93FF93809110029091110280933C
S1131100482090934920E0E0F2E081E083A390E856
S113111090A38093E707FF91EF919F918F910F9098
S11311200BBE0F900FBE0F901F901895F894FFCF31
S9030000FC
